{
	"Array.sol": {
		"DynamicArrayExample": {
			"abi": [
				{
					"inputs": [
						{
							"internalType": "uint256",
							"name": "",
							"type": "uint256"
						}
					],
					"name": "dynamicArray",
					"outputs": [
						{
							"internalType": "uint256",
							"name": "",
							"type": "uint256"
						}
					],
					"stateMutability": "view",
					"type": "function"
				},
				{
					"inputs": [],
					"name": "getArrayLength",
					"outputs": [
						{
							"internalType": "uint256",
							"name": "",
							"type": "uint256"
						}
					],
					"stateMutability": "view",
					"type": "function"
				},
				{
					"inputs": [],
					"name": "getarray",
					"outputs": [
						{
							"internalType": "uint256[]",
							"name": "",
							"type": "uint256[]"
						}
					],
					"stateMutability": "view",
					"type": "function"
				},
				{
					"inputs": [],
					"name": "poparray",
					"outputs": [],
					"stateMutability": "nonpayable",
					"type": "function"
				},
				{
					"inputs": [
						{
							"internalType": "uint256",
							"name": "_element",
							"type": "uint256"
						}
					],
					"name": "pushElement",
					"outputs": [],
					"stateMutability": "nonpayable",
					"type": "function"
				}
			],
			"devdoc": {
				"kind": "dev",
				"methods": {},
				"version": 1
			},
			"evm": {
				"assembly": "    /* \"Array.sol\":59:629  contract DynamicArrayExample {... */\n  mstore(0x40, 0x80)\n  callvalue\n  dup1\n  iszero\n  tag_1\n  jumpi\n  0x00\n  dup1\n  revert\ntag_1:\n  pop\n  dataSize(sub_0)\n  dup1\n  dataOffset(sub_0)\n  0x00\n  codecopy\n  0x00\n  return\nstop\n\nsub_0: assembly {\n        /* \"Array.sol\":59:629  contract DynamicArrayExample {... */\n      mstore(0x40, 0x80)\n      callvalue\n      dup1\n      iszero\n      tag_1\n      jumpi\n      0x00\n      dup1\n      revert\n    tag_1:\n      pop\n      jumpi(tag_2, lt(calldatasize, 0x04))\n      shr(0xe0, calldataload(0x00))\n      dup1\n      0x0849cc99\n      eq\n      tag_3\n      jumpi\n      dup1\n      0x0cfd0fae\n      eq\n      tag_4\n      jumpi\n      dup1\n      0x78321efb\n      eq\n      tag_5\n      jumpi\n      dup1\n      0x9a9bdca7\n      eq\n      tag_6\n      jumpi\n      dup1\n      0x9e03c499\n      eq\n      tag_7\n      jumpi\n    tag_2:\n      0x00\n      dup1\n      revert\n        /* \"Array.sol\":344:445  function getArrayLength() public view returns (uint256) {... */\n    tag_3:\n      tag_8\n      tag_9\n      jump\t// in\n    tag_8:\n      mload(0x40)\n      tag_10\n      swap2\n      swap1\n      tag_11\n      jump\t// in\n    tag_10:\n      mload(0x40)\n      dup1\n      swap2\n      sub\n      swap1\n      return\n        /* \"Array.sol\":453:554  function getarray() public view returns (uint256[] memory) {... */\n    tag_4:\n      tag_12\n      tag_13\n      jump\t// in\n    tag_12:\n      mload(0x40)\n      tag_14\n      swap2\n      swap1\n      tag_15\n      jump\t// in\n    tag_14:\n      mload(0x40)\n      dup1\n      swap2\n      sub\n      swap1\n      return\n        /* \"Array.sol\":189:281  function pushElement(uint256 _element) public {... */\n    tag_5:\n      tag_16\n      0x04\n      dup1\n      calldatasize\n      sub\n      dup2\n      add\n      swap1\n      tag_17\n      swap2\n      swap1\n      tag_18\n      jump\t// in\n    tag_17:\n      tag_19\n      jump\t// in\n    tag_16:\n      stop\n        /* \"Array.sol\":95:124  uint256[] public dynamicArray */\n    tag_6:\n      tag_20\n      0x04\n      dup1\n      calldatasize\n      sub\n      dup2\n      add\n      swap1\n      tag_21\n      swap2\n      swap1\n      tag_18\n      jump\t// in\n    tag_21:\n      tag_22\n      jump\t// in\n    tag_20:\n      mload(0x40)\n      tag_23\n      swap2\n      swap1\n      tag_11\n      jump\t// in\n    tag_23:\n      mload(0x40)\n      dup1\n      swap2\n      sub\n      swap1\n      return\n        /* \"Array.sol\":562:626  function poparray() public {... */\n    tag_7:\n      tag_24\n      tag_25\n      jump\t// in\n    tag_24:\n      stop\n        /* \"Array.sol\":344:445  function getArrayLength() public view returns (uint256) {... */\n    tag_9:\n        /* \"Array.sol\":391:398  uint256 */\n      0x00\n        /* \"Array.sol\":418:430  dynamicArray */\n      dup1\n        /* \"Array.sol\":418:437  dynamicArray.length */\n      dup1\n      sload\n      swap1\n      pop\n        /* \"Array.sol\":411:437  return dynamicArray.length */\n      swap1\n      pop\n        /* \"Array.sol\":344:445  function getArrayLength() public view returns (uint256) {... */\n      swap1\n      jump\t// out\n        /* \"Array.sol\":453:554  function getarray() public view returns (uint256[] memory) {... */\n    tag_13:\n        /* \"Array.sol\":494:510  uint256[] memory */\n      0x60\n        /* \"Array.sol\":534:546  dynamicArray */\n      0x00\n        /* \"Array.sol\":527:546  return dynamicArray */\n      dup1\n      sload\n      dup1\n      0x20\n      mul\n      0x20\n      add\n      mload(0x40)\n      swap1\n      dup2\n      add\n      0x40\n      mstore\n      dup1\n      swap3\n      swap2\n      swap1\n      dup2\n      dup2\n      mstore\n      0x20\n      add\n      dup3\n      dup1\n      sload\n      dup1\n      iszero\n      tag_28\n      jumpi\n      0x20\n      mul\n      dup3\n      add\n      swap2\n      swap1\n      0x00\n      mstore\n      keccak256(0x00, 0x20)\n      swap1\n    tag_29:\n      dup2\n      sload\n      dup2\n      mstore\n      0x20\n      add\n      swap1\n      0x01\n      add\n      swap1\n      dup1\n      dup4\n      gt\n      tag_29\n      jumpi\n    tag_28:\n      pop\n      pop\n      pop\n      pop\n      pop\n      swap1\n      pop\n        /* \"Array.sol\":453:554  function getarray() public view returns (uint256[] memory) {... */\n      swap1\n      jump\t// out\n        /* \"Array.sol\":189:281  function pushElement(uint256 _element) public {... */\n    tag_19:\n        /* \"Array.sol\":246:258  dynamicArray */\n      0x00\n        /* \"Array.sol\":264:272  _element */\n      dup2\n        /* \"Array.sol\":246:273  dynamicArray.push(_element) */\n      swap1\n      dup1\n      0x01\n      dup2\n      sload\n      add\n      dup1\n      dup3\n      sstore\n      dup1\n      swap2\n      pop\n      pop\n      0x01\n      swap1\n      sub\n      swap1\n      0x00\n      mstore\n      keccak256(0x00, 0x20)\n      add\n      0x00\n      swap1\n      swap2\n      swap1\n      swap2\n      swap1\n      swap2\n      pop\n      sstore\n        /* \"Array.sol\":189:281  function pushElement(uint256 _element) public {... */\n      pop\n      jump\t// out\n        /* \"Array.sol\":95:124  uint256[] public dynamicArray */\n    tag_22:\n      0x00\n      dup2\n      dup2\n      sload\n      dup2\n      lt\n      tag_32\n      jumpi\n      0x00\n      dup1\n      revert\n    tag_32:\n      swap1\n      0x00\n      mstore\n      keccak256(0x00, 0x20)\n      add\n      0x00\n      swap2\n      pop\n      swap1\n      pop\n      sload\n      dup2\n      jump\t// out\n        /* \"Array.sol\":562:626  function poparray() public {... */\n    tag_25:\n        /* \"Array.sol\":600:612  dynamicArray */\n      0x00\n        /* \"Array.sol\":600:618  dynamicArray.pop() */\n      dup1\n      sload\n      dup1\n      tag_35\n      jumpi\n      tag_36\n      tag_37\n      jump\t// in\n    tag_36:\n    tag_35:\n      0x01\n      swap1\n      sub\n      dup2\n      dup2\n      swap1\n      0x00\n      mstore\n      keccak256(0x00, 0x20)\n      add\n      0x00\n      swap1\n      sstore\n      swap1\n      sstore\n        /* \"Array.sol\":562:626  function poparray() public {... */\n      jump\t// out\n        /* \"#utility.yul\":7:84   */\n    tag_39:\n        /* \"#utility.yul\":44:51   */\n      0x00\n        /* \"#utility.yul\":73:78   */\n      dup2\n        /* \"#utility.yul\":62:78   */\n      swap1\n      pop\n        /* \"#utility.yul\":7:84   */\n      swap2\n      swap1\n      pop\n      jump\t// out\n        /* \"#utility.yul\":90:208   */\n    tag_40:\n        /* \"#utility.yul\":177:201   */\n      tag_56\n        /* \"#utility.yul\":195:200   */\n      dup2\n        /* \"#utility.yul\":177:201   */\n      tag_39\n      jump\t// in\n    tag_56:\n        /* \"#utility.yul\":172:175   */\n      dup3\n        /* \"#utility.yul\":165:202   */\n      mstore\n        /* \"#utility.yul\":90:208   */\n      pop\n      pop\n      jump\t// out\n        /* \"#utility.yul\":214:436   */\n    tag_11:\n        /* \"#utility.yul\":307:311   */\n      0x00\n        /* \"#utility.yul\":345:347   */\n      0x20\n        /* \"#utility.yul\":334:343   */\n      dup3\n        /* \"#utility.yul\":330:348   */\n      add\n        /* \"#utility.yul\":322:348   */\n      swap1\n      pop\n        /* \"#utility.yul\":358:429   */\n      tag_58\n        /* \"#utility.yul\":426:427   */\n      0x00\n        /* \"#utility.yul\":415:424   */\n      dup4\n        /* \"#utility.yul\":411:428   */\n      add\n        /* \"#utility.yul\":402:408   */\n      dup5\n        /* \"#utility.yul\":358:429   */\n      tag_40\n      jump\t// in\n    tag_58:\n        /* \"#utility.yul\":214:436   */\n      swap3\n      swap2\n      pop\n      pop\n      jump\t// out\n        /* \"#utility.yul\":442:556   */\n    tag_41:\n        /* \"#utility.yul\":509:515   */\n      0x00\n        /* \"#utility.yul\":543:548   */\n      dup2\n        /* \"#utility.yul\":537:549   */\n      mload\n        /* \"#utility.yul\":527:549   */\n      swap1\n      pop\n        /* \"#utility.yul\":442:556   */\n      swap2\n      swap1\n      pop\n      jump\t// out\n        /* \"#utility.yul\":562:746   */\n    tag_42:\n        /* \"#utility.yul\":661:672   */\n      0x00\n        /* \"#utility.yul\":695:701   */\n      dup3\n        /* \"#utility.yul\":690:693   */\n      dup3\n        /* \"#utility.yul\":683:702   */\n      mstore\n        /* \"#utility.yul\":735:739   */\n      0x20\n        /* \"#utility.yul\":730:733   */\n      dup3\n        /* \"#utility.yul\":726:740   */\n      add\n        /* \"#utility.yul\":711:740   */\n      swap1\n      pop\n        /* \"#utility.yul\":562:746   */\n      swap3\n      swap2\n      pop\n      pop\n      jump\t// out\n        /* \"#utility.yul\":752:884   */\n    tag_43:\n        /* \"#utility.yul\":819:823   */\n      0x00\n        /* \"#utility.yul\":842:845   */\n      dup2\n        /* \"#utility.yul\":834:845   */\n      swap1\n      pop\n        /* \"#utility.yul\":872:876   */\n      0x20\n        /* \"#utility.yul\":867:870   */\n      dup3\n        /* \"#utility.yul\":863:877   */\n      add\n        /* \"#utility.yul\":855:877   */\n      swap1\n      pop\n        /* \"#utility.yul\":752:884   */\n      swap2\n      swap1\n      pop\n      jump\t// out\n        /* \"#utility.yul\":890:998   */\n    tag_44:\n        /* \"#utility.yul\":967:991   */\n      tag_63\n        /* \"#utility.yul\":985:990   */\n      dup2\n        /* \"#utility.yul\":967:991   */\n      tag_39\n      jump\t// in\n    tag_63:\n        /* \"#utility.yul\":962:965   */\n      dup3\n        /* \"#utility.yul\":955:992   */\n      mstore\n        /* \"#utility.yul\":890:998   */\n      pop\n      pop\n      jump\t// out\n        /* \"#utility.yul\":1004:1183   */\n    tag_45:\n        /* \"#utility.yul\":1073:1083   */\n      0x00\n        /* \"#utility.yul\":1094:1140   */\n      tag_65\n        /* \"#utility.yul\":1136:1139   */\n      dup4\n        /* \"#utility.yul\":1128:1134   */\n      dup4\n        /* \"#utility.yul\":1094:1140   */\n      tag_44\n      jump\t// in\n    tag_65:\n        /* \"#utility.yul\":1172:1176   */\n      0x20\n        /* \"#utility.yul\":1167:1170   */\n      dup4\n        /* \"#utility.yul\":1163:1177   */\n      add\n        /* \"#utility.yul\":1149:1177   */\n      swap1\n      pop\n        /* \"#utility.yul\":1004:1183   */\n      swap3\n      swap2\n      pop\n      pop\n      jump\t// out\n        /* \"#utility.yul\":1189:1302   */\n    tag_46:\n        /* \"#utility.yul\":1259:1263   */\n      0x00\n        /* \"#utility.yul\":1291:1295   */\n      0x20\n        /* \"#utility.yul\":1286:1289   */\n      dup3\n        /* \"#utility.yul\":1282:1296   */\n      add\n        /* \"#utility.yul\":1274:1296   */\n      swap1\n      pop\n        /* \"#utility.yul\":1189:1302   */\n      swap2\n      swap1\n      pop\n      jump\t// out\n        /* \"#utility.yul\":1338:2070   */\n    tag_47:\n        /* \"#utility.yul\":1457:1460   */\n      0x00\n        /* \"#utility.yul\":1486:1540   */\n      tag_68\n        /* \"#utility.yul\":1534:1539   */\n      dup3\n        /* \"#utility.yul\":1486:1540   */\n      tag_41\n      jump\t// in\n    tag_68:\n        /* \"#utility.yul\":1556:1642   */\n      tag_69\n        /* \"#utility.yul\":1635:1641   */\n      dup2\n        /* \"#utility.yul\":1630:1633   */\n      dup6\n        /* \"#utility.yul\":1556:1642   */\n      tag_42\n      jump\t// in\n    tag_69:\n        /* \"#utility.yul\":1549:1642   */\n      swap4\n      pop\n        /* \"#utility.yul\":1666:1722   */\n      tag_70\n        /* \"#utility.yul\":1716:1721   */\n      dup4\n        /* \"#utility.yul\":1666:1722   */\n      tag_43\n      jump\t// in\n    tag_70:\n        /* \"#utility.yul\":1745:1752   */\n      dup1\n        /* \"#utility.yul\":1776:1777   */\n      0x00\n        /* \"#utility.yul\":1761:2045   */\n    tag_71:\n        /* \"#utility.yul\":1786:1792   */\n      dup4\n        /* \"#utility.yul\":1783:1784   */\n      dup2\n        /* \"#utility.yul\":1780:1793   */\n      lt\n        /* \"#utility.yul\":1761:2045   */\n      iszero\n      tag_73\n      jumpi\n        /* \"#utility.yul\":1862:1868   */\n      dup2\n        /* \"#utility.yul\":1856:1869   */\n      mload\n        /* \"#utility.yul\":1889:1952   */\n      tag_74\n        /* \"#utility.yul\":1948:1951   */\n      dup9\n        /* \"#utility.yul\":1933:1946   */\n      dup3\n        /* \"#utility.yul\":1889:1952   */\n      tag_45\n      jump\t// in\n    tag_74:\n        /* \"#utility.yul\":1882:1952   */\n      swap8\n      pop\n        /* \"#utility.yul\":1975:2035   */\n      tag_75\n        /* \"#utility.yul\":2028:2034   */\n      dup4\n        /* \"#utility.yul\":1975:2035   */\n      tag_46\n      jump\t// in\n    tag_75:\n        /* \"#utility.yul\":1965:2035   */\n      swap3\n      pop\n        /* \"#utility.yul\":1821:2045   */\n      pop\n        /* \"#utility.yul\":1808:1809   */\n      0x01\n        /* \"#utility.yul\":1805:1806   */\n      dup2\n        /* \"#utility.yul\":1801:1810   */\n      add\n        /* \"#utility.yul\":1796:1810   */\n      swap1\n      pop\n        /* \"#utility.yul\":1761:2045   */\n      jump(tag_71)\n    tag_73:\n        /* \"#utility.yul\":1765:1779   */\n      pop\n        /* \"#utility.yul\":2061:2064   */\n      dup6\n        /* \"#utility.yul\":2054:2064   */\n      swap4\n      pop\n        /* \"#utility.yul\":1462:2070   */\n      pop\n      pop\n      pop\n        /* \"#utility.yul\":1338:2070   */\n      swap3\n      swap2\n      pop\n      pop\n      jump\t// out\n        /* \"#utility.yul\":2076:2449   */\n    tag_15:\n        /* \"#utility.yul\":2219:2223   */\n      0x00\n        /* \"#utility.yul\":2257:2259   */\n      0x20\n        /* \"#utility.yul\":2246:2255   */\n      dup3\n        /* \"#utility.yul\":2242:2260   */\n      add\n        /* \"#utility.yul\":2234:2260   */\n      swap1\n      pop\n        /* \"#utility.yul\":2306:2315   */\n      dup2\n        /* \"#utility.yul\":2300:2304   */\n      dup2\n        /* \"#utility.yul\":2296:2316   */\n      sub\n        /* \"#utility.yul\":2292:2293   */\n      0x00\n        /* \"#utility.yul\":2281:2290   */\n      dup4\n        /* \"#utility.yul\":2277:2294   */\n      add\n        /* \"#utility.yul\":2270:2317   */\n      mstore\n        /* \"#utility.yul\":2334:2442   */\n      tag_77\n        /* \"#utility.yul\":2437:2441   */\n      dup2\n        /* \"#utility.yul\":2428:2434   */\n      dup5\n        /* \"#utility.yul\":2334:2442   */\n      tag_47\n      jump\t// in\n    tag_77:\n        /* \"#utility.yul\":2326:2442   */\n      swap1\n      pop\n        /* \"#utility.yul\":2076:2449   */\n      swap3\n      swap2\n      pop\n      pop\n      jump\t// out\n        /* \"#utility.yul\":2536:2653   */\n    tag_49:\n        /* \"#utility.yul\":2645:2646   */\n      0x00\n        /* \"#utility.yul\":2642:2643   */\n      dup1\n        /* \"#utility.yul\":2635:2647   */\n      revert\n        /* \"#utility.yul\":2782:2904   */\n    tag_51:\n        /* \"#utility.yul\":2855:2879   */\n      tag_82\n        /* \"#utility.yul\":2873:2878   */\n      dup2\n        /* \"#utility.yul\":2855:2879   */\n      tag_39\n      jump\t// in\n    tag_82:\n        /* \"#utility.yul\":2848:2853   */\n      dup2\n        /* \"#utility.yul\":2845:2880   */\n      eq\n        /* \"#utility.yul\":2835:2898   */\n      tag_83\n      jumpi\n        /* \"#utility.yul\":2894:2895   */\n      0x00\n        /* \"#utility.yul\":2891:2892   */\n      dup1\n        /* \"#utility.yul\":2884:2896   */\n      revert\n        /* \"#utility.yul\":2835:2898   */\n    tag_83:\n        /* \"#utility.yul\":2782:2904   */\n      pop\n      jump\t// out\n        /* \"#utility.yul\":2910:3049   */\n    tag_52:\n        /* \"#utility.yul\":2956:2961   */\n      0x00\n        /* \"#utility.yul\":2994:3000   */\n      dup2\n        /* \"#utility.yul\":2981:3001   */\n      calldataload\n        /* \"#utility.yul\":2972:3001   */\n      swap1\n      pop\n        /* \"#utility.yul\":3010:3043   */\n      tag_85\n        /* \"#utility.yul\":3037:3042   */\n      dup2\n        /* \"#utility.yul\":3010:3043   */\n      tag_51\n      jump\t// in\n    tag_85:\n        /* \"#utility.yul\":2910:3049   */\n      swap3\n      swap2\n      pop\n      pop\n      jump\t// out\n        /* \"#utility.yul\":3055:3384   */\n    tag_18:\n        /* \"#utility.yul\":3114:3120   */\n      0x00\n        /* \"#utility.yul\":3163:3165   */\n      0x20\n        /* \"#utility.yul\":3151:3160   */\n      dup3\n        /* \"#utility.yul\":3142:3149   */\n      dup5\n        /* \"#utility.yul\":3138:3161   */\n      sub\n        /* \"#utility.yul\":3134:3166   */\n      slt\n        /* \"#utility.yul\":3131:3250   */\n      iszero\n      tag_87\n      jumpi\n        /* \"#utility.yul\":3169:3248   */\n      tag_88\n      tag_49\n      jump\t// in\n    tag_88:\n        /* \"#utility.yul\":3131:3250   */\n    tag_87:\n        /* \"#utility.yul\":3289:3290   */\n      0x00\n        /* \"#utility.yul\":3314:3367   */\n      tag_89\n        /* \"#utility.yul\":3359:3366   */\n      dup5\n        /* \"#utility.yul\":3350:3356   */\n      dup3\n        /* \"#utility.yul\":3339:3348   */\n      dup6\n        /* \"#utility.yul\":3335:3357   */\n      add\n        /* \"#utility.yul\":3314:3367   */\n      tag_52\n      jump\t// in\n    tag_89:\n        /* \"#utility.yul\":3304:3367   */\n      swap2\n      pop\n        /* \"#utility.yul\":3260:3377   */\n      pop\n        /* \"#utility.yul\":3055:3384   */\n      swap3\n      swap2\n      pop\n      pop\n      jump\t// out\n        /* \"#utility.yul\":3390:3570   */\n    tag_37:\n        /* \"#utility.yul\":3438:3515   */\n      0x4e487b7100000000000000000000000000000000000000000000000000000000\n        /* \"#utility.yul\":3435:3436   */\n      0x00\n        /* \"#utility.yul\":3428:3516   */\n      mstore\n        /* \"#utility.yul\":3535:3539   */\n      0x31\n        /* \"#utility.yul\":3532:3533   */\n      0x04\n        /* \"#utility.yul\":3525:3540   */\n      mstore\n        /* \"#utility.yul\":3559:3563   */\n      0x24\n        /* \"#utility.yul\":3556:3557   */\n      0x00\n        /* \"#utility.yul\":3549:3564   */\n      revert\n\n    auxdata: 0xa2646970667358221220bb820c11c54c1db1c91ea2c51678c2555d621a1da0c080b84454bbc907a56cbf64736f6c634300081a0033\n}\n",
				"bytecode": {
					"linkReferences": {},
					"object": "6080604052348015600e575f80fd5b5061037c8061001c5f395ff3fe608060405234801561000f575f80fd5b5060043610610055575f3560e01c80630849cc99146100595780630cfd0fae1461007757806378321efb146100955780639a9bdca7146100b15780639e03c499146100e1575b5f80fd5b6100616100eb565b60405161006e91906101d0565b60405180910390f35b61007f6100f6565b60405161008c91906102a0565b60405180910390f35b6100af60048036038101906100aa91906102ee565b61014b565b005b6100cb60048036038101906100c691906102ee565b610173565b6040516100d891906101d0565b60405180910390f35b6100e9610192565b005b5f8080549050905090565b60605f80548060200260200160405190810160405280929190818152602001828054801561014157602002820191905f5260205f20905b81548152602001906001019080831161012d575b5050505050905090565b5f81908060018154018082558091505060019003905f5260205f20015f909190919091505550565b5f8181548110610181575f80fd5b905f5260205f20015f915090505481565b5f8054806101a3576101a2610319565b5b600190038181905f5260205f20015f90559055565b5f819050919050565b6101ca816101b8565b82525050565b5f6020820190506101e35f8301846101c1565b92915050565b5f81519050919050565b5f82825260208201905092915050565b5f819050602082019050919050565b61021b816101b8565b82525050565b5f61022c8383610212565b60208301905092915050565b5f602082019050919050565b5f61024e826101e9565b61025881856101f3565b935061026383610203565b805f5b8381101561029357815161027a8882610221565b975061028583610238565b925050600181019050610266565b5085935050505092915050565b5f6020820190508181035f8301526102b88184610244565b905092915050565b5f80fd5b6102cd816101b8565b81146102d7575f80fd5b50565b5f813590506102e8816102c4565b92915050565b5f60208284031215610303576103026102c0565b5b5f610310848285016102da565b91505092915050565b7f4e487b71000000000000000000000000000000000000000000000000000000005f52603160045260245ffdfea2646970667358221220bb820c11c54c1db1c91ea2c51678c2555d621a1da0c080b84454bbc907a56cbf64736f6c634300081a0033",
					"opcodes": "PUSH1 0x80 PUSH1 0x40 MSTORE CALLVALUE DUP1 ISZERO PUSH1 0xE JUMPI PUSH0 DUP1 REVERT JUMPDEST POP PUSH2 0x37C DUP1 PUSH2 0x1C PUSH0 CODECOPY PUSH0 RETURN INVALID PUSH1 0x80 PUSH1 0x40 MSTORE CALLVALUE DUP1 ISZERO PUSH2 0xF JUMPI PUSH0 DUP1 REVERT JUMPDEST POP PUSH1 0x4 CALLDATASIZE LT PUSH2 0x55 JUMPI PUSH0 CALLDATALOAD PUSH1 0xE0 SHR DUP1 PUSH4 0x849CC99 EQ PUSH2 0x59 JUMPI DUP1 PUSH4 0xCFD0FAE EQ PUSH2 0x77 JUMPI DUP1 PUSH4 0x78321EFB EQ PUSH2 0x95 JUMPI DUP1 PUSH4 0x9A9BDCA7 EQ PUSH2 0xB1 JUMPI DUP1 PUSH4 0x9E03C499 EQ PUSH2 0xE1 JUMPI JUMPDEST PUSH0 DUP1 REVERT JUMPDEST PUSH2 0x61 PUSH2 0xEB JUMP JUMPDEST PUSH1 0x40 MLOAD PUSH2 0x6E SWAP2 SWAP1 PUSH2 0x1D0 JUMP JUMPDEST PUSH1 0x40 MLOAD DUP1 SWAP2 SUB SWAP1 RETURN JUMPDEST PUSH2 0x7F PUSH2 0xF6 JUMP JUMPDEST PUSH1 0x40 MLOAD PUSH2 0x8C SWAP2 SWAP1 PUSH2 0x2A0 JUMP JUMPDEST PUSH1 0x40 MLOAD DUP1 SWAP2 SUB SWAP1 RETURN JUMPDEST PUSH2 0xAF PUSH1 0x4 DUP1 CALLDATASIZE SUB DUP2 ADD SWAP1 PUSH2 0xAA SWAP2 SWAP1 PUSH2 0x2EE JUMP JUMPDEST PUSH2 0x14B JUMP JUMPDEST STOP JUMPDEST PUSH2 0xCB PUSH1 0x4 DUP1 CALLDATASIZE SUB DUP2 ADD SWAP1 PUSH2 0xC6 SWAP2 SWAP1 PUSH2 0x2EE JUMP JUMPDEST PUSH2 0x173 JUMP JUMPDEST PUSH1 0x40 MLOAD PUSH2 0xD8 SWAP2 SWAP1 PUSH2 0x1D0 JUMP JUMPDEST PUSH1 0x40 MLOAD DUP1 SWAP2 SUB SWAP1 RETURN JUMPDEST PUSH2 0xE9 PUSH2 0x192 JUMP JUMPDEST STOP JUMPDEST PUSH0 DUP1 DUP1 SLOAD SWAP1 POP SWAP1 POP SWAP1 JUMP JUMPDEST PUSH1 0x60 PUSH0 DUP1 SLOAD DUP1 PUSH1 0x20 MUL PUSH1 0x20 ADD PUSH1 0x40 MLOAD SWAP1 DUP2 ADD PUSH1 0x40 MSTORE DUP1 SWAP3 SWAP2 SWAP1 DUP2 DUP2 MSTORE PUSH1 0x20 ADD DUP3 DUP1 SLOAD DUP1 ISZERO PUSH2 0x141 JUMPI PUSH1 0x20 MUL DUP3 ADD SWAP2 SWAP1 PUSH0 MSTORE PUSH1 0x20 PUSH0 KECCAK256 SWAP1 JUMPDEST DUP2 SLOAD DUP2 MSTORE PUSH1 0x20 ADD SWAP1 PUSH1 0x1 ADD SWAP1 DUP1 DUP4 GT PUSH2 0x12D JUMPI JUMPDEST POP POP POP POP POP SWAP1 POP SWAP1 JUMP JUMPDEST PUSH0 DUP2 SWAP1 DUP1 PUSH1 0x1 DUP2 SLOAD ADD DUP1 DUP3 SSTORE DUP1 SWAP2 POP POP PUSH1 0x1 SWAP1 SUB SWAP1 PUSH0 MSTORE PUSH1 0x20 PUSH0 KECCAK256 ADD PUSH0 SWAP1 SWAP2 SWAP1 SWAP2 SWAP1 SWAP2 POP SSTORE POP JUMP JUMPDEST PUSH0 DUP2 DUP2 SLOAD DUP2 LT PUSH2 0x181 JUMPI PUSH0 DUP1 REVERT JUMPDEST SWAP1 PUSH0 MSTORE PUSH1 0x20 PUSH0 KECCAK256 ADD PUSH0 SWAP2 POP SWAP1 POP SLOAD DUP2 JUMP JUMPDEST PUSH0 DUP1 SLOAD DUP1 PUSH2 0x1A3 JUMPI PUSH2 0x1A2 PUSH2 0x319 JUMP JUMPDEST JUMPDEST PUSH1 0x1 SWAP1 SUB DUP2 DUP2 SWAP1 PUSH0 MSTORE PUSH1 0x20 PUSH0 KECCAK256 ADD PUSH0 SWAP1 SSTORE SWAP1 SSTORE JUMP JUMPDEST PUSH0 DUP2 SWAP1 POP SWAP2 SWAP1 POP JUMP JUMPDEST PUSH2 0x1CA DUP2 PUSH2 0x1B8 JUMP JUMPDEST DUP3 MSTORE POP POP JUMP JUMPDEST PUSH0 PUSH1 0x20 DUP3 ADD SWAP1 POP PUSH2 0x1E3 PUSH0 DUP4 ADD DUP5 PUSH2 0x1C1 JUMP JUMPDEST SWAP3 SWAP2 POP POP JUMP JUMPDEST PUSH0 DUP2 MLOAD SWAP1 POP SWAP2 SWAP1 POP JUMP JUMPDEST PUSH0 DUP3 DUP3 MSTORE PUSH1 0x20 DUP3 ADD SWAP1 POP SWAP3 SWAP2 POP POP JUMP JUMPDEST PUSH0 DUP2 SWAP1 POP PUSH1 0x20 DUP3 ADD SWAP1 POP SWAP2 SWAP1 POP JUMP JUMPDEST PUSH2 0x21B DUP2 PUSH2 0x1B8 JUMP JUMPDEST DUP3 MSTORE POP POP JUMP JUMPDEST PUSH0 PUSH2 0x22C DUP4 DUP4 PUSH2 0x212 JUMP JUMPDEST PUSH1 0x20 DUP4 ADD SWAP1 POP SWAP3 SWAP2 POP POP JUMP JUMPDEST PUSH0 PUSH1 0x20 DUP3 ADD SWAP1 POP SWAP2 SWAP1 POP JUMP JUMPDEST PUSH0 PUSH2 0x24E DUP3 PUSH2 0x1E9 JUMP JUMPDEST PUSH2 0x258 DUP2 DUP6 PUSH2 0x1F3 JUMP JUMPDEST SWAP4 POP PUSH2 0x263 DUP4 PUSH2 0x203 JUMP JUMPDEST DUP1 PUSH0 JUMPDEST DUP4 DUP2 LT ISZERO PUSH2 0x293 JUMPI DUP2 MLOAD PUSH2 0x27A DUP9 DUP3 PUSH2 0x221 JUMP JUMPDEST SWAP8 POP PUSH2 0x285 DUP4 PUSH2 0x238 JUMP JUMPDEST SWAP3 POP POP PUSH1 0x1 DUP2 ADD SWAP1 POP PUSH2 0x266 JUMP JUMPDEST POP DUP6 SWAP4 POP POP POP POP SWAP3 SWAP2 POP POP JUMP JUMPDEST PUSH0 PUSH1 0x20 DUP3 ADD SWAP1 POP DUP2 DUP2 SUB PUSH0 DUP4 ADD MSTORE PUSH2 0x2B8 DUP2 DUP5 PUSH2 0x244 JUMP JUMPDEST SWAP1 POP SWAP3 SWAP2 POP POP JUMP JUMPDEST PUSH0 DUP1 REVERT JUMPDEST PUSH2 0x2CD DUP2 PUSH2 0x1B8 JUMP JUMPDEST DUP2 EQ PUSH2 0x2D7 JUMPI PUSH0 DUP1 REVERT JUMPDEST POP JUMP JUMPDEST PUSH0 DUP2 CALLDATALOAD SWAP1 POP PUSH2 0x2E8 DUP2 PUSH2 0x2C4 JUMP JUMPDEST SWAP3 SWAP2 POP POP JUMP JUMPDEST PUSH0 PUSH1 0x20 DUP3 DUP5 SUB SLT ISZERO PUSH2 0x303 JUMPI PUSH2 0x302 PUSH2 0x2C0 JUMP JUMPDEST JUMPDEST PUSH0 PUSH2 0x310 DUP5 DUP3 DUP6 ADD PUSH2 0x2DA JUMP JUMPDEST SWAP2 POP POP SWAP3 SWAP2 POP POP JUMP JUMPDEST PUSH32 0x4E487B7100000000000000000000000000000000000000000000000000000000 PUSH0 MSTORE PUSH1 0x31 PUSH1 0x4 MSTORE PUSH1 0x24 PUSH0 REVERT INVALID LOG2 PUSH5 0x6970667358 0x22 SLT KECCAK256 0xBB DUP3 0xC GT 0xC5 0x4C SAR 0xB1 0xC9 0x1E LOG2 0xC5 AND PUSH25 0xC2555D621A1DA0C080B84454BBC907A56CBF64736F6C634300 ADDMOD BYTE STOP CALLER "
				},
				"gasEstimates": {
					"creation": {
						"codeDepositCost": "178400",
						"executionCost": "218",
						"totalCost": "178618"
					},
					"external": {
						"dynamicArray(uint256)": "infinite",
						"getArrayLength()": "2418",
						"getarray()": "infinite",
						"poparray()": "29506",
						"pushElement(uint256)": "46842"
					}
				},
				"methodIdentifiers": {
					"dynamicArray(uint256)": "9a9bdca7",
					"getArrayLength()": "0849cc99",
					"getarray()": "0cfd0fae",
					"poparray()": "9e03c499",
					"pushElement(uint256)": "78321efb"
				}
			},
			"storageLayout": {
				"storage": [
					{
						"astId": 4,
						"contract": "Array.sol:DynamicArrayExample",
						"label": "dynamicArray",
						"offset": 0,
						"slot": "0",
						"type": "t_array(t_uint256)dyn_storage"
					}
				],
				"types": {
					"t_array(t_uint256)dyn_storage": {
						"base": "t_uint256",
						"encoding": "dynamic_array",
						"label": "uint256[]",
						"numberOfBytes": "32"
					},
					"t_uint256": {
						"encoding": "inplace",
						"label": "uint256",
						"numberOfBytes": "32"
					}
				}
			},
			"userdoc": {
				"kind": "user",
				"methods": {},
				"version": 1
			}
		}
	}
}