{
	"myContractStruct.sol": {
		"myContractStruct": {
			"abi": [
				{
					"inputs": [
						{
							"internalType": "string",
							"name": "_firstName",
							"type": "string"
						},
						{
							"internalType": "string",
							"name": "_lastName",
							"type": "string"
						},
						{
							"internalType": "string",
							"name": "email",
							"type": "string"
						}
					],
					"name": "addPerson",
					"outputs": [],
					"stateMutability": "nonpayable",
					"type": "function"
				},
				{
					"inputs": [
						{
							"internalType": "uint256",
							"name": "",
							"type": "uint256"
						}
					],
					"name": "people",
					"outputs": [
						{
							"internalType": "string",
							"name": "_firstName",
							"type": "string"
						},
						{
							"internalType": "string",
							"name": "_lastName",
							"type": "string"
						},
						{
							"internalType": "string",
							"name": "email",
							"type": "string"
						}
					],
					"stateMutability": "view",
					"type": "function"
				},
				{
					"inputs": [],
					"name": "peopleCount",
					"outputs": [
						{
							"internalType": "uint256",
							"name": "",
							"type": "uint256"
						}
					],
					"stateMutability": "view",
					"type": "function"
				}
			],
			"devdoc": {
				"kind": "dev",
				"methods": {},
				"version": 1
			},
			"evm": {
				"assembly": "    /* \"myContractStruct.sol\":59:413  contract myContractStruct{... */\n  mstore(0x40, 0x80)\n  callvalue\n  dup1\n  iszero\n  tag_1\n  jumpi\n  0x00\n  dup1\n  revert\ntag_1:\n  pop\n  dataSize(sub_0)\n  dup1\n  dataOffset(sub_0)\n  0x00\n  codecopy\n  0x00\n  return\nstop\n\nsub_0: assembly {\n        /* \"myContractStruct.sol\":59:413  contract myContractStruct{... */\n      mstore(0x40, 0x80)\n      callvalue\n      dup1\n      iszero\n      tag_1\n      jumpi\n      0x00\n      dup1\n      revert\n    tag_1:\n      pop\n      jumpi(tag_2, lt(calldatasize, 0x04))\n      shr(0xe0, calldataload(0x00))\n      dup1\n      0x0671cc3c\n      eq\n      tag_3\n      jumpi\n      dup1\n      0x267c68e0\n      eq\n      tag_4\n      jumpi\n      dup1\n      0x9e7a13ad\n      eq\n      tag_5\n      jumpi\n    tag_2:\n      0x00\n      dup1\n      revert\n        /* \"myContractStruct.sol\":233:410  function addPerson(string memory _firstName, string memory _lastName, string memory email) public {... */\n    tag_3:\n      tag_6\n      0x04\n      dup1\n      calldatasize\n      sub\n      dup2\n      add\n      swap1\n      tag_7\n      swap2\n      swap1\n      tag_8\n      jump\t// in\n    tag_7:\n      tag_9\n      jump\t// in\n    tag_6:\n      stop\n        /* \"myContractStruct.sol\":202:228  uint256 public peopleCount */\n    tag_4:\n      tag_10\n      tag_11\n      jump\t// in\n    tag_10:\n      mload(0x40)\n      tag_12\n      swap2\n      swap1\n      tag_13\n      jump\t// in\n    tag_12:\n      mload(0x40)\n      dup1\n      swap2\n      sub\n      swap1\n      return\n        /* \"myContractStruct.sol\":177:199  Person[] public people */\n    tag_5:\n      tag_14\n      0x04\n      dup1\n      calldatasize\n      sub\n      dup2\n      add\n      swap1\n      tag_15\n      swap2\n      swap1\n      tag_16\n      jump\t// in\n    tag_15:\n      tag_17\n      jump\t// in\n    tag_14:\n      mload(0x40)\n      tag_18\n      swap4\n      swap3\n      swap2\n      swap1\n      tag_19\n      jump\t// in\n    tag_18:\n      mload(0x40)\n      dup1\n      swap2\n      sub\n      swap1\n      return\n        /* \"myContractStruct.sol\":233:410  function addPerson(string memory _firstName, string memory _lastName, string memory email) public {... */\n    tag_9:\n        /* \"myContractStruct.sol\":338:344  people */\n      0x00\n        /* \"myContractStruct.sol\":350:385  Person(_firstName, _lastName,email) */\n      mload(0x40)\n      dup1\n      0x60\n      add\n      0x40\n      mstore\n      dup1\n        /* \"myContractStruct.sol\":357:367  _firstName */\n      dup6\n        /* \"myContractStruct.sol\":350:385  Person(_firstName, _lastName,email) */\n      dup2\n      mstore\n      0x20\n      add\n        /* \"myContractStruct.sol\":369:378  _lastName */\n      dup5\n        /* \"myContractStruct.sol\":350:385  Person(_firstName, _lastName,email) */\n      dup2\n      mstore\n      0x20\n      add\n        /* \"myContractStruct.sol\":379:384  email */\n      dup4\n        /* \"myContractStruct.sol\":350:385  Person(_firstName, _lastName,email) */\n      dup2\n      mstore\n      pop\n        /* \"myContractStruct.sol\":338:386  people.push(Person(_firstName, _lastName,email)) */\n      swap1\n      dup1\n      0x01\n      dup2\n      sload\n      add\n      dup1\n      dup3\n      sstore\n      dup1\n      swap2\n      pop\n      pop\n      0x01\n      swap1\n      sub\n      swap1\n      0x00\n      mstore\n      keccak256(0x00, 0x20)\n      swap1\n      0x03\n      mul\n      add\n      0x00\n      swap1\n      swap2\n      swap1\n      swap2\n      swap1\n      swap2\n      pop\n      0x00\n      dup3\n      add\n      mload\n      dup2\n      0x00\n      add\n      swap1\n      dup2\n      tag_22\n      swap2\n      swap1\n      tag_23\n      jump\t// in\n    tag_22:\n      pop\n      0x20\n      dup3\n      add\n      mload\n      dup2\n      0x01\n      add\n      swap1\n      dup2\n      tag_24\n      swap2\n      swap1\n      tag_23\n      jump\t// in\n    tag_24:\n      pop\n      0x40\n      dup3\n      add\n      mload\n      dup2\n      0x02\n      add\n      swap1\n      dup2\n      tag_25\n      swap2\n      swap1\n      tag_23\n      jump\t// in\n    tag_25:\n      pop\n      pop\n      pop\n        /* \"myContractStruct.sol\":393:404  peopleCount */\n      0x01\n      0x00\n        /* \"myContractStruct.sol\":393:406  peopleCount++ */\n      dup2\n      sload\n      dup1\n      swap3\n      swap2\n      swap1\n      tag_26\n      swap1\n      tag_27\n      jump\t// in\n    tag_26:\n      swap2\n      swap1\n      pop\n      sstore\n      pop\n        /* \"myContractStruct.sol\":233:410  function addPerson(string memory _firstName, string memory _lastName, string memory email) public {... */\n      pop\n      pop\n      pop\n      jump\t// out\n        /* \"myContractStruct.sol\":202:228  uint256 public peopleCount */\n    tag_11:\n      sload(0x01)\n      dup2\n      jump\t// out\n        /* \"myContractStruct.sol\":177:199  Person[] public people */\n    tag_17:\n      0x00\n      dup2\n      dup2\n      sload\n      dup2\n      lt\n      tag_28\n      jumpi\n      0x00\n      dup1\n      revert\n    tag_28:\n      swap1\n      0x00\n      mstore\n      keccak256(0x00, 0x20)\n      swap1\n      0x03\n      mul\n      add\n      0x00\n      swap2\n      pop\n      swap1\n      pop\n      dup1\n      0x00\n      add\n      dup1\n      sload\n      tag_30\n      swap1\n      tag_31\n      jump\t// in\n    tag_30:\n      dup1\n      0x1f\n      add\n      0x20\n      dup1\n      swap2\n      div\n      mul\n      0x20\n      add\n      mload(0x40)\n      swap1\n      dup2\n      add\n      0x40\n      mstore\n      dup1\n      swap3\n      swap2\n      swap1\n      dup2\n      dup2\n      mstore\n      0x20\n      add\n      dup3\n      dup1\n      sload\n      tag_32\n      swap1\n      tag_31\n      jump\t// in\n    tag_32:\n      dup1\n      iszero\n      tag_33\n      jumpi\n      dup1\n      0x1f\n      lt\n      tag_34\n      jumpi\n      0x0100\n      dup1\n      dup4\n      sload\n      div\n      mul\n      dup4\n      mstore\n      swap2\n      0x20\n      add\n      swap2\n      jump(tag_33)\n    tag_34:\n      dup3\n      add\n      swap2\n      swap1\n      0x00\n      mstore\n      keccak256(0x00, 0x20)\n      swap1\n    tag_35:\n      dup2\n      sload\n      dup2\n      mstore\n      swap1\n      0x01\n      add\n      swap1\n      0x20\n      add\n      dup1\n      dup4\n      gt\n      tag_35\n      jumpi\n      dup3\n      swap1\n      sub\n      0x1f\n      and\n      dup3\n      add\n      swap2\n    tag_33:\n      pop\n      pop\n      pop\n      pop\n      pop\n      swap1\n      dup1\n      0x01\n      add\n      dup1\n      sload\n      tag_36\n      swap1\n      tag_31\n      jump\t// in\n    tag_36:\n      dup1\n      0x1f\n      add\n      0x20\n      dup1\n      swap2\n      div\n      mul\n      0x20\n      add\n      mload(0x40)\n      swap1\n      dup2\n      add\n      0x40\n      mstore\n      dup1\n      swap3\n      swap2\n      swap1\n      dup2\n      dup2\n      mstore\n      0x20\n      add\n      dup3\n      dup1\n      sload\n      tag_37\n      swap1\n      tag_31\n      jump\t// in\n    tag_37:\n      dup1\n      iszero\n      tag_38\n      jumpi\n      dup1\n      0x1f\n      lt\n      tag_39\n      jumpi\n      0x0100\n      dup1\n      dup4\n      sload\n      div\n      mul\n      dup4\n      mstore\n      swap2\n      0x20\n      add\n      swap2\n      jump(tag_38)\n    tag_39:\n      dup3\n      add\n      swap2\n      swap1\n      0x00\n      mstore\n      keccak256(0x00, 0x20)\n      swap1\n    tag_40:\n      dup2\n      sload\n      dup2\n      mstore\n      swap1\n      0x01\n      add\n      swap1\n      0x20\n      add\n      dup1\n      dup4\n      gt\n      tag_40\n      jumpi\n      dup3\n      swap1\n      sub\n      0x1f\n      and\n      dup3\n      add\n      swap2\n    tag_38:\n      pop\n      pop\n      pop\n      pop\n      pop\n      swap1\n      dup1\n      0x02\n      add\n      dup1\n      sload\n      tag_41\n      swap1\n      tag_31\n      jump\t// in\n    tag_41:\n      dup1\n      0x1f\n      add\n      0x20\n      dup1\n      swap2\n      div\n      mul\n      0x20\n      add\n      mload(0x40)\n      swap1\n      dup2\n      add\n      0x40\n      mstore\n      dup1\n      swap3\n      swap2\n      swap1\n      dup2\n      dup2\n      mstore\n      0x20\n      add\n      dup3\n      dup1\n      sload\n      tag_42\n      swap1\n      tag_31\n      jump\t// in\n    tag_42:\n      dup1\n      iszero\n      tag_43\n      jumpi\n      dup1\n      0x1f\n      lt\n      tag_44\n      jumpi\n      0x0100\n      dup1\n      dup4\n      sload\n      div\n      mul\n      dup4\n      mstore\n      swap2\n      0x20\n      add\n      swap2\n      jump(tag_43)\n    tag_44:\n      dup3\n      add\n      swap2\n      swap1\n      0x00\n      mstore\n      keccak256(0x00, 0x20)\n      swap1\n    tag_45:\n      dup2\n      sload\n      dup2\n      mstore\n      swap1\n      0x01\n      add\n      swap1\n      0x20\n      add\n      dup1\n      dup4\n      gt\n      tag_45\n      jumpi\n      dup3\n      swap1\n      sub\n      0x1f\n      and\n      dup3\n      add\n      swap2\n    tag_43:\n      pop\n      pop\n      pop\n      pop\n      pop\n      swap1\n      pop\n      dup4\n      jump\t// out\n        /* \"#utility.yul\":7:82   */\n    tag_46:\n        /* \"#utility.yul\":40:46   */\n      0x00\n        /* \"#utility.yul\":73:75   */\n      0x40\n        /* \"#utility.yul\":67:76   */\n      mload\n        /* \"#utility.yul\":57:76   */\n      swap1\n      pop\n        /* \"#utility.yul\":7:82   */\n      swap1\n      jump\t// out\n        /* \"#utility.yul\":88:205   */\n    tag_47:\n        /* \"#utility.yul\":197:198   */\n      0x00\n        /* \"#utility.yul\":194:195   */\n      dup1\n        /* \"#utility.yul\":187:199   */\n      revert\n        /* \"#utility.yul\":211:328   */\n    tag_48:\n        /* \"#utility.yul\":320:321   */\n      0x00\n        /* \"#utility.yul\":317:318   */\n      dup1\n        /* \"#utility.yul\":310:322   */\n      revert\n        /* \"#utility.yul\":334:451   */\n    tag_49:\n        /* \"#utility.yul\":443:444   */\n      0x00\n        /* \"#utility.yul\":440:441   */\n      dup1\n        /* \"#utility.yul\":433:445   */\n      revert\n        /* \"#utility.yul\":457:574   */\n    tag_50:\n        /* \"#utility.yul\":566:567   */\n      0x00\n        /* \"#utility.yul\":563:564   */\n      dup1\n        /* \"#utility.yul\":556:568   */\n      revert\n        /* \"#utility.yul\":580:682   */\n    tag_51:\n        /* \"#utility.yul\":621:627   */\n      0x00\n        /* \"#utility.yul\":672:674   */\n      0x1f\n        /* \"#utility.yul\":668:675   */\n      not\n        /* \"#utility.yul\":663:665   */\n      0x1f\n        /* \"#utility.yul\":656:661   */\n      dup4\n        /* \"#utility.yul\":652:666   */\n      add\n        /* \"#utility.yul\":648:676   */\n      and\n        /* \"#utility.yul\":638:676   */\n      swap1\n      pop\n        /* \"#utility.yul\":580:682   */\n      swap2\n      swap1\n      pop\n      jump\t// out\n        /* \"#utility.yul\":688:868   */\n    tag_52:\n        /* \"#utility.yul\":736:813   */\n      0x4e487b7100000000000000000000000000000000000000000000000000000000\n        /* \"#utility.yul\":733:734   */\n      0x00\n        /* \"#utility.yul\":726:814   */\n      mstore\n        /* \"#utility.yul\":833:837   */\n      0x41\n        /* \"#utility.yul\":830:831   */\n      0x04\n        /* \"#utility.yul\":823:838   */\n      mstore\n        /* \"#utility.yul\":857:861   */\n      0x24\n        /* \"#utility.yul\":854:855   */\n      0x00\n        /* \"#utility.yul\":847:862   */\n      revert\n        /* \"#utility.yul\":874:1155   */\n    tag_53:\n        /* \"#utility.yul\":957:984   */\n      tag_93\n        /* \"#utility.yul\":979:983   */\n      dup3\n        /* \"#utility.yul\":957:984   */\n      tag_51\n      jump\t// in\n    tag_93:\n        /* \"#utility.yul\":949:955   */\n      dup2\n        /* \"#utility.yul\":945:985   */\n      add\n        /* \"#utility.yul\":1087:1093   */\n      dup2\n        /* \"#utility.yul\":1075:1085   */\n      dup2\n        /* \"#utility.yul\":1072:1094   */\n      lt\n        /* \"#utility.yul\":1051:1069   */\n      0xffffffffffffffff\n        /* \"#utility.yul\":1039:1049   */\n      dup3\n        /* \"#utility.yul\":1036:1070   */\n      gt\n        /* \"#utility.yul\":1033:1095   */\n      or\n        /* \"#utility.yul\":1030:1118   */\n      iszero\n      tag_94\n      jumpi\n        /* \"#utility.yul\":1098:1116   */\n      tag_95\n      tag_52\n      jump\t// in\n    tag_95:\n        /* \"#utility.yul\":1030:1118   */\n    tag_94:\n        /* \"#utility.yul\":1138:1148   */\n      dup1\n        /* \"#utility.yul\":1134:1136   */\n      0x40\n        /* \"#utility.yul\":1127:1149   */\n      mstore\n        /* \"#utility.yul\":917:1155   */\n      pop\n        /* \"#utility.yul\":874:1155   */\n      pop\n      pop\n      jump\t// out\n        /* \"#utility.yul\":1161:1290   */\n    tag_54:\n        /* \"#utility.yul\":1195:1201   */\n      0x00\n        /* \"#utility.yul\":1222:1242   */\n      tag_97\n      tag_46\n      jump\t// in\n    tag_97:\n        /* \"#utility.yul\":1212:1242   */\n      swap1\n      pop\n        /* \"#utility.yul\":1251:1284   */\n      tag_98\n        /* \"#utility.yul\":1279:1283   */\n      dup3\n        /* \"#utility.yul\":1271:1277   */\n      dup3\n        /* \"#utility.yul\":1251:1284   */\n      tag_53\n      jump\t// in\n    tag_98:\n        /* \"#utility.yul\":1161:1290   */\n      swap2\n      swap1\n      pop\n      jump\t// out\n        /* \"#utility.yul\":1296:1604   */\n    tag_55:\n        /* \"#utility.yul\":1358:1362   */\n      0x00\n        /* \"#utility.yul\":1448:1466   */\n      0xffffffffffffffff\n        /* \"#utility.yul\":1440:1446   */\n      dup3\n        /* \"#utility.yul\":1437:1467   */\n      gt\n        /* \"#utility.yul\":1434:1490   */\n      iszero\n      tag_100\n      jumpi\n        /* \"#utility.yul\":1470:1488   */\n      tag_101\n      tag_52\n      jump\t// in\n    tag_101:\n        /* \"#utility.yul\":1434:1490   */\n    tag_100:\n        /* \"#utility.yul\":1508:1537   */\n      tag_102\n        /* \"#utility.yul\":1530:1536   */\n      dup3\n        /* \"#utility.yul\":1508:1537   */\n      tag_51\n      jump\t// in\n    tag_102:\n        /* \"#utility.yul\":1500:1537   */\n      swap1\n      pop\n        /* \"#utility.yul\":1592:1596   */\n      0x20\n        /* \"#utility.yul\":1586:1590   */\n      dup2\n        /* \"#utility.yul\":1582:1597   */\n      add\n        /* \"#utility.yul\":1574:1597   */\n      swap1\n      pop\n        /* \"#utility.yul\":1296:1604   */\n      swap2\n      swap1\n      pop\n      jump\t// out\n        /* \"#utility.yul\":1610:1758   */\n    tag_56:\n        /* \"#utility.yul\":1708:1714   */\n      dup3\n        /* \"#utility.yul\":1703:1706   */\n      dup2\n        /* \"#utility.yul\":1698:1701   */\n      dup4\n        /* \"#utility.yul\":1685:1715   */\n      calldatacopy\n        /* \"#utility.yul\":1749:1750   */\n      0x00\n        /* \"#utility.yul\":1740:1746   */\n      dup4\n        /* \"#utility.yul\":1735:1738   */\n      dup4\n        /* \"#utility.yul\":1731:1747   */\n      add\n        /* \"#utility.yul\":1724:1751   */\n      mstore\n        /* \"#utility.yul\":1610:1758   */\n      pop\n      pop\n      pop\n      jump\t// out\n        /* \"#utility.yul\":1764:2189   */\n    tag_57:\n        /* \"#utility.yul\":1842:1847   */\n      0x00\n        /* \"#utility.yul\":1867:1933   */\n      tag_105\n        /* \"#utility.yul\":1883:1932   */\n      tag_106\n        /* \"#utility.yul\":1925:1931   */\n      dup5\n        /* \"#utility.yul\":1883:1932   */\n      tag_55\n      jump\t// in\n    tag_106:\n        /* \"#utility.yul\":1867:1933   */\n      tag_54\n      jump\t// in\n    tag_105:\n        /* \"#utility.yul\":1858:1933   */\n      swap1\n      pop\n        /* \"#utility.yul\":1956:1962   */\n      dup3\n        /* \"#utility.yul\":1949:1954   */\n      dup2\n        /* \"#utility.yul\":1942:1963   */\n      mstore\n        /* \"#utility.yul\":1994:1998   */\n      0x20\n        /* \"#utility.yul\":1987:1992   */\n      dup2\n        /* \"#utility.yul\":1983:1999   */\n      add\n        /* \"#utility.yul\":2032:2035   */\n      dup5\n        /* \"#utility.yul\":2023:2029   */\n      dup5\n        /* \"#utility.yul\":2018:2021   */\n      dup5\n        /* \"#utility.yul\":2014:2030   */\n      add\n        /* \"#utility.yul\":2011:2036   */\n      gt\n        /* \"#utility.yul\":2008:2120   */\n      iszero\n      tag_107\n      jumpi\n        /* \"#utility.yul\":2039:2118   */\n      tag_108\n      tag_50\n      jump\t// in\n    tag_108:\n        /* \"#utility.yul\":2008:2120   */\n    tag_107:\n        /* \"#utility.yul\":2129:2183   */\n      tag_109\n        /* \"#utility.yul\":2176:2182   */\n      dup5\n        /* \"#utility.yul\":2171:2174   */\n      dup3\n        /* \"#utility.yul\":2166:2169   */\n      dup6\n        /* \"#utility.yul\":2129:2183   */\n      tag_56\n      jump\t// in\n    tag_109:\n        /* \"#utility.yul\":1848:2189   */\n      pop\n        /* \"#utility.yul\":1764:2189   */\n      swap4\n      swap3\n      pop\n      pop\n      pop\n      jump\t// out\n        /* \"#utility.yul\":2209:2549   */\n    tag_58:\n        /* \"#utility.yul\":2265:2270   */\n      0x00\n        /* \"#utility.yul\":2314:2317   */\n      dup3\n        /* \"#utility.yul\":2307:2311   */\n      0x1f\n        /* \"#utility.yul\":2299:2305   */\n      dup4\n        /* \"#utility.yul\":2295:2312   */\n      add\n        /* \"#utility.yul\":2291:2318   */\n      slt\n        /* \"#utility.yul\":2281:2403   */\n      tag_111\n      jumpi\n        /* \"#utility.yul\":2322:2401   */\n      tag_112\n      tag_49\n      jump\t// in\n    tag_112:\n        /* \"#utility.yul\":2281:2403   */\n    tag_111:\n        /* \"#utility.yul\":2439:2445   */\n      dup2\n        /* \"#utility.yul\":2426:2446   */\n      calldataload\n        /* \"#utility.yul\":2464:2543   */\n      tag_113\n        /* \"#utility.yul\":2539:2542   */\n      dup5\n        /* \"#utility.yul\":2531:2537   */\n      dup3\n        /* \"#utility.yul\":2524:2528   */\n      0x20\n        /* \"#utility.yul\":2516:2522   */\n      dup7\n        /* \"#utility.yul\":2512:2529   */\n      add\n        /* \"#utility.yul\":2464:2543   */\n      tag_57\n      jump\t// in\n    tag_113:\n        /* \"#utility.yul\":2455:2543   */\n      swap2\n      pop\n        /* \"#utility.yul\":2271:2549   */\n      pop\n        /* \"#utility.yul\":2209:2549   */\n      swap3\n      swap2\n      pop\n      pop\n      jump\t// out\n        /* \"#utility.yul\":2555:3714   */\n    tag_8:\n        /* \"#utility.yul\":2662:2668   */\n      0x00\n        /* \"#utility.yul\":2670:2676   */\n      dup1\n        /* \"#utility.yul\":2678:2684   */\n      0x00\n        /* \"#utility.yul\":2727:2729   */\n      0x60\n        /* \"#utility.yul\":2715:2724   */\n      dup5\n        /* \"#utility.yul\":2706:2713   */\n      dup7\n        /* \"#utility.yul\":2702:2725   */\n      sub\n        /* \"#utility.yul\":2698:2730   */\n      slt\n        /* \"#utility.yul\":2695:2814   */\n      iszero\n      tag_115\n      jumpi\n        /* \"#utility.yul\":2733:2812   */\n      tag_116\n      tag_47\n      jump\t// in\n    tag_116:\n        /* \"#utility.yul\":2695:2814   */\n    tag_115:\n        /* \"#utility.yul\":2881:2882   */\n      0x00\n        /* \"#utility.yul\":2870:2879   */\n      dup5\n        /* \"#utility.yul\":2866:2883   */\n      add\n        /* \"#utility.yul\":2853:2884   */\n      calldataload\n        /* \"#utility.yul\":2911:2929   */\n      0xffffffffffffffff\n        /* \"#utility.yul\":2903:2909   */\n      dup2\n        /* \"#utility.yul\":2900:2930   */\n      gt\n        /* \"#utility.yul\":2897:3014   */\n      iszero\n      tag_117\n      jumpi\n        /* \"#utility.yul\":2933:3012   */\n      tag_118\n      tag_48\n      jump\t// in\n    tag_118:\n        /* \"#utility.yul\":2897:3014   */\n    tag_117:\n        /* \"#utility.yul\":3038:3101   */\n      tag_119\n        /* \"#utility.yul\":3093:3100   */\n      dup7\n        /* \"#utility.yul\":3084:3090   */\n      dup3\n        /* \"#utility.yul\":3073:3082   */\n      dup8\n        /* \"#utility.yul\":3069:3091   */\n      add\n        /* \"#utility.yul\":3038:3101   */\n      tag_58\n      jump\t// in\n    tag_119:\n        /* \"#utility.yul\":3028:3101   */\n      swap4\n      pop\n        /* \"#utility.yul\":2824:3111   */\n      pop\n        /* \"#utility.yul\":3178:3180   */\n      0x20\n        /* \"#utility.yul\":3167:3176   */\n      dup5\n        /* \"#utility.yul\":3163:3181   */\n      add\n        /* \"#utility.yul\":3150:3182   */\n      calldataload\n        /* \"#utility.yul\":3209:3227   */\n      0xffffffffffffffff\n        /* \"#utility.yul\":3201:3207   */\n      dup2\n        /* \"#utility.yul\":3198:3228   */\n      gt\n        /* \"#utility.yul\":3195:3312   */\n      iszero\n      tag_120\n      jumpi\n        /* \"#utility.yul\":3231:3310   */\n      tag_121\n      tag_48\n      jump\t// in\n    tag_121:\n        /* \"#utility.yul\":3195:3312   */\n    tag_120:\n        /* \"#utility.yul\":3336:3399   */\n      tag_122\n        /* \"#utility.yul\":3391:3398   */\n      dup7\n        /* \"#utility.yul\":3382:3388   */\n      dup3\n        /* \"#utility.yul\":3371:3380   */\n      dup8\n        /* \"#utility.yul\":3367:3389   */\n      add\n        /* \"#utility.yul\":3336:3399   */\n      tag_58\n      jump\t// in\n    tag_122:\n        /* \"#utility.yul\":3326:3399   */\n      swap3\n      pop\n        /* \"#utility.yul\":3121:3409   */\n      pop\n        /* \"#utility.yul\":3476:3478   */\n      0x40\n        /* \"#utility.yul\":3465:3474   */\n      dup5\n        /* \"#utility.yul\":3461:3479   */\n      add\n        /* \"#utility.yul\":3448:3480   */\n      calldataload\n        /* \"#utility.yul\":3507:3525   */\n      0xffffffffffffffff\n        /* \"#utility.yul\":3499:3505   */\n      dup2\n        /* \"#utility.yul\":3496:3526   */\n      gt\n        /* \"#utility.yul\":3493:3610   */\n      iszero\n      tag_123\n      jumpi\n        /* \"#utility.yul\":3529:3608   */\n      tag_124\n      tag_48\n      jump\t// in\n    tag_124:\n        /* \"#utility.yul\":3493:3610   */\n    tag_123:\n        /* \"#utility.yul\":3634:3697   */\n      tag_125\n        /* \"#utility.yul\":3689:3696   */\n      dup7\n        /* \"#utility.yul\":3680:3686   */\n      dup3\n        /* \"#utility.yul\":3669:3678   */\n      dup8\n        /* \"#utility.yul\":3665:3687   */\n      add\n        /* \"#utility.yul\":3634:3697   */\n      tag_58\n      jump\t// in\n    tag_125:\n        /* \"#utility.yul\":3624:3697   */\n      swap2\n      pop\n        /* \"#utility.yul\":3419:3707   */\n      pop\n        /* \"#utility.yul\":2555:3714   */\n      swap3\n      pop\n      swap3\n      pop\n      swap3\n      jump\t// out\n        /* \"#utility.yul\":3720:3797   */\n    tag_59:\n        /* \"#utility.yul\":3757:3764   */\n      0x00\n        /* \"#utility.yul\":3786:3791   */\n      dup2\n        /* \"#utility.yul\":3775:3791   */\n      swap1\n      pop\n        /* \"#utility.yul\":3720:3797   */\n      swap2\n      swap1\n      pop\n      jump\t// out\n        /* \"#utility.yul\":3803:3921   */\n    tag_60:\n        /* \"#utility.yul\":3890:3914   */\n      tag_128\n        /* \"#utility.yul\":3908:3913   */\n      dup2\n        /* \"#utility.yul\":3890:3914   */\n      tag_59\n      jump\t// in\n    tag_128:\n        /* \"#utility.yul\":3885:3888   */\n      dup3\n        /* \"#utility.yul\":3878:3915   */\n      mstore\n        /* \"#utility.yul\":3803:3921   */\n      pop\n      pop\n      jump\t// out\n        /* \"#utility.yul\":3927:4149   */\n    tag_13:\n        /* \"#utility.yul\":4020:4024   */\n      0x00\n        /* \"#utility.yul\":4058:4060   */\n      0x20\n        /* \"#utility.yul\":4047:4056   */\n      dup3\n        /* \"#utility.yul\":4043:4061   */\n      add\n        /* \"#utility.yul\":4035:4061   */\n      swap1\n      pop\n        /* \"#utility.yul\":4071:4142   */\n      tag_130\n        /* \"#utility.yul\":4139:4140   */\n      0x00\n        /* \"#utility.yul\":4128:4137   */\n      dup4\n        /* \"#utility.yul\":4124:4141   */\n      add\n        /* \"#utility.yul\":4115:4121   */\n      dup5\n        /* \"#utility.yul\":4071:4142   */\n      tag_60\n      jump\t// in\n    tag_130:\n        /* \"#utility.yul\":3927:4149   */\n      swap3\n      swap2\n      pop\n      pop\n      jump\t// out\n        /* \"#utility.yul\":4155:4277   */\n    tag_61:\n        /* \"#utility.yul\":4228:4252   */\n      tag_132\n        /* \"#utility.yul\":4246:4251   */\n      dup2\n        /* \"#utility.yul\":4228:4252   */\n      tag_59\n      jump\t// in\n    tag_132:\n        /* \"#utility.yul\":4221:4226   */\n      dup2\n        /* \"#utility.yul\":4218:4253   */\n      eq\n        /* \"#utility.yul\":4208:4271   */\n      tag_133\n      jumpi\n        /* \"#utility.yul\":4267:4268   */\n      0x00\n        /* \"#utility.yul\":4264:4265   */\n      dup1\n        /* \"#utility.yul\":4257:4269   */\n      revert\n        /* \"#utility.yul\":4208:4271   */\n    tag_133:\n        /* \"#utility.yul\":4155:4277   */\n      pop\n      jump\t// out\n        /* \"#utility.yul\":4283:4422   */\n    tag_62:\n        /* \"#utility.yul\":4329:4334   */\n      0x00\n        /* \"#utility.yul\":4367:4373   */\n      dup2\n        /* \"#utility.yul\":4354:4374   */\n      calldataload\n        /* \"#utility.yul\":4345:4374   */\n      swap1\n      pop\n        /* \"#utility.yul\":4383:4416   */\n      tag_135\n        /* \"#utility.yul\":4410:4415   */\n      dup2\n        /* \"#utility.yul\":4383:4416   */\n      tag_61\n      jump\t// in\n    tag_135:\n        /* \"#utility.yul\":4283:4422   */\n      swap3\n      swap2\n      pop\n      pop\n      jump\t// out\n        /* \"#utility.yul\":4428:4757   */\n    tag_16:\n        /* \"#utility.yul\":4487:4493   */\n      0x00\n        /* \"#utility.yul\":4536:4538   */\n      0x20\n        /* \"#utility.yul\":4524:4533   */\n      dup3\n        /* \"#utility.yul\":4515:4522   */\n      dup5\n        /* \"#utility.yul\":4511:4534   */\n      sub\n        /* \"#utility.yul\":4507:4539   */\n      slt\n        /* \"#utility.yul\":4504:4623   */\n      iszero\n      tag_137\n      jumpi\n        /* \"#utility.yul\":4542:4621   */\n      tag_138\n      tag_47\n      jump\t// in\n    tag_138:\n        /* \"#utility.yul\":4504:4623   */\n    tag_137:\n        /* \"#utility.yul\":4662:4663   */\n      0x00\n        /* \"#utility.yul\":4687:4740   */\n      tag_139\n        /* \"#utility.yul\":4732:4739   */\n      dup5\n        /* \"#utility.yul\":4723:4729   */\n      dup3\n        /* \"#utility.yul\":4712:4721   */\n      dup6\n        /* \"#utility.yul\":4708:4730   */\n      add\n        /* \"#utility.yul\":4687:4740   */\n      tag_62\n      jump\t// in\n    tag_139:\n        /* \"#utility.yul\":4677:4740   */\n      swap2\n      pop\n        /* \"#utility.yul\":4633:4750   */\n      pop\n        /* \"#utility.yul\":4428:4757   */\n      swap3\n      swap2\n      pop\n      pop\n      jump\t// out\n        /* \"#utility.yul\":4763:4862   */\n    tag_63:\n        /* \"#utility.yul\":4815:4821   */\n      0x00\n        /* \"#utility.yul\":4849:4854   */\n      dup2\n        /* \"#utility.yul\":4843:4855   */\n      mload\n        /* \"#utility.yul\":4833:4855   */\n      swap1\n      pop\n        /* \"#utility.yul\":4763:4862   */\n      swap2\n      swap1\n      pop\n      jump\t// out\n        /* \"#utility.yul\":4868:5037   */\n    tag_64:\n        /* \"#utility.yul\":4952:4963   */\n      0x00\n        /* \"#utility.yul\":4986:4992   */\n      dup3\n        /* \"#utility.yul\":4981:4984   */\n      dup3\n        /* \"#utility.yul\":4974:4993   */\n      mstore\n        /* \"#utility.yul\":5026:5030   */\n      0x20\n        /* \"#utility.yul\":5021:5024   */\n      dup3\n        /* \"#utility.yul\":5017:5031   */\n      add\n        /* \"#utility.yul\":5002:5031   */\n      swap1\n      pop\n        /* \"#utility.yul\":4868:5037   */\n      swap3\n      swap2\n      pop\n      pop\n      jump\t// out\n        /* \"#utility.yul\":5043:5182   */\n    tag_65:\n        /* \"#utility.yul\":5132:5138   */\n      dup3\n        /* \"#utility.yul\":5127:5130   */\n      dup2\n        /* \"#utility.yul\":5122:5125   */\n      dup4\n        /* \"#utility.yul\":5116:5139   */\n      mcopy\n        /* \"#utility.yul\":5173:5174   */\n      0x00\n        /* \"#utility.yul\":5164:5170   */\n      dup4\n        /* \"#utility.yul\":5159:5162   */\n      dup4\n        /* \"#utility.yul\":5155:5171   */\n      add\n        /* \"#utility.yul\":5148:5175   */\n      mstore\n        /* \"#utility.yul\":5043:5182   */\n      pop\n      pop\n      pop\n      jump\t// out\n        /* \"#utility.yul\":5188:5565   */\n    tag_66:\n        /* \"#utility.yul\":5276:5279   */\n      0x00\n        /* \"#utility.yul\":5304:5343   */\n      tag_144\n        /* \"#utility.yul\":5337:5342   */\n      dup3\n        /* \"#utility.yul\":5304:5343   */\n      tag_63\n      jump\t// in\n    tag_144:\n        /* \"#utility.yul\":5359:5430   */\n      tag_145\n        /* \"#utility.yul\":5423:5429   */\n      dup2\n        /* \"#utility.yul\":5418:5421   */\n      dup6\n        /* \"#utility.yul\":5359:5430   */\n      tag_64\n      jump\t// in\n    tag_145:\n        /* \"#utility.yul\":5352:5430   */\n      swap4\n      pop\n        /* \"#utility.yul\":5439:5504   */\n      tag_146\n        /* \"#utility.yul\":5497:5503   */\n      dup2\n        /* \"#utility.yul\":5492:5495   */\n      dup6\n        /* \"#utility.yul\":5485:5489   */\n      0x20\n        /* \"#utility.yul\":5478:5483   */\n      dup7\n        /* \"#utility.yul\":5474:5490   */\n      add\n        /* \"#utility.yul\":5439:5504   */\n      tag_65\n      jump\t// in\n    tag_146:\n        /* \"#utility.yul\":5529:5558   */\n      tag_147\n        /* \"#utility.yul\":5551:5557   */\n      dup2\n        /* \"#utility.yul\":5529:5558   */\n      tag_51\n      jump\t// in\n    tag_147:\n        /* \"#utility.yul\":5524:5527   */\n      dup5\n        /* \"#utility.yul\":5520:5559   */\n      add\n        /* \"#utility.yul\":5513:5559   */\n      swap2\n      pop\n        /* \"#utility.yul\":5280:5565   */\n      pop\n        /* \"#utility.yul\":5188:5565   */\n      swap3\n      swap2\n      pop\n      pop\n      jump\t// out\n        /* \"#utility.yul\":5571:6286   */\n    tag_19:\n        /* \"#utility.yul\":5780:5784   */\n      0x00\n        /* \"#utility.yul\":5818:5820   */\n      0x60\n        /* \"#utility.yul\":5807:5816   */\n      dup3\n        /* \"#utility.yul\":5803:5821   */\n      add\n        /* \"#utility.yul\":5795:5821   */\n      swap1\n      pop\n        /* \"#utility.yul\":5867:5876   */\n      dup2\n        /* \"#utility.yul\":5861:5865   */\n      dup2\n        /* \"#utility.yul\":5857:5877   */\n      sub\n        /* \"#utility.yul\":5853:5854   */\n      0x00\n        /* \"#utility.yul\":5842:5851   */\n      dup4\n        /* \"#utility.yul\":5838:5855   */\n      add\n        /* \"#utility.yul\":5831:5878   */\n      mstore\n        /* \"#utility.yul\":5895:5973   */\n      tag_149\n        /* \"#utility.yul\":5968:5972   */\n      dup2\n        /* \"#utility.yul\":5959:5965   */\n      dup7\n        /* \"#utility.yul\":5895:5973   */\n      tag_66\n      jump\t// in\n    tag_149:\n        /* \"#utility.yul\":5887:5973   */\n      swap1\n      pop\n        /* \"#utility.yul\":6020:6029   */\n      dup2\n        /* \"#utility.yul\":6014:6018   */\n      dup2\n        /* \"#utility.yul\":6010:6030   */\n      sub\n        /* \"#utility.yul\":6005:6007   */\n      0x20\n        /* \"#utility.yul\":5994:6003   */\n      dup4\n        /* \"#utility.yul\":5990:6008   */\n      add\n        /* \"#utility.yul\":5983:6031   */\n      mstore\n        /* \"#utility.yul\":6048:6126   */\n      tag_150\n        /* \"#utility.yul\":6121:6125   */\n      dup2\n        /* \"#utility.yul\":6112:6118   */\n      dup6\n        /* \"#utility.yul\":6048:6126   */\n      tag_66\n      jump\t// in\n    tag_150:\n        /* \"#utility.yul\":6040:6126   */\n      swap1\n      pop\n        /* \"#utility.yul\":6173:6182   */\n      dup2\n        /* \"#utility.yul\":6167:6171   */\n      dup2\n        /* \"#utility.yul\":6163:6183   */\n      sub\n        /* \"#utility.yul\":6158:6160   */\n      0x40\n        /* \"#utility.yul\":6147:6156   */\n      dup4\n        /* \"#utility.yul\":6143:6161   */\n      add\n        /* \"#utility.yul\":6136:6184   */\n      mstore\n        /* \"#utility.yul\":6201:6279   */\n      tag_151\n        /* \"#utility.yul\":6274:6278   */\n      dup2\n        /* \"#utility.yul\":6265:6271   */\n      dup5\n        /* \"#utility.yul\":6201:6279   */\n      tag_66\n      jump\t// in\n    tag_151:\n        /* \"#utility.yul\":6193:6279   */\n      swap1\n      pop\n        /* \"#utility.yul\":5571:6286   */\n      swap5\n      swap4\n      pop\n      pop\n      pop\n      pop\n      jump\t// out\n        /* \"#utility.yul\":6292:6472   */\n    tag_67:\n        /* \"#utility.yul\":6340:6417   */\n      0x4e487b7100000000000000000000000000000000000000000000000000000000\n        /* \"#utility.yul\":6337:6338   */\n      0x00\n        /* \"#utility.yul\":6330:6418   */\n      mstore\n        /* \"#utility.yul\":6437:6441   */\n      0x22\n        /* \"#utility.yul\":6434:6435   */\n      0x04\n        /* \"#utility.yul\":6427:6442   */\n      mstore\n        /* \"#utility.yul\":6461:6465   */\n      0x24\n        /* \"#utility.yul\":6458:6459   */\n      0x00\n        /* \"#utility.yul\":6451:6466   */\n      revert\n        /* \"#utility.yul\":6478:6798   */\n    tag_31:\n        /* \"#utility.yul\":6522:6528   */\n      0x00\n        /* \"#utility.yul\":6559:6560   */\n      0x02\n        /* \"#utility.yul\":6553:6557   */\n      dup3\n        /* \"#utility.yul\":6549:6561   */\n      div\n        /* \"#utility.yul\":6539:6561   */\n      swap1\n      pop\n        /* \"#utility.yul\":6606:6607   */\n      0x01\n        /* \"#utility.yul\":6600:6604   */\n      dup3\n        /* \"#utility.yul\":6596:6608   */\n      and\n        /* \"#utility.yul\":6627:6645   */\n      dup1\n        /* \"#utility.yul\":6617:6698   */\n      tag_154\n      jumpi\n        /* \"#utility.yul\":6683:6687   */\n      0x7f\n        /* \"#utility.yul\":6675:6681   */\n      dup3\n        /* \"#utility.yul\":6671:6688   */\n      and\n        /* \"#utility.yul\":6661:6688   */\n      swap2\n      pop\n        /* \"#utility.yul\":6617:6698   */\n    tag_154:\n        /* \"#utility.yul\":6745:6747   */\n      0x20\n        /* \"#utility.yul\":6737:6743   */\n      dup3\n        /* \"#utility.yul\":6734:6748   */\n      lt\n        /* \"#utility.yul\":6714:6732   */\n      dup2\n        /* \"#utility.yul\":6711:6749   */\n      sub\n        /* \"#utility.yul\":6708:6792   */\n      tag_155\n      jumpi\n        /* \"#utility.yul\":6764:6782   */\n      tag_156\n      tag_67\n      jump\t// in\n    tag_156:\n        /* \"#utility.yul\":6708:6792   */\n    tag_155:\n        /* \"#utility.yul\":6529:6798   */\n      pop\n        /* \"#utility.yul\":6478:6798   */\n      swap2\n      swap1\n      pop\n      jump\t// out\n        /* \"#utility.yul\":6804:6945   */\n    tag_68:\n        /* \"#utility.yul\":6853:6857   */\n      0x00\n        /* \"#utility.yul\":6876:6879   */\n      dup2\n        /* \"#utility.yul\":6868:6879   */\n      swap1\n      pop\n        /* \"#utility.yul\":6899:6902   */\n      dup2\n        /* \"#utility.yul\":6896:6897   */\n      0x00\n        /* \"#utility.yul\":6889:6903   */\n      mstore\n        /* \"#utility.yul\":6933:6937   */\n      0x20\n        /* \"#utility.yul\":6930:6931   */\n      0x00\n        /* \"#utility.yul\":6920:6938   */\n      keccak256\n        /* \"#utility.yul\":6912:6938   */\n      swap1\n      pop\n        /* \"#utility.yul\":6804:6945   */\n      swap2\n      swap1\n      pop\n      jump\t// out\n        /* \"#utility.yul\":6951:7044   */\n    tag_69:\n        /* \"#utility.yul\":6988:6994   */\n      0x00\n        /* \"#utility.yul\":7035:7037   */\n      0x20\n        /* \"#utility.yul\":7030:7032   */\n      0x1f\n        /* \"#utility.yul\":7023:7028   */\n      dup4\n        /* \"#utility.yul\":7019:7033   */\n      add\n        /* \"#utility.yul\":7015:7038   */\n      div\n        /* \"#utility.yul\":7005:7038   */\n      swap1\n      pop\n        /* \"#utility.yul\":6951:7044   */\n      swap2\n      swap1\n      pop\n      jump\t// out\n        /* \"#utility.yul\":7050:7157   */\n    tag_70:\n        /* \"#utility.yul\":7094:7102   */\n      0x00\n        /* \"#utility.yul\":7144:7149   */\n      dup3\n        /* \"#utility.yul\":7138:7142   */\n      dup3\n        /* \"#utility.yul\":7134:7150   */\n      shl\n        /* \"#utility.yul\":7113:7150   */\n      swap1\n      pop\n        /* \"#utility.yul\":7050:7157   */\n      swap3\n      swap2\n      pop\n      pop\n      jump\t// out\n        /* \"#utility.yul\":7163:7556   */\n    tag_71:\n        /* \"#utility.yul\":7232:7238   */\n      0x00\n        /* \"#utility.yul\":7282:7283   */\n      0x08\n        /* \"#utility.yul\":7270:7280   */\n      dup4\n        /* \"#utility.yul\":7266:7284   */\n      mul\n        /* \"#utility.yul\":7305:7402   */\n      tag_161\n        /* \"#utility.yul\":7335:7401   */\n      0xffffffffffffffffffffffffffffffffffffffffffffffffffffffffffffffff\n        /* \"#utility.yul\":7324:7333   */\n      dup3\n        /* \"#utility.yul\":7305:7402   */\n      tag_70\n      jump\t// in\n    tag_161:\n        /* \"#utility.yul\":7423:7462   */\n      tag_162\n        /* \"#utility.yul\":7453:7461   */\n      dup7\n        /* \"#utility.yul\":7442:7451   */\n      dup4\n        /* \"#utility.yul\":7423:7462   */\n      tag_70\n      jump\t// in\n    tag_162:\n        /* \"#utility.yul\":7411:7462   */\n      swap6\n      pop\n        /* \"#utility.yul\":7495:7499   */\n      dup1\n        /* \"#utility.yul\":7491:7500   */\n      not\n        /* \"#utility.yul\":7484:7489   */\n      dup5\n        /* \"#utility.yul\":7480:7501   */\n      and\n        /* \"#utility.yul\":7471:7501   */\n      swap4\n      pop\n        /* \"#utility.yul\":7544:7548   */\n      dup1\n        /* \"#utility.yul\":7534:7542   */\n      dup7\n        /* \"#utility.yul\":7530:7549   */\n      and\n        /* \"#utility.yul\":7523:7528   */\n      dup5\n        /* \"#utility.yul\":7520:7550   */\n      or\n        /* \"#utility.yul\":7510:7550   */\n      swap3\n      pop\n        /* \"#utility.yul\":7239:7556   */\n      pop\n      pop\n        /* \"#utility.yul\":7163:7556   */\n      swap4\n      swap3\n      pop\n      pop\n      pop\n      jump\t// out\n        /* \"#utility.yul\":7562:7622   */\n    tag_72:\n        /* \"#utility.yul\":7590:7593   */\n      0x00\n        /* \"#utility.yul\":7611:7616   */\n      dup2\n        /* \"#utility.yul\":7604:7616   */\n      swap1\n      pop\n        /* \"#utility.yul\":7562:7622   */\n      swap2\n      swap1\n      pop\n      jump\t// out\n        /* \"#utility.yul\":7628:7770   */\n    tag_73:\n        /* \"#utility.yul\":7678:7687   */\n      0x00\n        /* \"#utility.yul\":7711:7764   */\n      tag_165\n        /* \"#utility.yul\":7729:7763   */\n      tag_166\n        /* \"#utility.yul\":7738:7762   */\n      tag_167\n        /* \"#utility.yul\":7756:7761   */\n      dup5\n        /* \"#utility.yul\":7738:7762   */\n      tag_59\n      jump\t// in\n    tag_167:\n        /* \"#utility.yul\":7729:7763   */\n      tag_72\n      jump\t// in\n    tag_166:\n        /* \"#utility.yul\":7711:7764   */\n      tag_59\n      jump\t// in\n    tag_165:\n        /* \"#utility.yul\":7698:7764   */\n      swap1\n      pop\n        /* \"#utility.yul\":7628:7770   */\n      swap2\n      swap1\n      pop\n      jump\t// out\n        /* \"#utility.yul\":7776:7851   */\n    tag_74:\n        /* \"#utility.yul\":7819:7822   */\n      0x00\n        /* \"#utility.yul\":7840:7845   */\n      dup2\n        /* \"#utility.yul\":7833:7845   */\n      swap1\n      pop\n        /* \"#utility.yul\":7776:7851   */\n      swap2\n      swap1\n      pop\n      jump\t// out\n        /* \"#utility.yul\":7857:8126   */\n    tag_75:\n        /* \"#utility.yul\":7967:8006   */\n      tag_170\n        /* \"#utility.yul\":7998:8005   */\n      dup4\n        /* \"#utility.yul\":7967:8006   */\n      tag_73\n      jump\t// in\n    tag_170:\n        /* \"#utility.yul\":8028:8119   */\n      tag_171\n        /* \"#utility.yul\":8077:8118   */\n      tag_172\n        /* \"#utility.yul\":8101:8117   */\n      dup3\n        /* \"#utility.yul\":8077:8118   */\n      tag_74\n      jump\t// in\n    tag_172:\n        /* \"#utility.yul\":8069:8075   */\n      dup5\n        /* \"#utility.yul\":8062:8066   */\n      dup5\n        /* \"#utility.yul\":8056:8067   */\n      sload\n        /* \"#utility.yul\":8028:8119   */\n      tag_71\n      jump\t// in\n    tag_171:\n        /* \"#utility.yul\":8022:8026   */\n      dup3\n        /* \"#utility.yul\":8015:8120   */\n      sstore\n        /* \"#utility.yul\":7933:8126   */\n      pop\n        /* \"#utility.yul\":7857:8126   */\n      pop\n      pop\n      pop\n      jump\t// out\n        /* \"#utility.yul\":8132:8205   */\n    tag_76:\n        /* \"#utility.yul\":8177:8180   */\n      0x00\n        /* \"#utility.yul\":8132:8205   */\n      swap1\n      jump\t// out\n        /* \"#utility.yul\":8211:8400   */\n    tag_77:\n        /* \"#utility.yul\":8288:8320   */\n      tag_175\n      tag_76\n      jump\t// in\n    tag_175:\n        /* \"#utility.yul\":8329:8394   */\n      tag_176\n        /* \"#utility.yul\":8387:8393   */\n      dup2\n        /* \"#utility.yul\":8379:8385   */\n      dup5\n        /* \"#utility.yul\":8373:8377   */\n      dup5\n        /* \"#utility.yul\":8329:8394   */\n      tag_75\n      jump\t// in\n    tag_176:\n        /* \"#utility.yul\":8264:8400   */\n      pop\n        /* \"#utility.yul\":8211:8400   */\n      pop\n      pop\n      jump\t// out\n        /* \"#utility.yul\":8406:8592   */\n    tag_78:\n        /* \"#utility.yul\":8466:8586   */\n    tag_178:\n        /* \"#utility.yul\":8483:8486   */\n      dup2\n        /* \"#utility.yul\":8476:8481   */\n      dup2\n        /* \"#utility.yul\":8473:8487   */\n      lt\n        /* \"#utility.yul\":8466:8586   */\n      iszero\n      tag_180\n      jumpi\n        /* \"#utility.yul\":8537:8576   */\n      tag_181\n        /* \"#utility.yul\":8574:8575   */\n      0x00\n        /* \"#utility.yul\":8567:8572   */\n      dup3\n        /* \"#utility.yul\":8537:8576   */\n      tag_77\n      jump\t// in\n    tag_181:\n        /* \"#utility.yul\":8510:8511   */\n      0x01\n        /* \"#utility.yul\":8503:8508   */\n      dup2\n        /* \"#utility.yul\":8499:8512   */\n      add\n        /* \"#utility.yul\":8490:8512   */\n      swap1\n      pop\n        /* \"#utility.yul\":8466:8586   */\n      jump(tag_178)\n    tag_180:\n        /* \"#utility.yul\":8406:8592   */\n      pop\n      pop\n      jump\t// out\n        /* \"#utility.yul\":8598:9141   */\n    tag_79:\n        /* \"#utility.yul\":8699:8701   */\n      0x1f\n        /* \"#utility.yul\":8694:8697   */\n      dup3\n        /* \"#utility.yul\":8691:8702   */\n      gt\n        /* \"#utility.yul\":8688:9134   */\n      iszero\n      tag_183\n      jumpi\n        /* \"#utility.yul\":8733:8771   */\n      tag_184\n        /* \"#utility.yul\":8765:8770   */\n      dup2\n        /* \"#utility.yul\":8733:8771   */\n      tag_68\n      jump\t// in\n    tag_184:\n        /* \"#utility.yul\":8817:8846   */\n      tag_185\n        /* \"#utility.yul\":8835:8845   */\n      dup5\n        /* \"#utility.yul\":8817:8846   */\n      tag_69\n      jump\t// in\n    tag_185:\n        /* \"#utility.yul\":8807:8815   */\n      dup2\n        /* \"#utility.yul\":8803:8847   */\n      add\n        /* \"#utility.yul\":9000:9002   */\n      0x20\n        /* \"#utility.yul\":8988:8998   */\n      dup6\n        /* \"#utility.yul\":8985:9003   */\n      lt\n        /* \"#utility.yul\":8982:9031   */\n      iszero\n      tag_186\n      jumpi\n        /* \"#utility.yul\":9021:9029   */\n      dup2\n        /* \"#utility.yul\":9006:9029   */\n      swap1\n      pop\n        /* \"#utility.yul\":8982:9031   */\n    tag_186:\n        /* \"#utility.yul\":9044:9124   */\n      tag_187\n        /* \"#utility.yul\":9100:9122   */\n      tag_188\n        /* \"#utility.yul\":9118:9121   */\n      dup6\n        /* \"#utility.yul\":9100:9122   */\n      tag_69\n      jump\t// in\n    tag_188:\n        /* \"#utility.yul\":9090:9098   */\n      dup4\n        /* \"#utility.yul\":9086:9123   */\n      add\n        /* \"#utility.yul\":9073:9084   */\n      dup3\n        /* \"#utility.yul\":9044:9124   */\n      tag_78\n      jump\t// in\n    tag_187:\n        /* \"#utility.yul\":8703:9134   */\n      pop\n      pop\n        /* \"#utility.yul\":8688:9134   */\n    tag_183:\n        /* \"#utility.yul\":8598:9141   */\n      pop\n      pop\n      pop\n      jump\t// out\n        /* \"#utility.yul\":9147:9264   */\n    tag_80:\n        /* \"#utility.yul\":9201:9209   */\n      0x00\n        /* \"#utility.yul\":9251:9256   */\n      dup3\n        /* \"#utility.yul\":9245:9249   */\n      dup3\n        /* \"#utility.yul\":9241:9257   */\n      shr\n        /* \"#utility.yul\":9220:9257   */\n      swap1\n      pop\n        /* \"#utility.yul\":9147:9264   */\n      swap3\n      swap2\n      pop\n      pop\n      jump\t// out\n        /* \"#utility.yul\":9270:9439   */\n    tag_81:\n        /* \"#utility.yul\":9314:9320   */\n      0x00\n        /* \"#utility.yul\":9347:9398   */\n      tag_191\n        /* \"#utility.yul\":9395:9396   */\n      0x00\n        /* \"#utility.yul\":9391:9397   */\n      not\n        /* \"#utility.yul\":9383:9388   */\n      dup5\n        /* \"#utility.yul\":9380:9381   */\n      0x08\n        /* \"#utility.yul\":9376:9389   */\n      mul\n        /* \"#utility.yul\":9347:9398   */\n      tag_80\n      jump\t// in\n    tag_191:\n        /* \"#utility.yul\":9343:9399   */\n      not\n        /* \"#utility.yul\":9428:9432   */\n      dup1\n        /* \"#utility.yul\":9422:9426   */\n      dup4\n        /* \"#utility.yul\":9418:9433   */\n      and\n        /* \"#utility.yul\":9408:9433   */\n      swap2\n      pop\n        /* \"#utility.yul\":9321:9439   */\n      pop\n        /* \"#utility.yul\":9270:9439   */\n      swap3\n      swap2\n      pop\n      pop\n      jump\t// out\n        /* \"#utility.yul\":9444:9739   */\n    tag_82:\n        /* \"#utility.yul\":9520:9524   */\n      0x00\n        /* \"#utility.yul\":9666:9695   */\n      tag_193\n        /* \"#utility.yul\":9691:9694   */\n      dup4\n        /* \"#utility.yul\":9685:9689   */\n      dup4\n        /* \"#utility.yul\":9666:9695   */\n      tag_81\n      jump\t// in\n    tag_193:\n        /* \"#utility.yul\":9658:9695   */\n      swap2\n      pop\n        /* \"#utility.yul\":9728:9731   */\n      dup3\n        /* \"#utility.yul\":9725:9726   */\n      0x02\n        /* \"#utility.yul\":9721:9732   */\n      mul\n        /* \"#utility.yul\":9715:9719   */\n      dup3\n        /* \"#utility.yul\":9712:9733   */\n      or\n        /* \"#utility.yul\":9704:9733   */\n      swap1\n      pop\n        /* \"#utility.yul\":9444:9739   */\n      swap3\n      swap2\n      pop\n      pop\n      jump\t// out\n        /* \"#utility.yul\":9744:11139   */\n    tag_23:\n        /* \"#utility.yul\":9861:9898   */\n      tag_195\n        /* \"#utility.yul\":9894:9897   */\n      dup3\n        /* \"#utility.yul\":9861:9898   */\n      tag_63\n      jump\t// in\n    tag_195:\n        /* \"#utility.yul\":9963:9981   */\n      0xffffffffffffffff\n        /* \"#utility.yul\":9955:9961   */\n      dup2\n        /* \"#utility.yul\":9952:9982   */\n      gt\n        /* \"#utility.yul\":9949:10005   */\n      iszero\n      tag_196\n      jumpi\n        /* \"#utility.yul\":9985:10003   */\n      tag_197\n      tag_52\n      jump\t// in\n    tag_197:\n        /* \"#utility.yul\":9949:10005   */\n    tag_196:\n        /* \"#utility.yul\":10029:10067   */\n      tag_198\n        /* \"#utility.yul\":10061:10065   */\n      dup3\n        /* \"#utility.yul\":10055:10066   */\n      sload\n        /* \"#utility.yul\":10029:10067   */\n      tag_31\n      jump\t// in\n    tag_198:\n        /* \"#utility.yul\":10114:10181   */\n      tag_199\n        /* \"#utility.yul\":10174:10180   */\n      dup3\n        /* \"#utility.yul\":10166:10172   */\n      dup3\n        /* \"#utility.yul\":10160:10164   */\n      dup6\n        /* \"#utility.yul\":10114:10181   */\n      tag_79\n      jump\t// in\n    tag_199:\n        /* \"#utility.yul\":10208:10209   */\n      0x00\n        /* \"#utility.yul\":10232:10236   */\n      0x20\n        /* \"#utility.yul\":10219:10236   */\n      swap1\n      pop\n        /* \"#utility.yul\":10264:10266   */\n      0x1f\n        /* \"#utility.yul\":10256:10262   */\n      dup4\n        /* \"#utility.yul\":10253:10267   */\n      gt\n        /* \"#utility.yul\":10281:10282   */\n      0x01\n        /* \"#utility.yul\":10276:10894   */\n      dup2\n      eq\n      tag_201\n      jumpi\n        /* \"#utility.yul\":10938:10939   */\n      0x00\n        /* \"#utility.yul\":10955:10961   */\n      dup5\n        /* \"#utility.yul\":10952:11029   */\n      iszero\n      tag_202\n      jumpi\n        /* \"#utility.yul\":11004:11013   */\n      dup3\n        /* \"#utility.yul\":10999:11002   */\n      dup8\n        /* \"#utility.yul\":10995:11014   */\n      add\n        /* \"#utility.yul\":10989:11015   */\n      mload\n        /* \"#utility.yul\":10980:11015   */\n      swap1\n      pop\n        /* \"#utility.yul\":10952:11029   */\n    tag_202:\n        /* \"#utility.yul\":11055:11122   */\n      tag_203\n        /* \"#utility.yul\":11115:11121   */\n      dup6\n        /* \"#utility.yul\":11108:11113   */\n      dup3\n        /* \"#utility.yul\":11055:11122   */\n      tag_82\n      jump\t// in\n    tag_203:\n        /* \"#utility.yul\":11049:11053   */\n      dup7\n        /* \"#utility.yul\":11042:11123   */\n      sstore\n        /* \"#utility.yul\":10911:11133   */\n      pop\n        /* \"#utility.yul\":10246:11133   */\n      jump(tag_200)\n        /* \"#utility.yul\":10276:10894   */\n    tag_201:\n        /* \"#utility.yul\":10328:10332   */\n      0x1f\n        /* \"#utility.yul\":10324:10333   */\n      not\n        /* \"#utility.yul\":10316:10322   */\n      dup5\n        /* \"#utility.yul\":10312:10334   */\n      and\n        /* \"#utility.yul\":10362:10399   */\n      tag_204\n        /* \"#utility.yul\":10394:10398   */\n      dup7\n        /* \"#utility.yul\":10362:10399   */\n      tag_68\n      jump\t// in\n    tag_204:\n        /* \"#utility.yul\":10421:10422   */\n      0x00\n        /* \"#utility.yul\":10435:10643   */\n    tag_205:\n        /* \"#utility.yul\":10449:10456   */\n      dup3\n        /* \"#utility.yul\":10446:10447   */\n      dup2\n        /* \"#utility.yul\":10443:10457   */\n      lt\n        /* \"#utility.yul\":10435:10643   */\n      iszero\n      tag_207\n      jumpi\n        /* \"#utility.yul\":10528:10537   */\n      dup5\n        /* \"#utility.yul\":10523:10526   */\n      dup10\n        /* \"#utility.yul\":10519:10538   */\n      add\n        /* \"#utility.yul\":10513:10539   */\n      mload\n        /* \"#utility.yul\":10505:10511   */\n      dup3\n        /* \"#utility.yul\":10498:10540   */\n      sstore\n        /* \"#utility.yul\":10579:10580   */\n      0x01\n        /* \"#utility.yul\":10571:10577   */\n      dup3\n        /* \"#utility.yul\":10567:10581   */\n      add\n        /* \"#utility.yul\":10557:10581   */\n      swap2\n      pop\n        /* \"#utility.yul\":10626:10628   */\n      0x20\n        /* \"#utility.yul\":10615:10624   */\n      dup6\n        /* \"#utility.yul\":10611:10629   */\n      add\n        /* \"#utility.yul\":10598:10629   */\n      swap5\n      pop\n        /* \"#utility.yul\":10472:10476   */\n      0x20\n        /* \"#utility.yul\":10469:10470   */\n      dup2\n        /* \"#utility.yul\":10465:10477   */\n      add\n        /* \"#utility.yul\":10460:10477   */\n      swap1\n      pop\n        /* \"#utility.yul\":10435:10643   */\n      jump(tag_205)\n    tag_207:\n        /* \"#utility.yul\":10671:10677   */\n      dup7\n        /* \"#utility.yul\":10662:10669   */\n      dup4\n        /* \"#utility.yul\":10659:10678   */\n      lt\n        /* \"#utility.yul\":10656:10835   */\n      iszero\n      tag_208\n      jumpi\n        /* \"#utility.yul\":10729:10738   */\n      dup5\n        /* \"#utility.yul\":10724:10727   */\n      dup10\n        /* \"#utility.yul\":10720:10739   */\n      add\n        /* \"#utility.yul\":10714:10740   */\n      mload\n        /* \"#utility.yul\":10772:10820   */\n      tag_209\n        /* \"#utility.yul\":10814:10818   */\n      0x1f\n        /* \"#utility.yul\":10806:10812   */\n      dup10\n        /* \"#utility.yul\":10802:10819   */\n      and\n        /* \"#utility.yul\":10791:10800   */\n      dup3\n        /* \"#utility.yul\":10772:10820   */\n      tag_81\n      jump\t// in\n    tag_209:\n        /* \"#utility.yul\":10764:10770   */\n      dup4\n        /* \"#utility.yul\":10757:10821   */\n      sstore\n        /* \"#utility.yul\":10679:10835   */\n      pop\n        /* \"#utility.yul\":10656:10835   */\n    tag_208:\n        /* \"#utility.yul\":10881:10882   */\n      0x01\n        /* \"#utility.yul\":10877:10878   */\n      0x02\n        /* \"#utility.yul\":10869:10875   */\n      dup9\n        /* \"#utility.yul\":10865:10879   */\n      mul\n        /* \"#utility.yul\":10861:10883   */\n      add\n        /* \"#utility.yul\":10855:10859   */\n      dup9\n        /* \"#utility.yul\":10848:10884   */\n      sstore\n        /* \"#utility.yul\":10283:10894   */\n      pop\n      pop\n      pop\n        /* \"#utility.yul\":10246:11133   */\n    tag_200:\n      pop\n        /* \"#utility.yul\":9836:11139   */\n      pop\n      pop\n      pop\n        /* \"#utility.yul\":9744:11139   */\n      pop\n      pop\n      jump\t// out\n        /* \"#utility.yul\":11145:11325   */\n    tag_83:\n        /* \"#utility.yul\":11193:11270   */\n      0x4e487b7100000000000000000000000000000000000000000000000000000000\n        /* \"#utility.yul\":11190:11191   */\n      0x00\n        /* \"#utility.yul\":11183:11271   */\n      mstore\n        /* \"#utility.yul\":11290:11294   */\n      0x11\n        /* \"#utility.yul\":11287:11288   */\n      0x04\n        /* \"#utility.yul\":11280:11295   */\n      mstore\n        /* \"#utility.yul\":11314:11318   */\n      0x24\n        /* \"#utility.yul\":11311:11312   */\n      0x00\n        /* \"#utility.yul\":11304:11319   */\n      revert\n        /* \"#utility.yul\":11331:11564   */\n    tag_27:\n        /* \"#utility.yul\":11370:11373   */\n      0x00\n        /* \"#utility.yul\":11393:11417   */\n      tag_212\n        /* \"#utility.yul\":11411:11416   */\n      dup3\n        /* \"#utility.yul\":11393:11417   */\n      tag_59\n      jump\t// in\n    tag_212:\n        /* \"#utility.yul\":11384:11417   */\n      swap2\n      pop\n        /* \"#utility.yul\":11439:11505   */\n      0xffffffffffffffffffffffffffffffffffffffffffffffffffffffffffffffff\n        /* \"#utility.yul\":11432:11437   */\n      dup3\n        /* \"#utility.yul\":11429:11506   */\n      sub\n        /* \"#utility.yul\":11426:11529   */\n      tag_213\n      jumpi\n        /* \"#utility.yul\":11509:11527   */\n      tag_214\n      tag_83\n      jump\t// in\n    tag_214:\n        /* \"#utility.yul\":11426:11529   */\n    tag_213:\n        /* \"#utility.yul\":11556:11557   */\n      0x01\n        /* \"#utility.yul\":11549:11554   */\n      dup3\n        /* \"#utility.yul\":11545:11558   */\n      add\n        /* \"#utility.yul\":11538:11558   */\n      swap1\n      pop\n        /* \"#utility.yul\":11331:11564   */\n      swap2\n      swap1\n      pop\n      jump\t// out\n\n    auxdata: 0xa264697066735822122055a7832ab5860f454a17bc61075b1022139fb4c87765153af06f3375e670668f64736f6c634300081a0033\n}\n",
				"bytecode": {
					"linkReferences": {},
					"object": "6080604052348015600e575f80fd5b506109af8061001c5f395ff3fe608060405234801561000f575f80fd5b506004361061003f575f3560e01c80630671cc3c14610043578063267c68e01461005f5780639e7a13ad1461007d575b5f80fd5b61005d60048036038101906100589190610468565b6100af565b005b61006761014f565b6040516100749190610524565b60405180910390f35b61009760048036038101906100929190610567565b610155565b6040516100a6939291906105f2565b60405180910390f35b5f604051806060016040528085815260200184815260200183815250908060018154018082558091505060019003905f5260205f2090600302015f909190919091505f820151815f0190816101049190610836565b50602082015181600101908161011a9190610836565b5060408201518160020190816101309190610836565b50505060015f81548092919061014590610932565b9190505550505050565b60015481565b5f8181548110610163575f80fd5b905f5260205f2090600302015f91509050805f01805461018290610669565b80601f01602080910402602001604051908101604052809291908181526020018280546101ae90610669565b80156101f95780601f106101d0576101008083540402835291602001916101f9565b820191905f5260205f20905b8154815290600101906020018083116101dc57829003601f168201915b50505050509080600101805461020e90610669565b80601f016020809104026020016040519081016040528092919081815260200182805461023a90610669565b80156102855780601f1061025c57610100808354040283529160200191610285565b820191905f5260205f20905b81548152906001019060200180831161026857829003601f168201915b50505050509080600201805461029a90610669565b80601f01602080910402602001604051908101604052809291908181526020018280546102c690610669565b80156103115780601f106102e857610100808354040283529160200191610311565b820191905f5260205f20905b8154815290600101906020018083116102f457829003601f168201915b5050505050905083565b5f604051905090565b5f80fd5b5f80fd5b5f80fd5b5f80fd5b5f601f19601f8301169050919050565b7f4e487b71000000000000000000000000000000000000000000000000000000005f52604160045260245ffd5b61037a82610334565b810181811067ffffffffffffffff8211171561039957610398610344565b5b80604052505050565b5f6103ab61031b565b90506103b78282610371565b919050565b5f67ffffffffffffffff8211156103d6576103d5610344565b5b6103df82610334565b9050602081019050919050565b828183375f83830152505050565b5f61040c610407846103bc565b6103a2565b90508281526020810184848401111561042857610427610330565b5b6104338482856103ec565b509392505050565b5f82601f83011261044f5761044e61032c565b5b813561045f8482602086016103fa565b91505092915050565b5f805f6060848603121561047f5761047e610324565b5b5f84013567ffffffffffffffff81111561049c5761049b610328565b5b6104a88682870161043b565b935050602084013567ffffffffffffffff8111156104c9576104c8610328565b5b6104d58682870161043b565b925050604084013567ffffffffffffffff8111156104f6576104f5610328565b5b6105028682870161043b565b9150509250925092565b5f819050919050565b61051e8161050c565b82525050565b5f6020820190506105375f830184610515565b92915050565b6105468161050c565b8114610550575f80fd5b50565b5f813590506105618161053d565b92915050565b5f6020828403121561057c5761057b610324565b5b5f61058984828501610553565b91505092915050565b5f81519050919050565b5f82825260208201905092915050565b8281835e5f83830152505050565b5f6105c482610592565b6105ce818561059c565b93506105de8185602086016105ac565b6105e781610334565b840191505092915050565b5f6060820190508181035f83015261060a81866105ba565b9050818103602083015261061e81856105ba565b9050818103604083015261063281846105ba565b9050949350505050565b7f4e487b71000000000000000000000000000000000000000000000000000000005f52602260045260245ffd5b5f600282049050600182168061068057607f821691505b6020821081036106935761069261063c565b5b50919050565b5f819050815f5260205f209050919050565b5f6020601f8301049050919050565b5f82821b905092915050565b5f600883026106f57fffffffffffffffffffffffffffffffffffffffffffffffffffffffffffffffff826106ba565b6106ff86836106ba565b95508019841693508086168417925050509392505050565b5f819050919050565b5f61073a6107356107308461050c565b610717565b61050c565b9050919050565b5f819050919050565b61075383610720565b61076761075f82610741565b8484546106c6565b825550505050565b5f90565b61077b61076f565b61078681848461074a565b505050565b5b818110156107a95761079e5f82610773565b60018101905061078c565b5050565b601f8211156107ee576107bf81610699565b6107c8846106ab565b810160208510156107d7578190505b6107eb6107e3856106ab565b83018261078b565b50505b505050565b5f82821c905092915050565b5f61080e5f19846008026107f3565b1980831691505092915050565b5f61082683836107ff565b9150826002028217905092915050565b61083f82610592565b67ffffffffffffffff81111561085857610857610344565b5b6108628254610669565b61086d8282856107ad565b5f60209050601f83116001811461089e575f841561088c578287015190505b610896858261081b565b8655506108fd565b601f1984166108ac86610699565b5f5b828110156108d3578489015182556001820191506020850194506020810190506108ae565b868310156108f057848901516108ec601f8916826107ff565b8355505b6001600288020188555050505b505050505050565b7f4e487b71000000000000000000000000000000000000000000000000000000005f52601160045260245ffd5b5f61093c8261050c565b91507fffffffffffffffffffffffffffffffffffffffffffffffffffffffffffffffff820361096e5761096d610905565b5b60018201905091905056fea264697066735822122055a7832ab5860f454a17bc61075b1022139fb4c87765153af06f3375e670668f64736f6c634300081a0033",
					"opcodes": "PUSH1 0x80 PUSH1 0x40 MSTORE CALLVALUE DUP1 ISZERO PUSH1 0xE JUMPI PUSH0 DUP1 REVERT JUMPDEST POP PUSH2 0x9AF DUP1 PUSH2 0x1C PUSH0 CODECOPY PUSH0 RETURN INVALID PUSH1 0x80 PUSH1 0x40 MSTORE CALLVALUE DUP1 ISZERO PUSH2 0xF JUMPI PUSH0 DUP1 REVERT JUMPDEST POP PUSH1 0x4 CALLDATASIZE LT PUSH2 0x3F JUMPI PUSH0 CALLDATALOAD PUSH1 0xE0 SHR DUP1 PUSH4 0x671CC3C EQ PUSH2 0x43 JUMPI DUP1 PUSH4 0x267C68E0 EQ PUSH2 0x5F JUMPI DUP1 PUSH4 0x9E7A13AD EQ PUSH2 0x7D JUMPI JUMPDEST PUSH0 DUP1 REVERT JUMPDEST PUSH2 0x5D PUSH1 0x4 DUP1 CALLDATASIZE SUB DUP2 ADD SWAP1 PUSH2 0x58 SWAP2 SWAP1 PUSH2 0x468 JUMP JUMPDEST PUSH2 0xAF JUMP JUMPDEST STOP JUMPDEST PUSH2 0x67 PUSH2 0x14F JUMP JUMPDEST PUSH1 0x40 MLOAD PUSH2 0x74 SWAP2 SWAP1 PUSH2 0x524 JUMP JUMPDEST PUSH1 0x40 MLOAD DUP1 SWAP2 SUB SWAP1 RETURN JUMPDEST PUSH2 0x97 PUSH1 0x4 DUP1 CALLDATASIZE SUB DUP2 ADD SWAP1 PUSH2 0x92 SWAP2 SWAP1 PUSH2 0x567 JUMP JUMPDEST PUSH2 0x155 JUMP JUMPDEST PUSH1 0x40 MLOAD PUSH2 0xA6 SWAP4 SWAP3 SWAP2 SWAP1 PUSH2 0x5F2 JUMP JUMPDEST PUSH1 0x40 MLOAD DUP1 SWAP2 SUB SWAP1 RETURN JUMPDEST PUSH0 PUSH1 0x40 MLOAD DUP1 PUSH1 0x60 ADD PUSH1 0x40 MSTORE DUP1 DUP6 DUP2 MSTORE PUSH1 0x20 ADD DUP5 DUP2 MSTORE PUSH1 0x20 ADD DUP4 DUP2 MSTORE POP SWAP1 DUP1 PUSH1 0x1 DUP2 SLOAD ADD DUP1 DUP3 SSTORE DUP1 SWAP2 POP POP PUSH1 0x1 SWAP1 SUB SWAP1 PUSH0 MSTORE PUSH1 0x20 PUSH0 KECCAK256 SWAP1 PUSH1 0x3 MUL ADD PUSH0 SWAP1 SWAP2 SWAP1 SWAP2 SWAP1 SWAP2 POP PUSH0 DUP3 ADD MLOAD DUP2 PUSH0 ADD SWAP1 DUP2 PUSH2 0x104 SWAP2 SWAP1 PUSH2 0x836 JUMP JUMPDEST POP PUSH1 0x20 DUP3 ADD MLOAD DUP2 PUSH1 0x1 ADD SWAP1 DUP2 PUSH2 0x11A SWAP2 SWAP1 PUSH2 0x836 JUMP JUMPDEST POP PUSH1 0x40 DUP3 ADD MLOAD DUP2 PUSH1 0x2 ADD SWAP1 DUP2 PUSH2 0x130 SWAP2 SWAP1 PUSH2 0x836 JUMP JUMPDEST POP POP POP PUSH1 0x1 PUSH0 DUP2 SLOAD DUP1 SWAP3 SWAP2 SWAP1 PUSH2 0x145 SWAP1 PUSH2 0x932 JUMP JUMPDEST SWAP2 SWAP1 POP SSTORE POP POP POP POP JUMP JUMPDEST PUSH1 0x1 SLOAD DUP2 JUMP JUMPDEST PUSH0 DUP2 DUP2 SLOAD DUP2 LT PUSH2 0x163 JUMPI PUSH0 DUP1 REVERT JUMPDEST SWAP1 PUSH0 MSTORE PUSH1 0x20 PUSH0 KECCAK256 SWAP1 PUSH1 0x3 MUL ADD PUSH0 SWAP2 POP SWAP1 POP DUP1 PUSH0 ADD DUP1 SLOAD PUSH2 0x182 SWAP1 PUSH2 0x669 JUMP JUMPDEST DUP1 PUSH1 0x1F ADD PUSH1 0x20 DUP1 SWAP2 DIV MUL PUSH1 0x20 ADD PUSH1 0x40 MLOAD SWAP1 DUP2 ADD PUSH1 0x40 MSTORE DUP1 SWAP3 SWAP2 SWAP1 DUP2 DUP2 MSTORE PUSH1 0x20 ADD DUP3 DUP1 SLOAD PUSH2 0x1AE SWAP1 PUSH2 0x669 JUMP JUMPDEST DUP1 ISZERO PUSH2 0x1F9 JUMPI DUP1 PUSH1 0x1F LT PUSH2 0x1D0 JUMPI PUSH2 0x100 DUP1 DUP4 SLOAD DIV MUL DUP4 MSTORE SWAP2 PUSH1 0x20 ADD SWAP2 PUSH2 0x1F9 JUMP JUMPDEST DUP3 ADD SWAP2 SWAP1 PUSH0 MSTORE PUSH1 0x20 PUSH0 KECCAK256 SWAP1 JUMPDEST DUP2 SLOAD DUP2 MSTORE SWAP1 PUSH1 0x1 ADD SWAP1 PUSH1 0x20 ADD DUP1 DUP4 GT PUSH2 0x1DC JUMPI DUP3 SWAP1 SUB PUSH1 0x1F AND DUP3 ADD SWAP2 JUMPDEST POP POP POP POP POP SWAP1 DUP1 PUSH1 0x1 ADD DUP1 SLOAD PUSH2 0x20E SWAP1 PUSH2 0x669 JUMP JUMPDEST DUP1 PUSH1 0x1F ADD PUSH1 0x20 DUP1 SWAP2 DIV MUL PUSH1 0x20 ADD PUSH1 0x40 MLOAD SWAP1 DUP2 ADD PUSH1 0x40 MSTORE DUP1 SWAP3 SWAP2 SWAP1 DUP2 DUP2 MSTORE PUSH1 0x20 ADD DUP3 DUP1 SLOAD PUSH2 0x23A SWAP1 PUSH2 0x669 JUMP JUMPDEST DUP1 ISZERO PUSH2 0x285 JUMPI DUP1 PUSH1 0x1F LT PUSH2 0x25C JUMPI PUSH2 0x100 DUP1 DUP4 SLOAD DIV MUL DUP4 MSTORE SWAP2 PUSH1 0x20 ADD SWAP2 PUSH2 0x285 JUMP JUMPDEST DUP3 ADD SWAP2 SWAP1 PUSH0 MSTORE PUSH1 0x20 PUSH0 KECCAK256 SWAP1 JUMPDEST DUP2 SLOAD DUP2 MSTORE SWAP1 PUSH1 0x1 ADD SWAP1 PUSH1 0x20 ADD DUP1 DUP4 GT PUSH2 0x268 JUMPI DUP3 SWAP1 SUB PUSH1 0x1F AND DUP3 ADD SWAP2 JUMPDEST POP POP POP POP POP SWAP1 DUP1 PUSH1 0x2 ADD DUP1 SLOAD PUSH2 0x29A SWAP1 PUSH2 0x669 JUMP JUMPDEST DUP1 PUSH1 0x1F ADD PUSH1 0x20 DUP1 SWAP2 DIV MUL PUSH1 0x20 ADD PUSH1 0x40 MLOAD SWAP1 DUP2 ADD PUSH1 0x40 MSTORE DUP1 SWAP3 SWAP2 SWAP1 DUP2 DUP2 MSTORE PUSH1 0x20 ADD DUP3 DUP1 SLOAD PUSH2 0x2C6 SWAP1 PUSH2 0x669 JUMP JUMPDEST DUP1 ISZERO PUSH2 0x311 JUMPI DUP1 PUSH1 0x1F LT PUSH2 0x2E8 JUMPI PUSH2 0x100 DUP1 DUP4 SLOAD DIV MUL DUP4 MSTORE SWAP2 PUSH1 0x20 ADD SWAP2 PUSH2 0x311 JUMP JUMPDEST DUP3 ADD SWAP2 SWAP1 PUSH0 MSTORE PUSH1 0x20 PUSH0 KECCAK256 SWAP1 JUMPDEST DUP2 SLOAD DUP2 MSTORE SWAP1 PUSH1 0x1 ADD SWAP1 PUSH1 0x20 ADD DUP1 DUP4 GT PUSH2 0x2F4 JUMPI DUP3 SWAP1 SUB PUSH1 0x1F AND DUP3 ADD SWAP2 JUMPDEST POP POP POP POP POP SWAP1 POP DUP4 JUMP JUMPDEST PUSH0 PUSH1 0x40 MLOAD SWAP1 POP SWAP1 JUMP JUMPDEST PUSH0 DUP1 REVERT JUMPDEST PUSH0 DUP1 REVERT JUMPDEST PUSH0 DUP1 REVERT JUMPDEST PUSH0 DUP1 REVERT JUMPDEST PUSH0 PUSH1 0x1F NOT PUSH1 0x1F DUP4 ADD AND SWAP1 POP SWAP2 SWAP1 POP JUMP JUMPDEST PUSH32 0x4E487B7100000000000000000000000000000000000000000000000000000000 PUSH0 MSTORE PUSH1 0x41 PUSH1 0x4 MSTORE PUSH1 0x24 PUSH0 REVERT JUMPDEST PUSH2 0x37A DUP3 PUSH2 0x334 JUMP JUMPDEST DUP2 ADD DUP2 DUP2 LT PUSH8 0xFFFFFFFFFFFFFFFF DUP3 GT OR ISZERO PUSH2 0x399 JUMPI PUSH2 0x398 PUSH2 0x344 JUMP JUMPDEST JUMPDEST DUP1 PUSH1 0x40 MSTORE POP POP POP JUMP JUMPDEST PUSH0 PUSH2 0x3AB PUSH2 0x31B JUMP JUMPDEST SWAP1 POP PUSH2 0x3B7 DUP3 DUP3 PUSH2 0x371 JUMP JUMPDEST SWAP2 SWAP1 POP JUMP JUMPDEST PUSH0 PUSH8 0xFFFFFFFFFFFFFFFF DUP3 GT ISZERO PUSH2 0x3D6 JUMPI PUSH2 0x3D5 PUSH2 0x344 JUMP JUMPDEST JUMPDEST PUSH2 0x3DF DUP3 PUSH2 0x334 JUMP JUMPDEST SWAP1 POP PUSH1 0x20 DUP2 ADD SWAP1 POP SWAP2 SWAP1 POP JUMP JUMPDEST DUP3 DUP2 DUP4 CALLDATACOPY PUSH0 DUP4 DUP4 ADD MSTORE POP POP POP JUMP JUMPDEST PUSH0 PUSH2 0x40C PUSH2 0x407 DUP5 PUSH2 0x3BC JUMP JUMPDEST PUSH2 0x3A2 JUMP JUMPDEST SWAP1 POP DUP3 DUP2 MSTORE PUSH1 0x20 DUP2 ADD DUP5 DUP5 DUP5 ADD GT ISZERO PUSH2 0x428 JUMPI PUSH2 0x427 PUSH2 0x330 JUMP JUMPDEST JUMPDEST PUSH2 0x433 DUP5 DUP3 DUP6 PUSH2 0x3EC JUMP JUMPDEST POP SWAP4 SWAP3 POP POP POP JUMP JUMPDEST PUSH0 DUP3 PUSH1 0x1F DUP4 ADD SLT PUSH2 0x44F JUMPI PUSH2 0x44E PUSH2 0x32C JUMP JUMPDEST JUMPDEST DUP2 CALLDATALOAD PUSH2 0x45F DUP5 DUP3 PUSH1 0x20 DUP7 ADD PUSH2 0x3FA JUMP JUMPDEST SWAP2 POP POP SWAP3 SWAP2 POP POP JUMP JUMPDEST PUSH0 DUP1 PUSH0 PUSH1 0x60 DUP5 DUP7 SUB SLT ISZERO PUSH2 0x47F JUMPI PUSH2 0x47E PUSH2 0x324 JUMP JUMPDEST JUMPDEST PUSH0 DUP5 ADD CALLDATALOAD PUSH8 0xFFFFFFFFFFFFFFFF DUP2 GT ISZERO PUSH2 0x49C JUMPI PUSH2 0x49B PUSH2 0x328 JUMP JUMPDEST JUMPDEST PUSH2 0x4A8 DUP7 DUP3 DUP8 ADD PUSH2 0x43B JUMP JUMPDEST SWAP4 POP POP PUSH1 0x20 DUP5 ADD CALLDATALOAD PUSH8 0xFFFFFFFFFFFFFFFF DUP2 GT ISZERO PUSH2 0x4C9 JUMPI PUSH2 0x4C8 PUSH2 0x328 JUMP JUMPDEST JUMPDEST PUSH2 0x4D5 DUP7 DUP3 DUP8 ADD PUSH2 0x43B JUMP JUMPDEST SWAP3 POP POP PUSH1 0x40 DUP5 ADD CALLDATALOAD PUSH8 0xFFFFFFFFFFFFFFFF DUP2 GT ISZERO PUSH2 0x4F6 JUMPI PUSH2 0x4F5 PUSH2 0x328 JUMP JUMPDEST JUMPDEST PUSH2 0x502 DUP7 DUP3 DUP8 ADD PUSH2 0x43B JUMP JUMPDEST SWAP2 POP POP SWAP3 POP SWAP3 POP SWAP3 JUMP JUMPDEST PUSH0 DUP2 SWAP1 POP SWAP2 SWAP1 POP JUMP JUMPDEST PUSH2 0x51E DUP2 PUSH2 0x50C JUMP JUMPDEST DUP3 MSTORE POP POP JUMP JUMPDEST PUSH0 PUSH1 0x20 DUP3 ADD SWAP1 POP PUSH2 0x537 PUSH0 DUP4 ADD DUP5 PUSH2 0x515 JUMP JUMPDEST SWAP3 SWAP2 POP POP JUMP JUMPDEST PUSH2 0x546 DUP2 PUSH2 0x50C JUMP JUMPDEST DUP2 EQ PUSH2 0x550 JUMPI PUSH0 DUP1 REVERT JUMPDEST POP JUMP JUMPDEST PUSH0 DUP2 CALLDATALOAD SWAP1 POP PUSH2 0x561 DUP2 PUSH2 0x53D JUMP JUMPDEST SWAP3 SWAP2 POP POP JUMP JUMPDEST PUSH0 PUSH1 0x20 DUP3 DUP5 SUB SLT ISZERO PUSH2 0x57C JUMPI PUSH2 0x57B PUSH2 0x324 JUMP JUMPDEST JUMPDEST PUSH0 PUSH2 0x589 DUP5 DUP3 DUP6 ADD PUSH2 0x553 JUMP JUMPDEST SWAP2 POP POP SWAP3 SWAP2 POP POP JUMP JUMPDEST PUSH0 DUP2 MLOAD SWAP1 POP SWAP2 SWAP1 POP JUMP JUMPDEST PUSH0 DUP3 DUP3 MSTORE PUSH1 0x20 DUP3 ADD SWAP1 POP SWAP3 SWAP2 POP POP JUMP JUMPDEST DUP3 DUP2 DUP4 MCOPY PUSH0 DUP4 DUP4 ADD MSTORE POP POP POP JUMP JUMPDEST PUSH0 PUSH2 0x5C4 DUP3 PUSH2 0x592 JUMP JUMPDEST PUSH2 0x5CE DUP2 DUP6 PUSH2 0x59C JUMP JUMPDEST SWAP4 POP PUSH2 0x5DE DUP2 DUP6 PUSH1 0x20 DUP7 ADD PUSH2 0x5AC JUMP JUMPDEST PUSH2 0x5E7 DUP2 PUSH2 0x334 JUMP JUMPDEST DUP5 ADD SWAP2 POP POP SWAP3 SWAP2 POP POP JUMP JUMPDEST PUSH0 PUSH1 0x60 DUP3 ADD SWAP1 POP DUP2 DUP2 SUB PUSH0 DUP4 ADD MSTORE PUSH2 0x60A DUP2 DUP7 PUSH2 0x5BA JUMP JUMPDEST SWAP1 POP DUP2 DUP2 SUB PUSH1 0x20 DUP4 ADD MSTORE PUSH2 0x61E DUP2 DUP6 PUSH2 0x5BA JUMP JUMPDEST SWAP1 POP DUP2 DUP2 SUB PUSH1 0x40 DUP4 ADD MSTORE PUSH2 0x632 DUP2 DUP5 PUSH2 0x5BA JUMP JUMPDEST SWAP1 POP SWAP5 SWAP4 POP POP POP POP JUMP JUMPDEST PUSH32 0x4E487B7100000000000000000000000000000000000000000000000000000000 PUSH0 MSTORE PUSH1 0x22 PUSH1 0x4 MSTORE PUSH1 0x24 PUSH0 REVERT JUMPDEST PUSH0 PUSH1 0x2 DUP3 DIV SWAP1 POP PUSH1 0x1 DUP3 AND DUP1 PUSH2 0x680 JUMPI PUSH1 0x7F DUP3 AND SWAP2 POP JUMPDEST PUSH1 0x20 DUP3 LT DUP2 SUB PUSH2 0x693 JUMPI PUSH2 0x692 PUSH2 0x63C JUMP JUMPDEST JUMPDEST POP SWAP2 SWAP1 POP JUMP JUMPDEST PUSH0 DUP2 SWAP1 POP DUP2 PUSH0 MSTORE PUSH1 0x20 PUSH0 KECCAK256 SWAP1 POP SWAP2 SWAP1 POP JUMP JUMPDEST PUSH0 PUSH1 0x20 PUSH1 0x1F DUP4 ADD DIV SWAP1 POP SWAP2 SWAP1 POP JUMP JUMPDEST PUSH0 DUP3 DUP3 SHL SWAP1 POP SWAP3 SWAP2 POP POP JUMP JUMPDEST PUSH0 PUSH1 0x8 DUP4 MUL PUSH2 0x6F5 PUSH32 0xFFFFFFFFFFFFFFFFFFFFFFFFFFFFFFFFFFFFFFFFFFFFFFFFFFFFFFFFFFFFFFFF DUP3 PUSH2 0x6BA JUMP JUMPDEST PUSH2 0x6FF DUP7 DUP4 PUSH2 0x6BA JUMP JUMPDEST SWAP6 POP DUP1 NOT DUP5 AND SWAP4 POP DUP1 DUP7 AND DUP5 OR SWAP3 POP POP POP SWAP4 SWAP3 POP POP POP JUMP JUMPDEST PUSH0 DUP2 SWAP1 POP SWAP2 SWAP1 POP JUMP JUMPDEST PUSH0 PUSH2 0x73A PUSH2 0x735 PUSH2 0x730 DUP5 PUSH2 0x50C JUMP JUMPDEST PUSH2 0x717 JUMP JUMPDEST PUSH2 0x50C JUMP JUMPDEST SWAP1 POP SWAP2 SWAP1 POP JUMP JUMPDEST PUSH0 DUP2 SWAP1 POP SWAP2 SWAP1 POP JUMP JUMPDEST PUSH2 0x753 DUP4 PUSH2 0x720 JUMP JUMPDEST PUSH2 0x767 PUSH2 0x75F DUP3 PUSH2 0x741 JUMP JUMPDEST DUP5 DUP5 SLOAD PUSH2 0x6C6 JUMP JUMPDEST DUP3 SSTORE POP POP POP POP JUMP JUMPDEST PUSH0 SWAP1 JUMP JUMPDEST PUSH2 0x77B PUSH2 0x76F JUMP JUMPDEST PUSH2 0x786 DUP2 DUP5 DUP5 PUSH2 0x74A JUMP JUMPDEST POP POP POP JUMP JUMPDEST JUMPDEST DUP2 DUP2 LT ISZERO PUSH2 0x7A9 JUMPI PUSH2 0x79E PUSH0 DUP3 PUSH2 0x773 JUMP JUMPDEST PUSH1 0x1 DUP2 ADD SWAP1 POP PUSH2 0x78C JUMP JUMPDEST POP POP JUMP JUMPDEST PUSH1 0x1F DUP3 GT ISZERO PUSH2 0x7EE JUMPI PUSH2 0x7BF DUP2 PUSH2 0x699 JUMP JUMPDEST PUSH2 0x7C8 DUP5 PUSH2 0x6AB JUMP JUMPDEST DUP2 ADD PUSH1 0x20 DUP6 LT ISZERO PUSH2 0x7D7 JUMPI DUP2 SWAP1 POP JUMPDEST PUSH2 0x7EB PUSH2 0x7E3 DUP6 PUSH2 0x6AB JUMP JUMPDEST DUP4 ADD DUP3 PUSH2 0x78B JUMP JUMPDEST POP POP JUMPDEST POP POP POP JUMP JUMPDEST PUSH0 DUP3 DUP3 SHR SWAP1 POP SWAP3 SWAP2 POP POP JUMP JUMPDEST PUSH0 PUSH2 0x80E PUSH0 NOT DUP5 PUSH1 0x8 MUL PUSH2 0x7F3 JUMP JUMPDEST NOT DUP1 DUP4 AND SWAP2 POP POP SWAP3 SWAP2 POP POP JUMP JUMPDEST PUSH0 PUSH2 0x826 DUP4 DUP4 PUSH2 0x7FF JUMP JUMPDEST SWAP2 POP DUP3 PUSH1 0x2 MUL DUP3 OR SWAP1 POP SWAP3 SWAP2 POP POP JUMP JUMPDEST PUSH2 0x83F DUP3 PUSH2 0x592 JUMP JUMPDEST PUSH8 0xFFFFFFFFFFFFFFFF DUP2 GT ISZERO PUSH2 0x858 JUMPI PUSH2 0x857 PUSH2 0x344 JUMP JUMPDEST JUMPDEST PUSH2 0x862 DUP3 SLOAD PUSH2 0x669 JUMP JUMPDEST PUSH2 0x86D DUP3 DUP3 DUP6 PUSH2 0x7AD JUMP JUMPDEST PUSH0 PUSH1 0x20 SWAP1 POP PUSH1 0x1F DUP4 GT PUSH1 0x1 DUP2 EQ PUSH2 0x89E JUMPI PUSH0 DUP5 ISZERO PUSH2 0x88C JUMPI DUP3 DUP8 ADD MLOAD SWAP1 POP JUMPDEST PUSH2 0x896 DUP6 DUP3 PUSH2 0x81B JUMP JUMPDEST DUP7 SSTORE POP PUSH2 0x8FD JUMP JUMPDEST PUSH1 0x1F NOT DUP5 AND PUSH2 0x8AC DUP7 PUSH2 0x699 JUMP JUMPDEST PUSH0 JUMPDEST DUP3 DUP2 LT ISZERO PUSH2 0x8D3 JUMPI DUP5 DUP10 ADD MLOAD DUP3 SSTORE PUSH1 0x1 DUP3 ADD SWAP2 POP PUSH1 0x20 DUP6 ADD SWAP5 POP PUSH1 0x20 DUP2 ADD SWAP1 POP PUSH2 0x8AE JUMP JUMPDEST DUP7 DUP4 LT ISZERO PUSH2 0x8F0 JUMPI DUP5 DUP10 ADD MLOAD PUSH2 0x8EC PUSH1 0x1F DUP10 AND DUP3 PUSH2 0x7FF JUMP JUMPDEST DUP4 SSTORE POP JUMPDEST PUSH1 0x1 PUSH1 0x2 DUP9 MUL ADD DUP9 SSTORE POP POP POP JUMPDEST POP POP POP POP POP POP JUMP JUMPDEST PUSH32 0x4E487B7100000000000000000000000000000000000000000000000000000000 PUSH0 MSTORE PUSH1 0x11 PUSH1 0x4 MSTORE PUSH1 0x24 PUSH0 REVERT JUMPDEST PUSH0 PUSH2 0x93C DUP3 PUSH2 0x50C JUMP JUMPDEST SWAP2 POP PUSH32 0xFFFFFFFFFFFFFFFFFFFFFFFFFFFFFFFFFFFFFFFFFFFFFFFFFFFFFFFFFFFFFFFF DUP3 SUB PUSH2 0x96E JUMPI PUSH2 0x96D PUSH2 0x905 JUMP JUMPDEST JUMPDEST PUSH1 0x1 DUP3 ADD SWAP1 POP SWAP2 SWAP1 POP JUMP INVALID LOG2 PUSH5 0x6970667358 0x22 SLT KECCAK256 SSTORE 0xA7 DUP4 0x2A 0xB5 DUP7 0xF GASLIMIT BLOBBASEFEE OR 0xBC PUSH2 0x75B LT 0x22 SGT SWAP16 0xB4 0xC8 PUSH24 0x65153AF06F3375E670668F64736F6C634300081A00330000 "
				},
				"gasEstimates": {
					"creation": {
						"codeDepositCost": "495800",
						"executionCost": "528",
						"totalCost": "496328"
					},
					"external": {
						"addPerson(string,string,string)": "infinite",
						"people(uint256)": "infinite",
						"peopleCount()": "2425"
					}
				},
				"methodIdentifiers": {
					"addPerson(string,string,string)": "0671cc3c",
					"people(uint256)": "9e7a13ad",
					"peopleCount()": "267c68e0"
				}
			},
			"storageLayout": {
				"storage": [
					{
						"astId": 12,
						"contract": "myContractStruct.sol:myContractStruct",
						"label": "people",
						"offset": 0,
						"slot": "0",
						"type": "t_array(t_struct(Person)8_storage)dyn_storage"
					},
					{
						"astId": 14,
						"contract": "myContractStruct.sol:myContractStruct",
						"label": "peopleCount",
						"offset": 0,
						"slot": "1",
						"type": "t_uint256"
					}
				],
				"types": {
					"t_array(t_struct(Person)8_storage)dyn_storage": {
						"base": "t_struct(Person)8_storage",
						"encoding": "dynamic_array",
						"label": "struct myContractStruct.Person[]",
						"numberOfBytes": "32"
					},
					"t_string_storage": {
						"encoding": "bytes",
						"label": "string",
						"numberOfBytes": "32"
					},
					"t_struct(Person)8_storage": {
						"encoding": "inplace",
						"label": "struct myContractStruct.Person",
						"members": [
							{
								"astId": 3,
								"contract": "myContractStruct.sol:myContractStruct",
								"label": "_firstName",
								"offset": 0,
								"slot": "0",
								"type": "t_string_storage"
							},
							{
								"astId": 5,
								"contract": "myContractStruct.sol:myContractStruct",
								"label": "_lastName",
								"offset": 0,
								"slot": "1",
								"type": "t_string_storage"
							},
							{
								"astId": 7,
								"contract": "myContractStruct.sol:myContractStruct",
								"label": "email",
								"offset": 0,
								"slot": "2",
								"type": "t_string_storage"
							}
						],
						"numberOfBytes": "96"
					},
					"t_uint256": {
						"encoding": "inplace",
						"label": "uint256",
						"numberOfBytes": "32"
					}
				}
			},
			"userdoc": {
				"kind": "user",
				"methods": {},
				"version": 1
			}
		}
	}
}