{
	"UserManager.sol": {
		"UserManager": {
			"abi": [
				{
					"anonymous": false,
					"inputs": [
						{
							"indexed": true,
							"internalType": "address",
							"name": "userAddress",
							"type": "address"
						},
						{
							"indexed": false,
							"internalType": "string",
							"name": "name",
							"type": "string"
						},
						{
							"indexed": false,
							"internalType": "uint256",
							"name": "age",
							"type": "uint256"
						},
						{
							"indexed": false,
							"internalType": "string",
							"name": "email",
							"type": "string"
						}
					],
					"name": "UserRegistered",
					"type": "event"
				},
				{
					"inputs": [
						{
							"internalType": "address",
							"name": "_userAddress",
							"type": "address"
						}
					],
					"name": "getUserDetails",
					"outputs": [
						{
							"internalType": "string",
							"name": "",
							"type": "string"
						},
						{
							"internalType": "uint256",
							"name": "",
							"type": "uint256"
						},
						{
							"internalType": "string",
							"name": "",
							"type": "string"
						},
						{
							"internalType": "bool",
							"name": "",
							"type": "bool"
						}
					],
					"stateMutability": "view",
					"type": "function"
				},
				{
					"inputs": [
						{
							"internalType": "string",
							"name": "_name",
							"type": "string"
						},
						{
							"internalType": "uint256",
							"name": "_age",
							"type": "uint256"
						},
						{
							"internalType": "string",
							"name": "_email",
							"type": "string"
						}
					],
					"name": "registerUser",
					"outputs": [],
					"stateMutability": "nonpayable",
					"type": "function"
				},
				{
					"inputs": [
						{
							"internalType": "address",
							"name": "",
							"type": "address"
						}
					],
					"name": "users",
					"outputs": [
						{
							"internalType": "string",
							"name": "name",
							"type": "string"
						},
						{
							"internalType": "uint256",
							"name": "age",
							"type": "uint256"
						},
						{
							"internalType": "string",
							"name": "email",
							"type": "string"
						},
						{
							"internalType": "bool",
							"name": "isRegistered",
							"type": "bool"
						}
					],
					"stateMutability": "view",
					"type": "function"
				}
			],
			"devdoc": {
				"kind": "dev",
				"methods": {},
				"version": 1
			},
			"evm": {
				"assembly": "    /* \"UserManager.sol\":60:1453  contract UserManager {... */\n  mstore(0x40, 0x80)\n  callvalue\n  dup1\n  iszero\n  tag_1\n  jumpi\n  0x00\n  dup1\n  revert\ntag_1:\n  pop\n  dataSize(sub_0)\n  dup1\n  dataOffset(sub_0)\n  0x00\n  codecopy\n  0x00\n  return\nstop\n\nsub_0: assembly {\n        /* \"UserManager.sol\":60:1453  contract UserManager {... */\n      mstore(0x40, 0x80)\n      callvalue\n      dup1\n      iszero\n      tag_1\n      jumpi\n      0x00\n      dup1\n      revert\n    tag_1:\n      pop\n      jumpi(tag_2, lt(calldatasize, 0x04))\n      shr(0xe0, calldataload(0x00))\n      dup1\n      0x62609da4\n      eq\n      tag_3\n      jumpi\n      dup1\n      0xa87430ba\n      eq\n      tag_4\n      jumpi\n      dup1\n      0xcc3d967b\n      eq\n      tag_5\n      jumpi\n    tag_2:\n      0x00\n      dup1\n      revert\n        /* \"UserManager.sol\":524:1051  function registerUser(string memory _name, uint _age, string memory _email) public {... */\n    tag_3:\n      tag_6\n      0x04\n      dup1\n      calldatasize\n      sub\n      dup2\n      add\n      swap1\n      tag_7\n      swap2\n      swap1\n      tag_8\n      jump\t// in\n    tag_7:\n      tag_9\n      jump\t// in\n    tag_6:\n      stop\n        /* \"UserManager.sol\":292:329  mapping(address => User) public users */\n    tag_4:\n      tag_10\n      0x04\n      dup1\n      calldatasize\n      sub\n      dup2\n      add\n      swap1\n      tag_11\n      swap2\n      swap1\n      tag_12\n      jump\t// in\n    tag_11:\n      tag_13\n      jump\t// in\n    tag_10:\n      mload(0x40)\n      tag_14\n      swap5\n      swap4\n      swap3\n      swap2\n      swap1\n      tag_15\n      jump\t// in\n    tag_14:\n      mload(0x40)\n      dup1\n      swap2\n      sub\n      swap1\n      return\n        /* \"UserManager.sol\":1119:1450  function getUserDetails(address _userAddress) public view returns (string memory, uint, string memory, bool) {... */\n    tag_5:\n      tag_16\n      0x04\n      dup1\n      calldatasize\n      sub\n      dup2\n      add\n      swap1\n      tag_17\n      swap2\n      swap1\n      tag_12\n      jump\t// in\n    tag_17:\n      tag_18\n      jump\t// in\n    tag_16:\n      mload(0x40)\n      tag_19\n      swap5\n      swap4\n      swap3\n      swap2\n      swap1\n      tag_15\n      jump\t// in\n    tag_19:\n      mload(0x40)\n      dup1\n      swap2\n      sub\n      swap1\n      return\n        /* \"UserManager.sol\":524:1051  function registerUser(string memory _name, uint _age, string memory _email) public {... */\n    tag_9:\n        /* \"UserManager.sol\":679:684  users */\n      0x00\n        /* \"UserManager.sol\":679:696  users[msg.sender] */\n      dup1\n        /* \"UserManager.sol\":685:695  msg.sender */\n      caller\n        /* \"UserManager.sol\":679:696  users[msg.sender] */\n      0xffffffffffffffffffffffffffffffffffffffff\n      and\n      0xffffffffffffffffffffffffffffffffffffffff\n      and\n      dup2\n      mstore\n      0x20\n      add\n      swap1\n      dup2\n      mstore\n      0x20\n      add\n      0x00\n      keccak256\n        /* \"UserManager.sol\":679:709  users[msg.sender].isRegistered */\n      0x03\n      add\n      0x00\n      swap1\n      sload\n      swap1\n      0x0100\n      exp\n      swap1\n      div\n      0xff\n      and\n        /* \"UserManager.sol\":678:709  !users[msg.sender].isRegistered */\n      iszero\n        /* \"UserManager.sol\":670:741  require(!users[msg.sender].isRegistered, \"User is already registered.\") */\n      tag_21\n      jumpi\n      mload(0x40)\n      0x08c379a000000000000000000000000000000000000000000000000000000000\n      dup2\n      mstore\n      0x04\n      add\n      tag_22\n      swap1\n      tag_23\n      jump\t// in\n    tag_22:\n      mload(0x40)\n      dup1\n      swap2\n      sub\n      swap1\n      revert\n    tag_21:\n        /* \"UserManager.sol\":808:936  User({... */\n      mload(0x40)\n      dup1\n      0x80\n      add\n      0x40\n      mstore\n      dup1\n        /* \"UserManager.sol\":834:839  _name */\n      dup5\n        /* \"UserManager.sol\":808:936  User({... */\n      dup2\n      mstore\n      0x20\n      add\n        /* \"UserManager.sol\":859:863  _age */\n      dup4\n        /* \"UserManager.sol\":808:936  User({... */\n      dup2\n      mstore\n      0x20\n      add\n        /* \"UserManager.sol\":885:891  _email */\n      dup3\n        /* \"UserManager.sol\":808:936  User({... */\n      dup2\n      mstore\n      0x20\n      add\n        /* \"UserManager.sol\":920:924  true */\n      0x01\n        /* \"UserManager.sol\":808:936  User({... */\n      iszero\n      iszero\n      dup2\n      mstore\n      pop\n        /* \"UserManager.sol\":788:793  users */\n      0x00\n        /* \"UserManager.sol\":788:805  users[msg.sender] */\n      dup1\n        /* \"UserManager.sol\":794:804  msg.sender */\n      caller\n        /* \"UserManager.sol\":788:805  users[msg.sender] */\n      0xffffffffffffffffffffffffffffffffffffffff\n      and\n      0xffffffffffffffffffffffffffffffffffffffff\n      and\n      dup2\n      mstore\n      0x20\n      add\n      swap1\n      dup2\n      mstore\n      0x20\n      add\n      0x00\n      keccak256\n        /* \"UserManager.sol\":788:936  users[msg.sender] = User({... */\n      0x00\n      dup3\n      add\n      mload\n      dup2\n      0x00\n      add\n      swap1\n      dup2\n      tag_24\n      swap2\n      swap1\n      tag_25\n      jump\t// in\n    tag_24:\n      pop\n      0x20\n      dup3\n      add\n      mload\n      dup2\n      0x01\n      add\n      sstore\n      0x40\n      dup3\n      add\n      mload\n      dup2\n      0x02\n      add\n      swap1\n      dup2\n      tag_26\n      swap2\n      swap1\n      tag_25\n      jump\t// in\n    tag_26:\n      pop\n      0x60\n      dup3\n      add\n      mload\n      dup2\n      0x03\n      add\n      exp(0x0100, 0x00)\n      dup2\n      sload\n      dup2\n      0xff\n      mul\n      not\n      and\n      swap1\n      dup4\n      iszero\n      iszero\n      mul\n      or\n      swap1\n      sstore\n      pop\n      swap1\n      pop\n      pop\n        /* \"UserManager.sol\":1011:1021  msg.sender */\n      caller\n        /* \"UserManager.sol\":996:1043  UserRegistered(msg.sender, _name, _age, _email) */\n      0xffffffffffffffffffffffffffffffffffffffff\n      and\n      0x25c5affa34344dea3129dd47c6b07e8086cf2ba6acec6b75f5221fb9a8130a55\n        /* \"UserManager.sol\":1023:1028  _name */\n      dup5\n        /* \"UserManager.sol\":1030:1034  _age */\n      dup5\n        /* \"UserManager.sol\":1036:1042  _email */\n      dup5\n        /* \"UserManager.sol\":996:1043  UserRegistered(msg.sender, _name, _age, _email) */\n      mload(0x40)\n      tag_27\n      swap4\n      swap3\n      swap2\n      swap1\n      tag_28\n      jump\t// in\n    tag_27:\n      mload(0x40)\n      dup1\n      swap2\n      sub\n      swap1\n      log2\n        /* \"UserManager.sol\":524:1051  function registerUser(string memory _name, uint _age, string memory _email) public {... */\n      pop\n      pop\n      pop\n      jump\t// out\n        /* \"UserManager.sol\":292:329  mapping(address => User) public users */\n    tag_13:\n      mstore(0x20, 0x00)\n      dup1\n      0x00\n      mstore\n      keccak256(0x00, 0x40)\n      0x00\n      swap2\n      pop\n      swap1\n      pop\n      dup1\n      0x00\n      add\n      dup1\n      sload\n      tag_29\n      swap1\n      tag_30\n      jump\t// in\n    tag_29:\n      dup1\n      0x1f\n      add\n      0x20\n      dup1\n      swap2\n      div\n      mul\n      0x20\n      add\n      mload(0x40)\n      swap1\n      dup2\n      add\n      0x40\n      mstore\n      dup1\n      swap3\n      swap2\n      swap1\n      dup2\n      dup2\n      mstore\n      0x20\n      add\n      dup3\n      dup1\n      sload\n      tag_31\n      swap1\n      tag_30\n      jump\t// in\n    tag_31:\n      dup1\n      iszero\n      tag_32\n      jumpi\n      dup1\n      0x1f\n      lt\n      tag_33\n      jumpi\n      0x0100\n      dup1\n      dup4\n      sload\n      div\n      mul\n      dup4\n      mstore\n      swap2\n      0x20\n      add\n      swap2\n      jump(tag_32)\n    tag_33:\n      dup3\n      add\n      swap2\n      swap1\n      0x00\n      mstore\n      keccak256(0x00, 0x20)\n      swap1\n    tag_34:\n      dup2\n      sload\n      dup2\n      mstore\n      swap1\n      0x01\n      add\n      swap1\n      0x20\n      add\n      dup1\n      dup4\n      gt\n      tag_34\n      jumpi\n      dup3\n      swap1\n      sub\n      0x1f\n      and\n      dup3\n      add\n      swap2\n    tag_32:\n      pop\n      pop\n      pop\n      pop\n      pop\n      swap1\n      dup1\n      0x01\n      add\n      sload\n      swap1\n      dup1\n      0x02\n      add\n      dup1\n      sload\n      tag_35\n      swap1\n      tag_30\n      jump\t// in\n    tag_35:\n      dup1\n      0x1f\n      add\n      0x20\n      dup1\n      swap2\n      div\n      mul\n      0x20\n      add\n      mload(0x40)\n      swap1\n      dup2\n      add\n      0x40\n      mstore\n      dup1\n      swap3\n      swap2\n      swap1\n      dup2\n      dup2\n      mstore\n      0x20\n      add\n      dup3\n      dup1\n      sload\n      tag_36\n      swap1\n      tag_30\n      jump\t// in\n    tag_36:\n      dup1\n      iszero\n      tag_37\n      jumpi\n      dup1\n      0x1f\n      lt\n      tag_38\n      jumpi\n      0x0100\n      dup1\n      dup4\n      sload\n      div\n      mul\n      dup4\n      mstore\n      swap2\n      0x20\n      add\n      swap2\n      jump(tag_37)\n    tag_38:\n      dup3\n      add\n      swap2\n      swap1\n      0x00\n      mstore\n      keccak256(0x00, 0x20)\n      swap1\n    tag_39:\n      dup2\n      sload\n      dup2\n      mstore\n      swap1\n      0x01\n      add\n      swap1\n      0x20\n      add\n      dup1\n      dup4\n      gt\n      tag_39\n      jumpi\n      dup3\n      swap1\n      sub\n      0x1f\n      and\n      dup3\n      add\n      swap2\n    tag_37:\n      pop\n      pop\n      pop\n      pop\n      pop\n      swap1\n      dup1\n      0x03\n      add\n      0x00\n      swap1\n      sload\n      swap1\n      0x0100\n      exp\n      swap1\n      div\n      0xff\n      and\n      swap1\n      pop\n      dup5\n      jump\t// out\n        /* \"UserManager.sol\":1119:1450  function getUserDetails(address _userAddress) public view returns (string memory, uint, string memory, bool) {... */\n    tag_18:\n        /* \"UserManager.sol\":1186:1199  string memory */\n      0x60\n        /* \"UserManager.sol\":1201:1205  uint */\n      0x00\n        /* \"UserManager.sol\":1207:1220  string memory */\n      0x60\n        /* \"UserManager.sol\":1222:1226  bool */\n      0x00\n        /* \"UserManager.sol\":1294:1310  User memory user */\n      dup1\n        /* \"UserManager.sol\":1313:1318  users */\n      0x00\n        /* \"UserManager.sol\":1313:1332  users[_userAddress] */\n      dup1\n        /* \"UserManager.sol\":1319:1331  _userAddress */\n      dup8\n        /* \"UserManager.sol\":1313:1332  users[_userAddress] */\n      0xffffffffffffffffffffffffffffffffffffffff\n      and\n      0xffffffffffffffffffffffffffffffffffffffff\n      and\n      dup2\n      mstore\n      0x20\n      add\n      swap1\n      dup2\n      mstore\n      0x20\n      add\n      0x00\n      keccak256\n        /* \"UserManager.sol\":1294:1332  User memory user = users[_userAddress] */\n      mload(0x40)\n      dup1\n      0x80\n      add\n      0x40\n      mstore\n      swap1\n      dup2\n      0x00\n      dup3\n      add\n      dup1\n      sload\n      tag_41\n      swap1\n      tag_30\n      jump\t// in\n    tag_41:\n      dup1\n      0x1f\n      add\n      0x20\n      dup1\n      swap2\n      div\n      mul\n      0x20\n      add\n      mload(0x40)\n      swap1\n      dup2\n      add\n      0x40\n      mstore\n      dup1\n      swap3\n      swap2\n      swap1\n      dup2\n      dup2\n      mstore\n      0x20\n      add\n      dup3\n      dup1\n      sload\n      tag_42\n      swap1\n      tag_30\n      jump\t// in\n    tag_42:\n      dup1\n      iszero\n      tag_43\n      jumpi\n      dup1\n      0x1f\n      lt\n      tag_44\n      jumpi\n      0x0100\n      dup1\n      dup4\n      sload\n      div\n      mul\n      dup4\n      mstore\n      swap2\n      0x20\n      add\n      swap2\n      jump(tag_43)\n    tag_44:\n      dup3\n      add\n      swap2\n      swap1\n      0x00\n      mstore\n      keccak256(0x00, 0x20)\n      swap1\n    tag_45:\n      dup2\n      sload\n      dup2\n      mstore\n      swap1\n      0x01\n      add\n      swap1\n      0x20\n      add\n      dup1\n      dup4\n      gt\n      tag_45\n      jumpi\n      dup3\n      swap1\n      sub\n      0x1f\n      and\n      dup3\n      add\n      swap2\n    tag_43:\n      pop\n      pop\n      pop\n      pop\n      pop\n      dup2\n      mstore\n      0x20\n      add\n      0x01\n      dup3\n      add\n      sload\n      dup2\n      mstore\n      0x20\n      add\n      0x02\n      dup3\n      add\n      dup1\n      sload\n      tag_46\n      swap1\n      tag_30\n      jump\t// in\n    tag_46:\n      dup1\n      0x1f\n      add\n      0x20\n      dup1\n      swap2\n      div\n      mul\n      0x20\n      add\n      mload(0x40)\n      swap1\n      dup2\n      add\n      0x40\n      mstore\n      dup1\n      swap3\n      swap2\n      swap1\n      dup2\n      dup2\n      mstore\n      0x20\n      add\n      dup3\n      dup1\n      sload\n      tag_47\n      swap1\n      tag_30\n      jump\t// in\n    tag_47:\n      dup1\n      iszero\n      tag_48\n      jumpi\n      dup1\n      0x1f\n      lt\n      tag_49\n      jumpi\n      0x0100\n      dup1\n      dup4\n      sload\n      div\n      mul\n      dup4\n      mstore\n      swap2\n      0x20\n      add\n      swap2\n      jump(tag_48)\n    tag_49:\n      dup3\n      add\n      swap2\n      swap1\n      0x00\n      mstore\n      keccak256(0x00, 0x20)\n      swap1\n    tag_50:\n      dup2\n      sload\n      dup2\n      mstore\n      swap1\n      0x01\n      add\n      swap1\n      0x20\n      add\n      dup1\n      dup4\n      gt\n      tag_50\n      jumpi\n      dup3\n      swap1\n      sub\n      0x1f\n      and\n      dup3\n      add\n      swap2\n    tag_48:\n      pop\n      pop\n      pop\n      pop\n      pop\n      dup2\n      mstore\n      0x20\n      add\n      0x03\n      dup3\n      add\n      0x00\n      swap1\n      sload\n      swap1\n      0x0100\n      exp\n      swap1\n      div\n      0xff\n      and\n      iszero\n      iszero\n      iszero\n      iszero\n      dup2\n      mstore\n      pop\n      pop\n      swap1\n      pop\n        /* \"UserManager.sol\":1391:1395  user */\n      dup1\n        /* \"UserManager.sol\":1391:1400  user.name */\n      0x00\n      add\n      mload\n        /* \"UserManager.sol\":1402:1406  user */\n      dup2\n        /* \"UserManager.sol\":1402:1410  user.age */\n      0x20\n      add\n      mload\n        /* \"UserManager.sol\":1412:1416  user */\n      dup3\n        /* \"UserManager.sol\":1412:1422  user.email */\n      0x40\n      add\n      mload\n        /* \"UserManager.sol\":1424:1428  user */\n      dup4\n        /* \"UserManager.sol\":1424:1441  user.isRegistered */\n      0x60\n      add\n      mload\n        /* \"UserManager.sol\":1383:1442  return (user.name, user.age, user.email, user.isRegistered) */\n      swap5\n      pop\n      swap5\n      pop\n      swap5\n      pop\n      swap5\n      pop\n      pop\n        /* \"UserManager.sol\":1119:1450  function getUserDetails(address _userAddress) public view returns (string memory, uint, string memory, bool) {... */\n      swap2\n      swap4\n      pop\n      swap2\n      swap4\n      jump\t// out\n        /* \"#utility.yul\":7:82   */\n    tag_51:\n        /* \"#utility.yul\":40:46   */\n      0x00\n        /* \"#utility.yul\":73:75   */\n      0x40\n        /* \"#utility.yul\":67:76   */\n      mload\n        /* \"#utility.yul\":57:76   */\n      swap1\n      pop\n        /* \"#utility.yul\":7:82   */\n      swap1\n      jump\t// out\n        /* \"#utility.yul\":88:205   */\n    tag_52:\n        /* \"#utility.yul\":197:198   */\n      0x00\n        /* \"#utility.yul\":194:195   */\n      dup1\n        /* \"#utility.yul\":187:199   */\n      revert\n        /* \"#utility.yul\":211:328   */\n    tag_53:\n        /* \"#utility.yul\":320:321   */\n      0x00\n        /* \"#utility.yul\":317:318   */\n      dup1\n        /* \"#utility.yul\":310:322   */\n      revert\n        /* \"#utility.yul\":334:451   */\n    tag_54:\n        /* \"#utility.yul\":443:444   */\n      0x00\n        /* \"#utility.yul\":440:441   */\n      dup1\n        /* \"#utility.yul\":433:445   */\n      revert\n        /* \"#utility.yul\":457:574   */\n    tag_55:\n        /* \"#utility.yul\":566:567   */\n      0x00\n        /* \"#utility.yul\":563:564   */\n      dup1\n        /* \"#utility.yul\":556:568   */\n      revert\n        /* \"#utility.yul\":580:682   */\n    tag_56:\n        /* \"#utility.yul\":621:627   */\n      0x00\n        /* \"#utility.yul\":672:674   */\n      0x1f\n        /* \"#utility.yul\":668:675   */\n      not\n        /* \"#utility.yul\":663:665   */\n      0x1f\n        /* \"#utility.yul\":656:661   */\n      dup4\n        /* \"#utility.yul\":652:666   */\n      add\n        /* \"#utility.yul\":648:676   */\n      and\n        /* \"#utility.yul\":638:676   */\n      swap1\n      pop\n        /* \"#utility.yul\":580:682   */\n      swap2\n      swap1\n      pop\n      jump\t// out\n        /* \"#utility.yul\":688:868   */\n    tag_57:\n        /* \"#utility.yul\":736:813   */\n      0x4e487b7100000000000000000000000000000000000000000000000000000000\n        /* \"#utility.yul\":733:734   */\n      0x00\n        /* \"#utility.yul\":726:814   */\n      mstore\n        /* \"#utility.yul\":833:837   */\n      0x41\n        /* \"#utility.yul\":830:831   */\n      0x04\n        /* \"#utility.yul\":823:838   */\n      mstore\n        /* \"#utility.yul\":857:861   */\n      0x24\n        /* \"#utility.yul\":854:855   */\n      0x00\n        /* \"#utility.yul\":847:862   */\n      revert\n        /* \"#utility.yul\":874:1155   */\n    tag_58:\n        /* \"#utility.yul\":957:984   */\n      tag_105\n        /* \"#utility.yul\":979:983   */\n      dup3\n        /* \"#utility.yul\":957:984   */\n      tag_56\n      jump\t// in\n    tag_105:\n        /* \"#utility.yul\":949:955   */\n      dup2\n        /* \"#utility.yul\":945:985   */\n      add\n        /* \"#utility.yul\":1087:1093   */\n      dup2\n        /* \"#utility.yul\":1075:1085   */\n      dup2\n        /* \"#utility.yul\":1072:1094   */\n      lt\n        /* \"#utility.yul\":1051:1069   */\n      0xffffffffffffffff\n        /* \"#utility.yul\":1039:1049   */\n      dup3\n        /* \"#utility.yul\":1036:1070   */\n      gt\n        /* \"#utility.yul\":1033:1095   */\n      or\n        /* \"#utility.yul\":1030:1118   */\n      iszero\n      tag_106\n      jumpi\n        /* \"#utility.yul\":1098:1116   */\n      tag_107\n      tag_57\n      jump\t// in\n    tag_107:\n        /* \"#utility.yul\":1030:1118   */\n    tag_106:\n        /* \"#utility.yul\":1138:1148   */\n      dup1\n        /* \"#utility.yul\":1134:1136   */\n      0x40\n        /* \"#utility.yul\":1127:1149   */\n      mstore\n        /* \"#utility.yul\":917:1155   */\n      pop\n        /* \"#utility.yul\":874:1155   */\n      pop\n      pop\n      jump\t// out\n        /* \"#utility.yul\":1161:1290   */\n    tag_59:\n        /* \"#utility.yul\":1195:1201   */\n      0x00\n        /* \"#utility.yul\":1222:1242   */\n      tag_109\n      tag_51\n      jump\t// in\n    tag_109:\n        /* \"#utility.yul\":1212:1242   */\n      swap1\n      pop\n        /* \"#utility.yul\":1251:1284   */\n      tag_110\n        /* \"#utility.yul\":1279:1283   */\n      dup3\n        /* \"#utility.yul\":1271:1277   */\n      dup3\n        /* \"#utility.yul\":1251:1284   */\n      tag_58\n      jump\t// in\n    tag_110:\n        /* \"#utility.yul\":1161:1290   */\n      swap2\n      swap1\n      pop\n      jump\t// out\n        /* \"#utility.yul\":1296:1604   */\n    tag_60:\n        /* \"#utility.yul\":1358:1362   */\n      0x00\n        /* \"#utility.yul\":1448:1466   */\n      0xffffffffffffffff\n        /* \"#utility.yul\":1440:1446   */\n      dup3\n        /* \"#utility.yul\":1437:1467   */\n      gt\n        /* \"#utility.yul\":1434:1490   */\n      iszero\n      tag_112\n      jumpi\n        /* \"#utility.yul\":1470:1488   */\n      tag_113\n      tag_57\n      jump\t// in\n    tag_113:\n        /* \"#utility.yul\":1434:1490   */\n    tag_112:\n        /* \"#utility.yul\":1508:1537   */\n      tag_114\n        /* \"#utility.yul\":1530:1536   */\n      dup3\n        /* \"#utility.yul\":1508:1537   */\n      tag_56\n      jump\t// in\n    tag_114:\n        /* \"#utility.yul\":1500:1537   */\n      swap1\n      pop\n        /* \"#utility.yul\":1592:1596   */\n      0x20\n        /* \"#utility.yul\":1586:1590   */\n      dup2\n        /* \"#utility.yul\":1582:1597   */\n      add\n        /* \"#utility.yul\":1574:1597   */\n      swap1\n      pop\n        /* \"#utility.yul\":1296:1604   */\n      swap2\n      swap1\n      pop\n      jump\t// out\n        /* \"#utility.yul\":1610:1758   */\n    tag_61:\n        /* \"#utility.yul\":1708:1714   */\n      dup3\n        /* \"#utility.yul\":1703:1706   */\n      dup2\n        /* \"#utility.yul\":1698:1701   */\n      dup4\n        /* \"#utility.yul\":1685:1715   */\n      calldatacopy\n        /* \"#utility.yul\":1749:1750   */\n      0x00\n        /* \"#utility.yul\":1740:1746   */\n      dup4\n        /* \"#utility.yul\":1735:1738   */\n      dup4\n        /* \"#utility.yul\":1731:1747   */\n      add\n        /* \"#utility.yul\":1724:1751   */\n      mstore\n        /* \"#utility.yul\":1610:1758   */\n      pop\n      pop\n      pop\n      jump\t// out\n        /* \"#utility.yul\":1764:2189   */\n    tag_62:\n        /* \"#utility.yul\":1842:1847   */\n      0x00\n        /* \"#utility.yul\":1867:1933   */\n      tag_117\n        /* \"#utility.yul\":1883:1932   */\n      tag_118\n        /* \"#utility.yul\":1925:1931   */\n      dup5\n        /* \"#utility.yul\":1883:1932   */\n      tag_60\n      jump\t// in\n    tag_118:\n        /* \"#utility.yul\":1867:1933   */\n      tag_59\n      jump\t// in\n    tag_117:\n        /* \"#utility.yul\":1858:1933   */\n      swap1\n      pop\n        /* \"#utility.yul\":1956:1962   */\n      dup3\n        /* \"#utility.yul\":1949:1954   */\n      dup2\n        /* \"#utility.yul\":1942:1963   */\n      mstore\n        /* \"#utility.yul\":1994:1998   */\n      0x20\n        /* \"#utility.yul\":1987:1992   */\n      dup2\n        /* \"#utility.yul\":1983:1999   */\n      add\n        /* \"#utility.yul\":2032:2035   */\n      dup5\n        /* \"#utility.yul\":2023:2029   */\n      dup5\n        /* \"#utility.yul\":2018:2021   */\n      dup5\n        /* \"#utility.yul\":2014:2030   */\n      add\n        /* \"#utility.yul\":2011:2036   */\n      gt\n        /* \"#utility.yul\":2008:2120   */\n      iszero\n      tag_119\n      jumpi\n        /* \"#utility.yul\":2039:2118   */\n      tag_120\n      tag_55\n      jump\t// in\n    tag_120:\n        /* \"#utility.yul\":2008:2120   */\n    tag_119:\n        /* \"#utility.yul\":2129:2183   */\n      tag_121\n        /* \"#utility.yul\":2176:2182   */\n      dup5\n        /* \"#utility.yul\":2171:2174   */\n      dup3\n        /* \"#utility.yul\":2166:2169   */\n      dup6\n        /* \"#utility.yul\":2129:2183   */\n      tag_61\n      jump\t// in\n    tag_121:\n        /* \"#utility.yul\":1848:2189   */\n      pop\n        /* \"#utility.yul\":1764:2189   */\n      swap4\n      swap3\n      pop\n      pop\n      pop\n      jump\t// out\n        /* \"#utility.yul\":2209:2549   */\n    tag_63:\n        /* \"#utility.yul\":2265:2270   */\n      0x00\n        /* \"#utility.yul\":2314:2317   */\n      dup3\n        /* \"#utility.yul\":2307:2311   */\n      0x1f\n        /* \"#utility.yul\":2299:2305   */\n      dup4\n        /* \"#utility.yul\":2295:2312   */\n      add\n        /* \"#utility.yul\":2291:2318   */\n      slt\n        /* \"#utility.yul\":2281:2403   */\n      tag_123\n      jumpi\n        /* \"#utility.yul\":2322:2401   */\n      tag_124\n      tag_54\n      jump\t// in\n    tag_124:\n        /* \"#utility.yul\":2281:2403   */\n    tag_123:\n        /* \"#utility.yul\":2439:2445   */\n      dup2\n        /* \"#utility.yul\":2426:2446   */\n      calldataload\n        /* \"#utility.yul\":2464:2543   */\n      tag_125\n        /* \"#utility.yul\":2539:2542   */\n      dup5\n        /* \"#utility.yul\":2531:2537   */\n      dup3\n        /* \"#utility.yul\":2524:2528   */\n      0x20\n        /* \"#utility.yul\":2516:2522   */\n      dup7\n        /* \"#utility.yul\":2512:2529   */\n      add\n        /* \"#utility.yul\":2464:2543   */\n      tag_62\n      jump\t// in\n    tag_125:\n        /* \"#utility.yul\":2455:2543   */\n      swap2\n      pop\n        /* \"#utility.yul\":2271:2549   */\n      pop\n        /* \"#utility.yul\":2209:2549   */\n      swap3\n      swap2\n      pop\n      pop\n      jump\t// out\n        /* \"#utility.yul\":2555:2632   */\n    tag_64:\n        /* \"#utility.yul\":2592:2599   */\n      0x00\n        /* \"#utility.yul\":2621:2626   */\n      dup2\n        /* \"#utility.yul\":2610:2626   */\n      swap1\n      pop\n        /* \"#utility.yul\":2555:2632   */\n      swap2\n      swap1\n      pop\n      jump\t// out\n        /* \"#utility.yul\":2638:2760   */\n    tag_65:\n        /* \"#utility.yul\":2711:2735   */\n      tag_128\n        /* \"#utility.yul\":2729:2734   */\n      dup2\n        /* \"#utility.yul\":2711:2735   */\n      tag_64\n      jump\t// in\n    tag_128:\n        /* \"#utility.yul\":2704:2709   */\n      dup2\n        /* \"#utility.yul\":2701:2736   */\n      eq\n        /* \"#utility.yul\":2691:2754   */\n      tag_129\n      jumpi\n        /* \"#utility.yul\":2750:2751   */\n      0x00\n        /* \"#utility.yul\":2747:2748   */\n      dup1\n        /* \"#utility.yul\":2740:2752   */\n      revert\n        /* \"#utility.yul\":2691:2754   */\n    tag_129:\n        /* \"#utility.yul\":2638:2760   */\n      pop\n      jump\t// out\n        /* \"#utility.yul\":2766:2905   */\n    tag_66:\n        /* \"#utility.yul\":2812:2817   */\n      0x00\n        /* \"#utility.yul\":2850:2856   */\n      dup2\n        /* \"#utility.yul\":2837:2857   */\n      calldataload\n        /* \"#utility.yul\":2828:2857   */\n      swap1\n      pop\n        /* \"#utility.yul\":2866:2899   */\n      tag_131\n        /* \"#utility.yul\":2893:2898   */\n      dup2\n        /* \"#utility.yul\":2866:2899   */\n      tag_65\n      jump\t// in\n    tag_131:\n        /* \"#utility.yul\":2766:2905   */\n      swap3\n      swap2\n      pop\n      pop\n      jump\t// out\n        /* \"#utility.yul\":2911:3890   */\n    tag_8:\n        /* \"#utility.yul\":3008:3014   */\n      0x00\n        /* \"#utility.yul\":3016:3022   */\n      dup1\n        /* \"#utility.yul\":3024:3030   */\n      0x00\n        /* \"#utility.yul\":3073:3075   */\n      0x60\n        /* \"#utility.yul\":3061:3070   */\n      dup5\n        /* \"#utility.yul\":3052:3059   */\n      dup7\n        /* \"#utility.yul\":3048:3071   */\n      sub\n        /* \"#utility.yul\":3044:3076   */\n      slt\n        /* \"#utility.yul\":3041:3160   */\n      iszero\n      tag_133\n      jumpi\n        /* \"#utility.yul\":3079:3158   */\n      tag_134\n      tag_52\n      jump\t// in\n    tag_134:\n        /* \"#utility.yul\":3041:3160   */\n    tag_133:\n        /* \"#utility.yul\":3227:3228   */\n      0x00\n        /* \"#utility.yul\":3216:3225   */\n      dup5\n        /* \"#utility.yul\":3212:3229   */\n      add\n        /* \"#utility.yul\":3199:3230   */\n      calldataload\n        /* \"#utility.yul\":3257:3275   */\n      0xffffffffffffffff\n        /* \"#utility.yul\":3249:3255   */\n      dup2\n        /* \"#utility.yul\":3246:3276   */\n      gt\n        /* \"#utility.yul\":3243:3360   */\n      iszero\n      tag_135\n      jumpi\n        /* \"#utility.yul\":3279:3358   */\n      tag_136\n      tag_53\n      jump\t// in\n    tag_136:\n        /* \"#utility.yul\":3243:3360   */\n    tag_135:\n        /* \"#utility.yul\":3384:3447   */\n      tag_137\n        /* \"#utility.yul\":3439:3446   */\n      dup7\n        /* \"#utility.yul\":3430:3436   */\n      dup3\n        /* \"#utility.yul\":3419:3428   */\n      dup8\n        /* \"#utility.yul\":3415:3437   */\n      add\n        /* \"#utility.yul\":3384:3447   */\n      tag_63\n      jump\t// in\n    tag_137:\n        /* \"#utility.yul\":3374:3447   */\n      swap4\n      pop\n        /* \"#utility.yul\":3170:3457   */\n      pop\n        /* \"#utility.yul\":3496:3498   */\n      0x20\n        /* \"#utility.yul\":3522:3575   */\n      tag_138\n        /* \"#utility.yul\":3567:3574   */\n      dup7\n        /* \"#utility.yul\":3558:3564   */\n      dup3\n        /* \"#utility.yul\":3547:3556   */\n      dup8\n        /* \"#utility.yul\":3543:3565   */\n      add\n        /* \"#utility.yul\":3522:3575   */\n      tag_66\n      jump\t// in\n    tag_138:\n        /* \"#utility.yul\":3512:3575   */\n      swap3\n      pop\n        /* \"#utility.yul\":3467:3585   */\n      pop\n        /* \"#utility.yul\":3652:3654   */\n      0x40\n        /* \"#utility.yul\":3641:3650   */\n      dup5\n        /* \"#utility.yul\":3637:3655   */\n      add\n        /* \"#utility.yul\":3624:3656   */\n      calldataload\n        /* \"#utility.yul\":3683:3701   */\n      0xffffffffffffffff\n        /* \"#utility.yul\":3675:3681   */\n      dup2\n        /* \"#utility.yul\":3672:3702   */\n      gt\n        /* \"#utility.yul\":3669:3786   */\n      iszero\n      tag_139\n      jumpi\n        /* \"#utility.yul\":3705:3784   */\n      tag_140\n      tag_53\n      jump\t// in\n    tag_140:\n        /* \"#utility.yul\":3669:3786   */\n    tag_139:\n        /* \"#utility.yul\":3810:3873   */\n      tag_141\n        /* \"#utility.yul\":3865:3872   */\n      dup7\n        /* \"#utility.yul\":3856:3862   */\n      dup3\n        /* \"#utility.yul\":3845:3854   */\n      dup8\n        /* \"#utility.yul\":3841:3863   */\n      add\n        /* \"#utility.yul\":3810:3873   */\n      tag_63\n      jump\t// in\n    tag_141:\n        /* \"#utility.yul\":3800:3873   */\n      swap2\n      pop\n        /* \"#utility.yul\":3595:3883   */\n      pop\n        /* \"#utility.yul\":2911:3890   */\n      swap3\n      pop\n      swap3\n      pop\n      swap3\n      jump\t// out\n        /* \"#utility.yul\":3896:4022   */\n    tag_67:\n        /* \"#utility.yul\":3933:3940   */\n      0x00\n        /* \"#utility.yul\":3973:4015   */\n      0xffffffffffffffffffffffffffffffffffffffff\n        /* \"#utility.yul\":3966:3971   */\n      dup3\n        /* \"#utility.yul\":3962:4016   */\n      and\n        /* \"#utility.yul\":3951:4016   */\n      swap1\n      pop\n        /* \"#utility.yul\":3896:4022   */\n      swap2\n      swap1\n      pop\n      jump\t// out\n        /* \"#utility.yul\":4028:4124   */\n    tag_68:\n        /* \"#utility.yul\":4065:4072   */\n      0x00\n        /* \"#utility.yul\":4094:4118   */\n      tag_144\n        /* \"#utility.yul\":4112:4117   */\n      dup3\n        /* \"#utility.yul\":4094:4118   */\n      tag_67\n      jump\t// in\n    tag_144:\n        /* \"#utility.yul\":4083:4118   */\n      swap1\n      pop\n        /* \"#utility.yul\":4028:4124   */\n      swap2\n      swap1\n      pop\n      jump\t// out\n        /* \"#utility.yul\":4130:4252   */\n    tag_69:\n        /* \"#utility.yul\":4203:4227   */\n      tag_146\n        /* \"#utility.yul\":4221:4226   */\n      dup2\n        /* \"#utility.yul\":4203:4227   */\n      tag_68\n      jump\t// in\n    tag_146:\n        /* \"#utility.yul\":4196:4201   */\n      dup2\n        /* \"#utility.yul\":4193:4228   */\n      eq\n        /* \"#utility.yul\":4183:4246   */\n      tag_147\n      jumpi\n        /* \"#utility.yul\":4242:4243   */\n      0x00\n        /* \"#utility.yul\":4239:4240   */\n      dup1\n        /* \"#utility.yul\":4232:4244   */\n      revert\n        /* \"#utility.yul\":4183:4246   */\n    tag_147:\n        /* \"#utility.yul\":4130:4252   */\n      pop\n      jump\t// out\n        /* \"#utility.yul\":4258:4397   */\n    tag_70:\n        /* \"#utility.yul\":4304:4309   */\n      0x00\n        /* \"#utility.yul\":4342:4348   */\n      dup2\n        /* \"#utility.yul\":4329:4349   */\n      calldataload\n        /* \"#utility.yul\":4320:4349   */\n      swap1\n      pop\n        /* \"#utility.yul\":4358:4391   */\n      tag_149\n        /* \"#utility.yul\":4385:4390   */\n      dup2\n        /* \"#utility.yul\":4358:4391   */\n      tag_69\n      jump\t// in\n    tag_149:\n        /* \"#utility.yul\":4258:4397   */\n      swap3\n      swap2\n      pop\n      pop\n      jump\t// out\n        /* \"#utility.yul\":4403:4732   */\n    tag_12:\n        /* \"#utility.yul\":4462:4468   */\n      0x00\n        /* \"#utility.yul\":4511:4513   */\n      0x20\n        /* \"#utility.yul\":4499:4508   */\n      dup3\n        /* \"#utility.yul\":4490:4497   */\n      dup5\n        /* \"#utility.yul\":4486:4509   */\n      sub\n        /* \"#utility.yul\":4482:4514   */\n      slt\n        /* \"#utility.yul\":4479:4598   */\n      iszero\n      tag_151\n      jumpi\n        /* \"#utility.yul\":4517:4596   */\n      tag_152\n      tag_52\n      jump\t// in\n    tag_152:\n        /* \"#utility.yul\":4479:4598   */\n    tag_151:\n        /* \"#utility.yul\":4637:4638   */\n      0x00\n        /* \"#utility.yul\":4662:4715   */\n      tag_153\n        /* \"#utility.yul\":4707:4714   */\n      dup5\n        /* \"#utility.yul\":4698:4704   */\n      dup3\n        /* \"#utility.yul\":4687:4696   */\n      dup6\n        /* \"#utility.yul\":4683:4705   */\n      add\n        /* \"#utility.yul\":4662:4715   */\n      tag_70\n      jump\t// in\n    tag_153:\n        /* \"#utility.yul\":4652:4715   */\n      swap2\n      pop\n        /* \"#utility.yul\":4608:4725   */\n      pop\n        /* \"#utility.yul\":4403:4732   */\n      swap3\n      swap2\n      pop\n      pop\n      jump\t// out\n        /* \"#utility.yul\":4738:4837   */\n    tag_71:\n        /* \"#utility.yul\":4790:4796   */\n      0x00\n        /* \"#utility.yul\":4824:4829   */\n      dup2\n        /* \"#utility.yul\":4818:4830   */\n      mload\n        /* \"#utility.yul\":4808:4830   */\n      swap1\n      pop\n        /* \"#utility.yul\":4738:4837   */\n      swap2\n      swap1\n      pop\n      jump\t// out\n        /* \"#utility.yul\":4843:5012   */\n    tag_72:\n        /* \"#utility.yul\":4927:4938   */\n      0x00\n        /* \"#utility.yul\":4961:4967   */\n      dup3\n        /* \"#utility.yul\":4956:4959   */\n      dup3\n        /* \"#utility.yul\":4949:4968   */\n      mstore\n        /* \"#utility.yul\":5001:5005   */\n      0x20\n        /* \"#utility.yul\":4996:4999   */\n      dup3\n        /* \"#utility.yul\":4992:5006   */\n      add\n        /* \"#utility.yul\":4977:5006   */\n      swap1\n      pop\n        /* \"#utility.yul\":4843:5012   */\n      swap3\n      swap2\n      pop\n      pop\n      jump\t// out\n        /* \"#utility.yul\":5018:5157   */\n    tag_73:\n        /* \"#utility.yul\":5107:5113   */\n      dup3\n        /* \"#utility.yul\":5102:5105   */\n      dup2\n        /* \"#utility.yul\":5097:5100   */\n      dup4\n        /* \"#utility.yul\":5091:5114   */\n      mcopy\n        /* \"#utility.yul\":5148:5149   */\n      0x00\n        /* \"#utility.yul\":5139:5145   */\n      dup4\n        /* \"#utility.yul\":5134:5137   */\n      dup4\n        /* \"#utility.yul\":5130:5146   */\n      add\n        /* \"#utility.yul\":5123:5150   */\n      mstore\n        /* \"#utility.yul\":5018:5157   */\n      pop\n      pop\n      pop\n      jump\t// out\n        /* \"#utility.yul\":5163:5540   */\n    tag_74:\n        /* \"#utility.yul\":5251:5254   */\n      0x00\n        /* \"#utility.yul\":5279:5318   */\n      tag_158\n        /* \"#utility.yul\":5312:5317   */\n      dup3\n        /* \"#utility.yul\":5279:5318   */\n      tag_71\n      jump\t// in\n    tag_158:\n        /* \"#utility.yul\":5334:5405   */\n      tag_159\n        /* \"#utility.yul\":5398:5404   */\n      dup2\n        /* \"#utility.yul\":5393:5396   */\n      dup6\n        /* \"#utility.yul\":5334:5405   */\n      tag_72\n      jump\t// in\n    tag_159:\n        /* \"#utility.yul\":5327:5405   */\n      swap4\n      pop\n        /* \"#utility.yul\":5414:5479   */\n      tag_160\n        /* \"#utility.yul\":5472:5478   */\n      dup2\n        /* \"#utility.yul\":5467:5470   */\n      dup6\n        /* \"#utility.yul\":5460:5464   */\n      0x20\n        /* \"#utility.yul\":5453:5458   */\n      dup7\n        /* \"#utility.yul\":5449:5465   */\n      add\n        /* \"#utility.yul\":5414:5479   */\n      tag_73\n      jump\t// in\n    tag_160:\n        /* \"#utility.yul\":5504:5533   */\n      tag_161\n        /* \"#utility.yul\":5526:5532   */\n      dup2\n        /* \"#utility.yul\":5504:5533   */\n      tag_56\n      jump\t// in\n    tag_161:\n        /* \"#utility.yul\":5499:5502   */\n      dup5\n        /* \"#utility.yul\":5495:5534   */\n      add\n        /* \"#utility.yul\":5488:5534   */\n      swap2\n      pop\n        /* \"#utility.yul\":5255:5540   */\n      pop\n        /* \"#utility.yul\":5163:5540   */\n      swap3\n      swap2\n      pop\n      pop\n      jump\t// out\n        /* \"#utility.yul\":5546:5664   */\n    tag_75:\n        /* \"#utility.yul\":5633:5657   */\n      tag_163\n        /* \"#utility.yul\":5651:5656   */\n      dup2\n        /* \"#utility.yul\":5633:5657   */\n      tag_64\n      jump\t// in\n    tag_163:\n        /* \"#utility.yul\":5628:5631   */\n      dup3\n        /* \"#utility.yul\":5621:5658   */\n      mstore\n        /* \"#utility.yul\":5546:5664   */\n      pop\n      pop\n      jump\t// out\n        /* \"#utility.yul\":5670:5760   */\n    tag_76:\n        /* \"#utility.yul\":5704:5711   */\n      0x00\n        /* \"#utility.yul\":5747:5752   */\n      dup2\n        /* \"#utility.yul\":5740:5753   */\n      iszero\n        /* \"#utility.yul\":5733:5754   */\n      iszero\n        /* \"#utility.yul\":5722:5754   */\n      swap1\n      pop\n        /* \"#utility.yul\":5670:5760   */\n      swap2\n      swap1\n      pop\n      jump\t// out\n        /* \"#utility.yul\":5766:5875   */\n    tag_77:\n        /* \"#utility.yul\":5847:5868   */\n      tag_166\n        /* \"#utility.yul\":5862:5867   */\n      dup2\n        /* \"#utility.yul\":5847:5868   */\n      tag_76\n      jump\t// in\n    tag_166:\n        /* \"#utility.yul\":5842:5845   */\n      dup3\n        /* \"#utility.yul\":5835:5869   */\n      mstore\n        /* \"#utility.yul\":5766:5875   */\n      pop\n      pop\n      jump\t// out\n        /* \"#utility.yul\":5881:6604   */\n    tag_15:\n        /* \"#utility.yul\":6092:6096   */\n      0x00\n        /* \"#utility.yul\":6130:6133   */\n      0x80\n        /* \"#utility.yul\":6119:6128   */\n      dup3\n        /* \"#utility.yul\":6115:6134   */\n      add\n        /* \"#utility.yul\":6107:6134   */\n      swap1\n      pop\n        /* \"#utility.yul\":6180:6189   */\n      dup2\n        /* \"#utility.yul\":6174:6178   */\n      dup2\n        /* \"#utility.yul\":6170:6190   */\n      sub\n        /* \"#utility.yul\":6166:6167   */\n      0x00\n        /* \"#utility.yul\":6155:6164   */\n      dup4\n        /* \"#utility.yul\":6151:6168   */\n      add\n        /* \"#utility.yul\":6144:6191   */\n      mstore\n        /* \"#utility.yul\":6208:6286   */\n      tag_168\n        /* \"#utility.yul\":6281:6285   */\n      dup2\n        /* \"#utility.yul\":6272:6278   */\n      dup8\n        /* \"#utility.yul\":6208:6286   */\n      tag_74\n      jump\t// in\n    tag_168:\n        /* \"#utility.yul\":6200:6286   */\n      swap1\n      pop\n        /* \"#utility.yul\":6296:6368   */\n      tag_169\n        /* \"#utility.yul\":6364:6366   */\n      0x20\n        /* \"#utility.yul\":6353:6362   */\n      dup4\n        /* \"#utility.yul\":6349:6367   */\n      add\n        /* \"#utility.yul\":6340:6346   */\n      dup7\n        /* \"#utility.yul\":6296:6368   */\n      tag_75\n      jump\t// in\n    tag_169:\n        /* \"#utility.yul\":6415:6424   */\n      dup2\n        /* \"#utility.yul\":6409:6413   */\n      dup2\n        /* \"#utility.yul\":6405:6425   */\n      sub\n        /* \"#utility.yul\":6400:6402   */\n      0x40\n        /* \"#utility.yul\":6389:6398   */\n      dup4\n        /* \"#utility.yul\":6385:6403   */\n      add\n        /* \"#utility.yul\":6378:6426   */\n      mstore\n        /* \"#utility.yul\":6443:6521   */\n      tag_170\n        /* \"#utility.yul\":6516:6520   */\n      dup2\n        /* \"#utility.yul\":6507:6513   */\n      dup6\n        /* \"#utility.yul\":6443:6521   */\n      tag_74\n      jump\t// in\n    tag_170:\n        /* \"#utility.yul\":6435:6521   */\n      swap1\n      pop\n        /* \"#utility.yul\":6531:6597   */\n      tag_171\n        /* \"#utility.yul\":6593:6595   */\n      0x60\n        /* \"#utility.yul\":6582:6591   */\n      dup4\n        /* \"#utility.yul\":6578:6596   */\n      add\n        /* \"#utility.yul\":6569:6575   */\n      dup5\n        /* \"#utility.yul\":6531:6597   */\n      tag_77\n      jump\t// in\n    tag_171:\n        /* \"#utility.yul\":5881:6604   */\n      swap6\n      swap5\n      pop\n      pop\n      pop\n      pop\n      pop\n      jump\t// out\n        /* \"#utility.yul\":6610:6787   */\n    tag_78:\n        /* \"#utility.yul\":6750:6779   */\n      0x5573657220697320616c726561647920726567697374657265642e0000000000\n        /* \"#utility.yul\":6746:6747   */\n      0x00\n        /* \"#utility.yul\":6738:6744   */\n      dup3\n        /* \"#utility.yul\":6734:6748   */\n      add\n        /* \"#utility.yul\":6727:6780   */\n      mstore\n        /* \"#utility.yul\":6610:6787   */\n      pop\n      jump\t// out\n        /* \"#utility.yul\":6793:7159   */\n    tag_79:\n        /* \"#utility.yul\":6935:6938   */\n      0x00\n        /* \"#utility.yul\":6956:7023   */\n      tag_174\n        /* \"#utility.yul\":7020:7022   */\n      0x1b\n        /* \"#utility.yul\":7015:7018   */\n      dup4\n        /* \"#utility.yul\":6956:7023   */\n      tag_72\n      jump\t// in\n    tag_174:\n        /* \"#utility.yul\":6949:7023   */\n      swap2\n      pop\n        /* \"#utility.yul\":7032:7125   */\n      tag_175\n        /* \"#utility.yul\":7121:7124   */\n      dup3\n        /* \"#utility.yul\":7032:7125   */\n      tag_78\n      jump\t// in\n    tag_175:\n        /* \"#utility.yul\":7150:7152   */\n      0x20\n        /* \"#utility.yul\":7145:7148   */\n      dup3\n        /* \"#utility.yul\":7141:7153   */\n      add\n        /* \"#utility.yul\":7134:7153   */\n      swap1\n      pop\n        /* \"#utility.yul\":6793:7159   */\n      swap2\n      swap1\n      pop\n      jump\t// out\n        /* \"#utility.yul\":7165:7584   */\n    tag_23:\n        /* \"#utility.yul\":7331:7335   */\n      0x00\n        /* \"#utility.yul\":7369:7371   */\n      0x20\n        /* \"#utility.yul\":7358:7367   */\n      dup3\n        /* \"#utility.yul\":7354:7372   */\n      add\n        /* \"#utility.yul\":7346:7372   */\n      swap1\n      pop\n        /* \"#utility.yul\":7418:7427   */\n      dup2\n        /* \"#utility.yul\":7412:7416   */\n      dup2\n        /* \"#utility.yul\":7408:7428   */\n      sub\n        /* \"#utility.yul\":7404:7405   */\n      0x00\n        /* \"#utility.yul\":7393:7402   */\n      dup4\n        /* \"#utility.yul\":7389:7406   */\n      add\n        /* \"#utility.yul\":7382:7429   */\n      mstore\n        /* \"#utility.yul\":7446:7577   */\n      tag_177\n        /* \"#utility.yul\":7572:7576   */\n      dup2\n        /* \"#utility.yul\":7446:7577   */\n      tag_79\n      jump\t// in\n    tag_177:\n        /* \"#utility.yul\":7438:7577   */\n      swap1\n      pop\n        /* \"#utility.yul\":7165:7584   */\n      swap2\n      swap1\n      pop\n      jump\t// out\n        /* \"#utility.yul\":7590:7770   */\n    tag_80:\n        /* \"#utility.yul\":7638:7715   */\n      0x4e487b7100000000000000000000000000000000000000000000000000000000\n        /* \"#utility.yul\":7635:7636   */\n      0x00\n        /* \"#utility.yul\":7628:7716   */\n      mstore\n        /* \"#utility.yul\":7735:7739   */\n      0x22\n        /* \"#utility.yul\":7732:7733   */\n      0x04\n        /* \"#utility.yul\":7725:7740   */\n      mstore\n        /* \"#utility.yul\":7759:7763   */\n      0x24\n        /* \"#utility.yul\":7756:7757   */\n      0x00\n        /* \"#utility.yul\":7749:7764   */\n      revert\n        /* \"#utility.yul\":7776:8096   */\n    tag_30:\n        /* \"#utility.yul\":7820:7826   */\n      0x00\n        /* \"#utility.yul\":7857:7858   */\n      0x02\n        /* \"#utility.yul\":7851:7855   */\n      dup3\n        /* \"#utility.yul\":7847:7859   */\n      div\n        /* \"#utility.yul\":7837:7859   */\n      swap1\n      pop\n        /* \"#utility.yul\":7904:7905   */\n      0x01\n        /* \"#utility.yul\":7898:7902   */\n      dup3\n        /* \"#utility.yul\":7894:7906   */\n      and\n        /* \"#utility.yul\":7925:7943   */\n      dup1\n        /* \"#utility.yul\":7915:7996   */\n      tag_180\n      jumpi\n        /* \"#utility.yul\":7981:7985   */\n      0x7f\n        /* \"#utility.yul\":7973:7979   */\n      dup3\n        /* \"#utility.yul\":7969:7986   */\n      and\n        /* \"#utility.yul\":7959:7986   */\n      swap2\n      pop\n        /* \"#utility.yul\":7915:7996   */\n    tag_180:\n        /* \"#utility.yul\":8043:8045   */\n      0x20\n        /* \"#utility.yul\":8035:8041   */\n      dup3\n        /* \"#utility.yul\":8032:8046   */\n      lt\n        /* \"#utility.yul\":8012:8030   */\n      dup2\n        /* \"#utility.yul\":8009:8047   */\n      sub\n        /* \"#utility.yul\":8006:8090   */\n      tag_181\n      jumpi\n        /* \"#utility.yul\":8062:8080   */\n      tag_182\n      tag_80\n      jump\t// in\n    tag_182:\n        /* \"#utility.yul\":8006:8090   */\n    tag_181:\n        /* \"#utility.yul\":7827:8096   */\n      pop\n        /* \"#utility.yul\":7776:8096   */\n      swap2\n      swap1\n      pop\n      jump\t// out\n        /* \"#utility.yul\":8102:8243   */\n    tag_81:\n        /* \"#utility.yul\":8151:8155   */\n      0x00\n        /* \"#utility.yul\":8174:8177   */\n      dup2\n        /* \"#utility.yul\":8166:8177   */\n      swap1\n      pop\n        /* \"#utility.yul\":8197:8200   */\n      dup2\n        /* \"#utility.yul\":8194:8195   */\n      0x00\n        /* \"#utility.yul\":8187:8201   */\n      mstore\n        /* \"#utility.yul\":8231:8235   */\n      0x20\n        /* \"#utility.yul\":8228:8229   */\n      0x00\n        /* \"#utility.yul\":8218:8236   */\n      keccak256\n        /* \"#utility.yul\":8210:8236   */\n      swap1\n      pop\n        /* \"#utility.yul\":8102:8243   */\n      swap2\n      swap1\n      pop\n      jump\t// out\n        /* \"#utility.yul\":8249:8342   */\n    tag_82:\n        /* \"#utility.yul\":8286:8292   */\n      0x00\n        /* \"#utility.yul\":8333:8335   */\n      0x20\n        /* \"#utility.yul\":8328:8330   */\n      0x1f\n        /* \"#utility.yul\":8321:8326   */\n      dup4\n        /* \"#utility.yul\":8317:8331   */\n      add\n        /* \"#utility.yul\":8313:8336   */\n      div\n        /* \"#utility.yul\":8303:8336   */\n      swap1\n      pop\n        /* \"#utility.yul\":8249:8342   */\n      swap2\n      swap1\n      pop\n      jump\t// out\n        /* \"#utility.yul\":8348:8455   */\n    tag_83:\n        /* \"#utility.yul\":8392:8400   */\n      0x00\n        /* \"#utility.yul\":8442:8447   */\n      dup3\n        /* \"#utility.yul\":8436:8440   */\n      dup3\n        /* \"#utility.yul\":8432:8448   */\n      shl\n        /* \"#utility.yul\":8411:8448   */\n      swap1\n      pop\n        /* \"#utility.yul\":8348:8455   */\n      swap3\n      swap2\n      pop\n      pop\n      jump\t// out\n        /* \"#utility.yul\":8461:8854   */\n    tag_84:\n        /* \"#utility.yul\":8530:8536   */\n      0x00\n        /* \"#utility.yul\":8580:8581   */\n      0x08\n        /* \"#utility.yul\":8568:8578   */\n      dup4\n        /* \"#utility.yul\":8564:8582   */\n      mul\n        /* \"#utility.yul\":8603:8700   */\n      tag_187\n        /* \"#utility.yul\":8633:8699   */\n      0xffffffffffffffffffffffffffffffffffffffffffffffffffffffffffffffff\n        /* \"#utility.yul\":8622:8631   */\n      dup3\n        /* \"#utility.yul\":8603:8700   */\n      tag_83\n      jump\t// in\n    tag_187:\n        /* \"#utility.yul\":8721:8760   */\n      tag_188\n        /* \"#utility.yul\":8751:8759   */\n      dup7\n        /* \"#utility.yul\":8740:8749   */\n      dup4\n        /* \"#utility.yul\":8721:8760   */\n      tag_83\n      jump\t// in\n    tag_188:\n        /* \"#utility.yul\":8709:8760   */\n      swap6\n      pop\n        /* \"#utility.yul\":8793:8797   */\n      dup1\n        /* \"#utility.yul\":8789:8798   */\n      not\n        /* \"#utility.yul\":8782:8787   */\n      dup5\n        /* \"#utility.yul\":8778:8799   */\n      and\n        /* \"#utility.yul\":8769:8799   */\n      swap4\n      pop\n        /* \"#utility.yul\":8842:8846   */\n      dup1\n        /* \"#utility.yul\":8832:8840   */\n      dup7\n        /* \"#utility.yul\":8828:8847   */\n      and\n        /* \"#utility.yul\":8821:8826   */\n      dup5\n        /* \"#utility.yul\":8818:8848   */\n      or\n        /* \"#utility.yul\":8808:8848   */\n      swap3\n      pop\n        /* \"#utility.yul\":8537:8854   */\n      pop\n      pop\n        /* \"#utility.yul\":8461:8854   */\n      swap4\n      swap3\n      pop\n      pop\n      pop\n      jump\t// out\n        /* \"#utility.yul\":8860:8920   */\n    tag_85:\n        /* \"#utility.yul\":8888:8891   */\n      0x00\n        /* \"#utility.yul\":8909:8914   */\n      dup2\n        /* \"#utility.yul\":8902:8914   */\n      swap1\n      pop\n        /* \"#utility.yul\":8860:8920   */\n      swap2\n      swap1\n      pop\n      jump\t// out\n        /* \"#utility.yul\":8926:9068   */\n    tag_86:\n        /* \"#utility.yul\":8976:8985   */\n      0x00\n        /* \"#utility.yul\":9009:9062   */\n      tag_191\n        /* \"#utility.yul\":9027:9061   */\n      tag_192\n        /* \"#utility.yul\":9036:9060   */\n      tag_193\n        /* \"#utility.yul\":9054:9059   */\n      dup5\n        /* \"#utility.yul\":9036:9060   */\n      tag_64\n      jump\t// in\n    tag_193:\n        /* \"#utility.yul\":9027:9061   */\n      tag_85\n      jump\t// in\n    tag_192:\n        /* \"#utility.yul\":9009:9062   */\n      tag_64\n      jump\t// in\n    tag_191:\n        /* \"#utility.yul\":8996:9062   */\n      swap1\n      pop\n        /* \"#utility.yul\":8926:9068   */\n      swap2\n      swap1\n      pop\n      jump\t// out\n        /* \"#utility.yul\":9074:9149   */\n    tag_87:\n        /* \"#utility.yul\":9117:9120   */\n      0x00\n        /* \"#utility.yul\":9138:9143   */\n      dup2\n        /* \"#utility.yul\":9131:9143   */\n      swap1\n      pop\n        /* \"#utility.yul\":9074:9149   */\n      swap2\n      swap1\n      pop\n      jump\t// out\n        /* \"#utility.yul\":9155:9424   */\n    tag_88:\n        /* \"#utility.yul\":9265:9304   */\n      tag_196\n        /* \"#utility.yul\":9296:9303   */\n      dup4\n        /* \"#utility.yul\":9265:9304   */\n      tag_86\n      jump\t// in\n    tag_196:\n        /* \"#utility.yul\":9326:9417   */\n      tag_197\n        /* \"#utility.yul\":9375:9416   */\n      tag_198\n        /* \"#utility.yul\":9399:9415   */\n      dup3\n        /* \"#utility.yul\":9375:9416   */\n      tag_87\n      jump\t// in\n    tag_198:\n        /* \"#utility.yul\":9367:9373   */\n      dup5\n        /* \"#utility.yul\":9360:9364   */\n      dup5\n        /* \"#utility.yul\":9354:9365   */\n      sload\n        /* \"#utility.yul\":9326:9417   */\n      tag_84\n      jump\t// in\n    tag_197:\n        /* \"#utility.yul\":9320:9324   */\n      dup3\n        /* \"#utility.yul\":9313:9418   */\n      sstore\n        /* \"#utility.yul\":9231:9424   */\n      pop\n        /* \"#utility.yul\":9155:9424   */\n      pop\n      pop\n      pop\n      jump\t// out\n        /* \"#utility.yul\":9430:9503   */\n    tag_89:\n        /* \"#utility.yul\":9475:9478   */\n      0x00\n        /* \"#utility.yul\":9430:9503   */\n      swap1\n      jump\t// out\n        /* \"#utility.yul\":9509:9698   */\n    tag_90:\n        /* \"#utility.yul\":9586:9618   */\n      tag_201\n      tag_89\n      jump\t// in\n    tag_201:\n        /* \"#utility.yul\":9627:9692   */\n      tag_202\n        /* \"#utility.yul\":9685:9691   */\n      dup2\n        /* \"#utility.yul\":9677:9683   */\n      dup5\n        /* \"#utility.yul\":9671:9675   */\n      dup5\n        /* \"#utility.yul\":9627:9692   */\n      tag_88\n      jump\t// in\n    tag_202:\n        /* \"#utility.yul\":9562:9698   */\n      pop\n        /* \"#utility.yul\":9509:9698   */\n      pop\n      pop\n      jump\t// out\n        /* \"#utility.yul\":9704:9890   */\n    tag_91:\n        /* \"#utility.yul\":9764:9884   */\n    tag_204:\n        /* \"#utility.yul\":9781:9784   */\n      dup2\n        /* \"#utility.yul\":9774:9779   */\n      dup2\n        /* \"#utility.yul\":9771:9785   */\n      lt\n        /* \"#utility.yul\":9764:9884   */\n      iszero\n      tag_206\n      jumpi\n        /* \"#utility.yul\":9835:9874   */\n      tag_207\n        /* \"#utility.yul\":9872:9873   */\n      0x00\n        /* \"#utility.yul\":9865:9870   */\n      dup3\n        /* \"#utility.yul\":9835:9874   */\n      tag_90\n      jump\t// in\n    tag_207:\n        /* \"#utility.yul\":9808:9809   */\n      0x01\n        /* \"#utility.yul\":9801:9806   */\n      dup2\n        /* \"#utility.yul\":9797:9810   */\n      add\n        /* \"#utility.yul\":9788:9810   */\n      swap1\n      pop\n        /* \"#utility.yul\":9764:9884   */\n      jump(tag_204)\n    tag_206:\n        /* \"#utility.yul\":9704:9890   */\n      pop\n      pop\n      jump\t// out\n        /* \"#utility.yul\":9896:10439   */\n    tag_92:\n        /* \"#utility.yul\":9997:9999   */\n      0x1f\n        /* \"#utility.yul\":9992:9995   */\n      dup3\n        /* \"#utility.yul\":9989:10000   */\n      gt\n        /* \"#utility.yul\":9986:10432   */\n      iszero\n      tag_209\n      jumpi\n        /* \"#utility.yul\":10031:10069   */\n      tag_210\n        /* \"#utility.yul\":10063:10068   */\n      dup2\n        /* \"#utility.yul\":10031:10069   */\n      tag_81\n      jump\t// in\n    tag_210:\n        /* \"#utility.yul\":10115:10144   */\n      tag_211\n        /* \"#utility.yul\":10133:10143   */\n      dup5\n        /* \"#utility.yul\":10115:10144   */\n      tag_82\n      jump\t// in\n    tag_211:\n        /* \"#utility.yul\":10105:10113   */\n      dup2\n        /* \"#utility.yul\":10101:10145   */\n      add\n        /* \"#utility.yul\":10298:10300   */\n      0x20\n        /* \"#utility.yul\":10286:10296   */\n      dup6\n        /* \"#utility.yul\":10283:10301   */\n      lt\n        /* \"#utility.yul\":10280:10329   */\n      iszero\n      tag_212\n      jumpi\n        /* \"#utility.yul\":10319:10327   */\n      dup2\n        /* \"#utility.yul\":10304:10327   */\n      swap1\n      pop\n        /* \"#utility.yul\":10280:10329   */\n    tag_212:\n        /* \"#utility.yul\":10342:10422   */\n      tag_213\n        /* \"#utility.yul\":10398:10420   */\n      tag_214\n        /* \"#utility.yul\":10416:10419   */\n      dup6\n        /* \"#utility.yul\":10398:10420   */\n      tag_82\n      jump\t// in\n    tag_214:\n        /* \"#utility.yul\":10388:10396   */\n      dup4\n        /* \"#utility.yul\":10384:10421   */\n      add\n        /* \"#utility.yul\":10371:10382   */\n      dup3\n        /* \"#utility.yul\":10342:10422   */\n      tag_91\n      jump\t// in\n    tag_213:\n        /* \"#utility.yul\":10001:10432   */\n      pop\n      pop\n        /* \"#utility.yul\":9986:10432   */\n    tag_209:\n        /* \"#utility.yul\":9896:10439   */\n      pop\n      pop\n      pop\n      jump\t// out\n        /* \"#utility.yul\":10445:10562   */\n    tag_93:\n        /* \"#utility.yul\":10499:10507   */\n      0x00\n        /* \"#utility.yul\":10549:10554   */\n      dup3\n        /* \"#utility.yul\":10543:10547   */\n      dup3\n        /* \"#utility.yul\":10539:10555   */\n      shr\n        /* \"#utility.yul\":10518:10555   */\n      swap1\n      pop\n        /* \"#utility.yul\":10445:10562   */\n      swap3\n      swap2\n      pop\n      pop\n      jump\t// out\n        /* \"#utility.yul\":10568:10737   */\n    tag_94:\n        /* \"#utility.yul\":10612:10618   */\n      0x00\n        /* \"#utility.yul\":10645:10696   */\n      tag_217\n        /* \"#utility.yul\":10693:10694   */\n      0x00\n        /* \"#utility.yul\":10689:10695   */\n      not\n        /* \"#utility.yul\":10681:10686   */\n      dup5\n        /* \"#utility.yul\":10678:10679   */\n      0x08\n        /* \"#utility.yul\":10674:10687   */\n      mul\n        /* \"#utility.yul\":10645:10696   */\n      tag_93\n      jump\t// in\n    tag_217:\n        /* \"#utility.yul\":10641:10697   */\n      not\n        /* \"#utility.yul\":10726:10730   */\n      dup1\n        /* \"#utility.yul\":10720:10724   */\n      dup4\n        /* \"#utility.yul\":10716:10731   */\n      and\n        /* \"#utility.yul\":10706:10731   */\n      swap2\n      pop\n        /* \"#utility.yul\":10619:10737   */\n      pop\n        /* \"#utility.yul\":10568:10737   */\n      swap3\n      swap2\n      pop\n      pop\n      jump\t// out\n        /* \"#utility.yul\":10742:11037   */\n    tag_95:\n        /* \"#utility.yul\":10818:10822   */\n      0x00\n        /* \"#utility.yul\":10964:10993   */\n      tag_219\n        /* \"#utility.yul\":10989:10992   */\n      dup4\n        /* \"#utility.yul\":10983:10987   */\n      dup4\n        /* \"#utility.yul\":10964:10993   */\n      tag_94\n      jump\t// in\n    tag_219:\n        /* \"#utility.yul\":10956:10993   */\n      swap2\n      pop\n        /* \"#utility.yul\":11026:11029   */\n      dup3\n        /* \"#utility.yul\":11023:11024   */\n      0x02\n        /* \"#utility.yul\":11019:11030   */\n      mul\n        /* \"#utility.yul\":11013:11017   */\n      dup3\n        /* \"#utility.yul\":11010:11031   */\n      or\n        /* \"#utility.yul\":11002:11031   */\n      swap1\n      pop\n        /* \"#utility.yul\":10742:11037   */\n      swap3\n      swap2\n      pop\n      pop\n      jump\t// out\n        /* \"#utility.yul\":11042:12437   */\n    tag_25:\n        /* \"#utility.yul\":11159:11196   */\n      tag_221\n        /* \"#utility.yul\":11192:11195   */\n      dup3\n        /* \"#utility.yul\":11159:11196   */\n      tag_71\n      jump\t// in\n    tag_221:\n        /* \"#utility.yul\":11261:11279   */\n      0xffffffffffffffff\n        /* \"#utility.yul\":11253:11259   */\n      dup2\n        /* \"#utility.yul\":11250:11280   */\n      gt\n        /* \"#utility.yul\":11247:11303   */\n      iszero\n      tag_222\n      jumpi\n        /* \"#utility.yul\":11283:11301   */\n      tag_223\n      tag_57\n      jump\t// in\n    tag_223:\n        /* \"#utility.yul\":11247:11303   */\n    tag_222:\n        /* \"#utility.yul\":11327:11365   */\n      tag_224\n        /* \"#utility.yul\":11359:11363   */\n      dup3\n        /* \"#utility.yul\":11353:11364   */\n      sload\n        /* \"#utility.yul\":11327:11365   */\n      tag_30\n      jump\t// in\n    tag_224:\n        /* \"#utility.yul\":11412:11479   */\n      tag_225\n        /* \"#utility.yul\":11472:11478   */\n      dup3\n        /* \"#utility.yul\":11464:11470   */\n      dup3\n        /* \"#utility.yul\":11458:11462   */\n      dup6\n        /* \"#utility.yul\":11412:11479   */\n      tag_92\n      jump\t// in\n    tag_225:\n        /* \"#utility.yul\":11506:11507   */\n      0x00\n        /* \"#utility.yul\":11530:11534   */\n      0x20\n        /* \"#utility.yul\":11517:11534   */\n      swap1\n      pop\n        /* \"#utility.yul\":11562:11564   */\n      0x1f\n        /* \"#utility.yul\":11554:11560   */\n      dup4\n        /* \"#utility.yul\":11551:11565   */\n      gt\n        /* \"#utility.yul\":11579:11580   */\n      0x01\n        /* \"#utility.yul\":11574:12192   */\n      dup2\n      eq\n      tag_227\n      jumpi\n        /* \"#utility.yul\":12236:12237   */\n      0x00\n        /* \"#utility.yul\":12253:12259   */\n      dup5\n        /* \"#utility.yul\":12250:12327   */\n      iszero\n      tag_228\n      jumpi\n        /* \"#utility.yul\":12302:12311   */\n      dup3\n        /* \"#utility.yul\":12297:12300   */\n      dup8\n        /* \"#utility.yul\":12293:12312   */\n      add\n        /* \"#utility.yul\":12287:12313   */\n      mload\n        /* \"#utility.yul\":12278:12313   */\n      swap1\n      pop\n        /* \"#utility.yul\":12250:12327   */\n    tag_228:\n        /* \"#utility.yul\":12353:12420   */\n      tag_229\n        /* \"#utility.yul\":12413:12419   */\n      dup6\n        /* \"#utility.yul\":12406:12411   */\n      dup3\n        /* \"#utility.yul\":12353:12420   */\n      tag_95\n      jump\t// in\n    tag_229:\n        /* \"#utility.yul\":12347:12351   */\n      dup7\n        /* \"#utility.yul\":12340:12421   */\n      sstore\n        /* \"#utility.yul\":12209:12431   */\n      pop\n        /* \"#utility.yul\":11544:12431   */\n      jump(tag_226)\n        /* \"#utility.yul\":11574:12192   */\n    tag_227:\n        /* \"#utility.yul\":11626:11630   */\n      0x1f\n        /* \"#utility.yul\":11622:11631   */\n      not\n        /* \"#utility.yul\":11614:11620   */\n      dup5\n        /* \"#utility.yul\":11610:11632   */\n      and\n        /* \"#utility.yul\":11660:11697   */\n      tag_230\n        /* \"#utility.yul\":11692:11696   */\n      dup7\n        /* \"#utility.yul\":11660:11697   */\n      tag_81\n      jump\t// in\n    tag_230:\n        /* \"#utility.yul\":11719:11720   */\n      0x00\n        /* \"#utility.yul\":11733:11941   */\n    tag_231:\n        /* \"#utility.yul\":11747:11754   */\n      dup3\n        /* \"#utility.yul\":11744:11745   */\n      dup2\n        /* \"#utility.yul\":11741:11755   */\n      lt\n        /* \"#utility.yul\":11733:11941   */\n      iszero\n      tag_233\n      jumpi\n        /* \"#utility.yul\":11826:11835   */\n      dup5\n        /* \"#utility.yul\":11821:11824   */\n      dup10\n        /* \"#utility.yul\":11817:11836   */\n      add\n        /* \"#utility.yul\":11811:11837   */\n      mload\n        /* \"#utility.yul\":11803:11809   */\n      dup3\n        /* \"#utility.yul\":11796:11838   */\n      sstore\n        /* \"#utility.yul\":11877:11878   */\n      0x01\n        /* \"#utility.yul\":11869:11875   */\n      dup3\n        /* \"#utility.yul\":11865:11879   */\n      add\n        /* \"#utility.yul\":11855:11879   */\n      swap2\n      pop\n        /* \"#utility.yul\":11924:11926   */\n      0x20\n        /* \"#utility.yul\":11913:11922   */\n      dup6\n        /* \"#utility.yul\":11909:11927   */\n      add\n        /* \"#utility.yul\":11896:11927   */\n      swap5\n      pop\n        /* \"#utility.yul\":11770:11774   */\n      0x20\n        /* \"#utility.yul\":11767:11768   */\n      dup2\n        /* \"#utility.yul\":11763:11775   */\n      add\n        /* \"#utility.yul\":11758:11775   */\n      swap1\n      pop\n        /* \"#utility.yul\":11733:11941   */\n      jump(tag_231)\n    tag_233:\n        /* \"#utility.yul\":11969:11975   */\n      dup7\n        /* \"#utility.yul\":11960:11967   */\n      dup4\n        /* \"#utility.yul\":11957:11976   */\n      lt\n        /* \"#utility.yul\":11954:12133   */\n      iszero\n      tag_234\n      jumpi\n        /* \"#utility.yul\":12027:12036   */\n      dup5\n        /* \"#utility.yul\":12022:12025   */\n      dup10\n        /* \"#utility.yul\":12018:12037   */\n      add\n        /* \"#utility.yul\":12012:12038   */\n      mload\n        /* \"#utility.yul\":12070:12118   */\n      tag_235\n        /* \"#utility.yul\":12112:12116   */\n      0x1f\n        /* \"#utility.yul\":12104:12110   */\n      dup10\n        /* \"#utility.yul\":12100:12117   */\n      and\n        /* \"#utility.yul\":12089:12098   */\n      dup3\n        /* \"#utility.yul\":12070:12118   */\n      tag_94\n      jump\t// in\n    tag_235:\n        /* \"#utility.yul\":12062:12068   */\n      dup4\n        /* \"#utility.yul\":12055:12119   */\n      sstore\n        /* \"#utility.yul\":11977:12133   */\n      pop\n        /* \"#utility.yul\":11954:12133   */\n    tag_234:\n        /* \"#utility.yul\":12179:12180   */\n      0x01\n        /* \"#utility.yul\":12175:12176   */\n      0x02\n        /* \"#utility.yul\":12167:12173   */\n      dup9\n        /* \"#utility.yul\":12163:12177   */\n      mul\n        /* \"#utility.yul\":12159:12181   */\n      add\n        /* \"#utility.yul\":12153:12157   */\n      dup9\n        /* \"#utility.yul\":12146:12182   */\n      sstore\n        /* \"#utility.yul\":11581:12192   */\n      pop\n      pop\n      pop\n        /* \"#utility.yul\":11544:12431   */\n    tag_226:\n      pop\n        /* \"#utility.yul\":11134:12437   */\n      pop\n      pop\n      pop\n        /* \"#utility.yul\":11042:12437   */\n      pop\n      pop\n      jump\t// out\n        /* \"#utility.yul\":12443:13067   */\n    tag_28:\n        /* \"#utility.yul\":12632:12636   */\n      0x00\n        /* \"#utility.yul\":12670:12672   */\n      0x60\n        /* \"#utility.yul\":12659:12668   */\n      dup3\n        /* \"#utility.yul\":12655:12673   */\n      add\n        /* \"#utility.yul\":12647:12673   */\n      swap1\n      pop\n        /* \"#utility.yul\":12719:12728   */\n      dup2\n        /* \"#utility.yul\":12713:12717   */\n      dup2\n        /* \"#utility.yul\":12709:12729   */\n      sub\n        /* \"#utility.yul\":12705:12706   */\n      0x00\n        /* \"#utility.yul\":12694:12703   */\n      dup4\n        /* \"#utility.yul\":12690:12707   */\n      add\n        /* \"#utility.yul\":12683:12730   */\n      mstore\n        /* \"#utility.yul\":12747:12825   */\n      tag_237\n        /* \"#utility.yul\":12820:12824   */\n      dup2\n        /* \"#utility.yul\":12811:12817   */\n      dup7\n        /* \"#utility.yul\":12747:12825   */\n      tag_74\n      jump\t// in\n    tag_237:\n        /* \"#utility.yul\":12739:12825   */\n      swap1\n      pop\n        /* \"#utility.yul\":12835:12907   */\n      tag_238\n        /* \"#utility.yul\":12903:12905   */\n      0x20\n        /* \"#utility.yul\":12892:12901   */\n      dup4\n        /* \"#utility.yul\":12888:12906   */\n      add\n        /* \"#utility.yul\":12879:12885   */\n      dup6\n        /* \"#utility.yul\":12835:12907   */\n      tag_75\n      jump\t// in\n    tag_238:\n        /* \"#utility.yul\":12954:12963   */\n      dup2\n        /* \"#utility.yul\":12948:12952   */\n      dup2\n        /* \"#utility.yul\":12944:12964   */\n      sub\n        /* \"#utility.yul\":12939:12941   */\n      0x40\n        /* \"#utility.yul\":12928:12937   */\n      dup4\n        /* \"#utility.yul\":12924:12942   */\n      add\n        /* \"#utility.yul\":12917:12965   */\n      mstore\n        /* \"#utility.yul\":12982:13060   */\n      tag_239\n        /* \"#utility.yul\":13055:13059   */\n      dup2\n        /* \"#utility.yul\":13046:13052   */\n      dup5\n        /* \"#utility.yul\":12982:13060   */\n      tag_74\n      jump\t// in\n    tag_239:\n        /* \"#utility.yul\":12974:13060   */\n      swap1\n      pop\n        /* \"#utility.yul\":12443:13067   */\n      swap5\n      swap4\n      pop\n      pop\n      pop\n      pop\n      jump\t// out\n\n    auxdata: 0xa264697066735822122000ef2b6a20720ee28fca9a1face42cc5d68ec573ef7aca45966baa711ac80cd364736f6c634300081a0033\n}\n",
				"bytecode": {
					"linkReferences": {},
					"object": "6080604052348015600e575f80fd5b50610c688061001c5f395ff3fe608060405234801561000f575f80fd5b506004361061003f575f3560e01c806362609da414610043578063a87430ba1461005f578063cc3d967b14610092575b5f80fd5b61005d600480360381019061005891906106d7565b6100c5565b005b610079600480360381019061007491906107b9565b61025e565b604051610089949392919061086d565b60405180910390f35b6100ac60048036038101906100a791906107b9565b6103a1565b6040516100bc949392919061086d565b60405180910390f35b5f803373ffffffffffffffffffffffffffffffffffffffff1673ffffffffffffffffffffffffffffffffffffffff1681526020019081526020015f206003015f9054906101000a900460ff1615610151576040517f08c379a000000000000000000000000000000000000000000000000000000000815260040161014890610908565b60405180910390fd5b6040518060800160405280848152602001838152602001828152602001600115158152505f803373ffffffffffffffffffffffffffffffffffffffff1673ffffffffffffffffffffffffffffffffffffffff1681526020019081526020015f205f820151815f0190816101c49190610b20565b506020820151816001015560408201518160020190816101e49190610b20565b506060820151816003015f6101000a81548160ff0219169083151502179055509050503373ffffffffffffffffffffffffffffffffffffffff167f25c5affa34344dea3129dd47c6b07e8086cf2ba6acec6b75f5221fb9a8130a5584848460405161025193929190610bef565b60405180910390a2505050565b5f602052805f5260405f205f91509050805f01805461027c90610953565b80601f01602080910402602001604051908101604052809291908181526020018280546102a890610953565b80156102f35780601f106102ca576101008083540402835291602001916102f3565b820191905f5260205f20905b8154815290600101906020018083116102d657829003601f168201915b50505050509080600101549080600201805461030e90610953565b80601f016020809104026020016040519081016040528092919081815260200182805461033a90610953565b80156103855780601f1061035c57610100808354040283529160200191610385565b820191905f5260205f20905b81548152906001019060200180831161036857829003601f168201915b505050505090806003015f9054906101000a900460ff16905084565b60605f60605f805f808773ffffffffffffffffffffffffffffffffffffffff1673ffffffffffffffffffffffffffffffffffffffff1681526020019081526020015f206040518060800160405290815f820180546103fe90610953565b80601f016020809104026020016040519081016040528092919081815260200182805461042a90610953565b80156104755780601f1061044c57610100808354040283529160200191610475565b820191905f5260205f20905b81548152906001019060200180831161045857829003601f168201915b505050505081526020016001820154815260200160028201805461049890610953565b80601f01602080910402602001604051908101604052809291908181526020018280546104c490610953565b801561050f5780601f106104e65761010080835404028352916020019161050f565b820191905f5260205f20905b8154815290600101906020018083116104f257829003601f168201915b50505050508152602001600382015f9054906101000a900460ff1615151515815250509050805f01518160200151826040015183606001519450945094509450509193509193565b5f604051905090565b5f80fd5b5f80fd5b5f80fd5b5f80fd5b5f601f19601f8301169050919050565b7f4e487b71000000000000000000000000000000000000000000000000000000005f52604160045260245ffd5b6105b682610570565b810181811067ffffffffffffffff821117156105d5576105d4610580565b5b80604052505050565b5f6105e7610557565b90506105f382826105ad565b919050565b5f67ffffffffffffffff82111561061257610611610580565b5b61061b82610570565b9050602081019050919050565b828183375f83830152505050565b5f610648610643846105f8565b6105de565b9050828152602081018484840111156106645761066361056c565b5b61066f848285610628565b509392505050565b5f82601f83011261068b5761068a610568565b5b813561069b848260208601610636565b91505092915050565b5f819050919050565b6106b6816106a4565b81146106c0575f80fd5b50565b5f813590506106d1816106ad565b92915050565b5f805f606084860312156106ee576106ed610560565b5b5f84013567ffffffffffffffff81111561070b5761070a610564565b5b61071786828701610677565b9350506020610728868287016106c3565b925050604084013567ffffffffffffffff81111561074957610748610564565b5b61075586828701610677565b9150509250925092565b5f73ffffffffffffffffffffffffffffffffffffffff82169050919050565b5f6107888261075f565b9050919050565b6107988161077e565b81146107a2575f80fd5b50565b5f813590506107b38161078f565b92915050565b5f602082840312156107ce576107cd610560565b5b5f6107db848285016107a5565b91505092915050565b5f81519050919050565b5f82825260208201905092915050565b8281835e5f83830152505050565b5f610816826107e4565b61082081856107ee565b93506108308185602086016107fe565b61083981610570565b840191505092915050565b61084d816106a4565b82525050565b5f8115159050919050565b61086781610853565b82525050565b5f6080820190508181035f830152610885818761080c565b90506108946020830186610844565b81810360408301526108a6818561080c565b90506108b5606083018461085e565b95945050505050565b7f5573657220697320616c726561647920726567697374657265642e00000000005f82015250565b5f6108f2601b836107ee565b91506108fd826108be565b602082019050919050565b5f6020820190508181035f83015261091f816108e6565b9050919050565b7f4e487b71000000000000000000000000000000000000000000000000000000005f52602260045260245ffd5b5f600282049050600182168061096a57607f821691505b60208210810361097d5761097c610926565b5b50919050565b5f819050815f5260205f209050919050565b5f6020601f8301049050919050565b5f82821b905092915050565b5f600883026109df7fffffffffffffffffffffffffffffffffffffffffffffffffffffffffffffffff826109a4565b6109e986836109a4565b95508019841693508086168417925050509392505050565b5f819050919050565b5f610a24610a1f610a1a846106a4565b610a01565b6106a4565b9050919050565b5f819050919050565b610a3d83610a0a565b610a51610a4982610a2b565b8484546109b0565b825550505050565b5f90565b610a65610a59565b610a70818484610a34565b505050565b5b81811015610a9357610a885f82610a5d565b600181019050610a76565b5050565b601f821115610ad857610aa981610983565b610ab284610995565b81016020851015610ac1578190505b610ad5610acd85610995565b830182610a75565b50505b505050565b5f82821c905092915050565b5f610af85f1984600802610add565b1980831691505092915050565b5f610b108383610ae9565b9150826002028217905092915050565b610b29826107e4565b67ffffffffffffffff811115610b4257610b41610580565b5b610b4c8254610953565b610b57828285610a97565b5f60209050601f831160018114610b88575f8415610b76578287015190505b610b808582610b05565b865550610be7565b601f198416610b9686610983565b5f5b82811015610bbd57848901518255600182019150602085019450602081019050610b98565b86831015610bda5784890151610bd6601f891682610ae9565b8355505b6001600288020188555050505b505050505050565b5f6060820190508181035f830152610c07818661080c565b9050610c166020830185610844565b8181036040830152610c28818461080c565b905094935050505056fea264697066735822122000ef2b6a20720ee28fca9a1face42cc5d68ec573ef7aca45966baa711ac80cd364736f6c634300081a0033",
					"opcodes": "PUSH1 0x80 PUSH1 0x40 MSTORE CALLVALUE DUP1 ISZERO PUSH1 0xE JUMPI PUSH0 DUP1 REVERT JUMPDEST POP PUSH2 0xC68 DUP1 PUSH2 0x1C PUSH0 CODECOPY PUSH0 RETURN INVALID PUSH1 0x80 PUSH1 0x40 MSTORE CALLVALUE DUP1 ISZERO PUSH2 0xF JUMPI PUSH0 DUP1 REVERT JUMPDEST POP PUSH1 0x4 CALLDATASIZE LT PUSH2 0x3F JUMPI PUSH0 CALLDATALOAD PUSH1 0xE0 SHR DUP1 PUSH4 0x62609DA4 EQ PUSH2 0x43 JUMPI DUP1 PUSH4 0xA87430BA EQ PUSH2 0x5F JUMPI DUP1 PUSH4 0xCC3D967B EQ PUSH2 0x92 JUMPI JUMPDEST PUSH0 DUP1 REVERT JUMPDEST PUSH2 0x5D PUSH1 0x4 DUP1 CALLDATASIZE SUB DUP2 ADD SWAP1 PUSH2 0x58 SWAP2 SWAP1 PUSH2 0x6D7 JUMP JUMPDEST PUSH2 0xC5 JUMP JUMPDEST STOP JUMPDEST PUSH2 0x79 PUSH1 0x4 DUP1 CALLDATASIZE SUB DUP2 ADD SWAP1 PUSH2 0x74 SWAP2 SWAP1 PUSH2 0x7B9 JUMP JUMPDEST PUSH2 0x25E JUMP JUMPDEST PUSH1 0x40 MLOAD PUSH2 0x89 SWAP5 SWAP4 SWAP3 SWAP2 SWAP1 PUSH2 0x86D JUMP JUMPDEST PUSH1 0x40 MLOAD DUP1 SWAP2 SUB SWAP1 RETURN JUMPDEST PUSH2 0xAC PUSH1 0x4 DUP1 CALLDATASIZE SUB DUP2 ADD SWAP1 PUSH2 0xA7 SWAP2 SWAP1 PUSH2 0x7B9 JUMP JUMPDEST PUSH2 0x3A1 JUMP JUMPDEST PUSH1 0x40 MLOAD PUSH2 0xBC SWAP5 SWAP4 SWAP3 SWAP2 SWAP1 PUSH2 0x86D JUMP JUMPDEST PUSH1 0x40 MLOAD DUP1 SWAP2 SUB SWAP1 RETURN JUMPDEST PUSH0 DUP1 CALLER PUSH20 0xFFFFFFFFFFFFFFFFFFFFFFFFFFFFFFFFFFFFFFFF AND PUSH20 0xFFFFFFFFFFFFFFFFFFFFFFFFFFFFFFFFFFFFFFFF AND DUP2 MSTORE PUSH1 0x20 ADD SWAP1 DUP2 MSTORE PUSH1 0x20 ADD PUSH0 KECCAK256 PUSH1 0x3 ADD PUSH0 SWAP1 SLOAD SWAP1 PUSH2 0x100 EXP SWAP1 DIV PUSH1 0xFF AND ISZERO PUSH2 0x151 JUMPI PUSH1 0x40 MLOAD PUSH32 0x8C379A000000000000000000000000000000000000000000000000000000000 DUP2 MSTORE PUSH1 0x4 ADD PUSH2 0x148 SWAP1 PUSH2 0x908 JUMP JUMPDEST PUSH1 0x40 MLOAD DUP1 SWAP2 SUB SWAP1 REVERT JUMPDEST PUSH1 0x40 MLOAD DUP1 PUSH1 0x80 ADD PUSH1 0x40 MSTORE DUP1 DUP5 DUP2 MSTORE PUSH1 0x20 ADD DUP4 DUP2 MSTORE PUSH1 0x20 ADD DUP3 DUP2 MSTORE PUSH1 0x20 ADD PUSH1 0x1 ISZERO ISZERO DUP2 MSTORE POP PUSH0 DUP1 CALLER PUSH20 0xFFFFFFFFFFFFFFFFFFFFFFFFFFFFFFFFFFFFFFFF AND PUSH20 0xFFFFFFFFFFFFFFFFFFFFFFFFFFFFFFFFFFFFFFFF AND DUP2 MSTORE PUSH1 0x20 ADD SWAP1 DUP2 MSTORE PUSH1 0x20 ADD PUSH0 KECCAK256 PUSH0 DUP3 ADD MLOAD DUP2 PUSH0 ADD SWAP1 DUP2 PUSH2 0x1C4 SWAP2 SWAP1 PUSH2 0xB20 JUMP JUMPDEST POP PUSH1 0x20 DUP3 ADD MLOAD DUP2 PUSH1 0x1 ADD SSTORE PUSH1 0x40 DUP3 ADD MLOAD DUP2 PUSH1 0x2 ADD SWAP1 DUP2 PUSH2 0x1E4 SWAP2 SWAP1 PUSH2 0xB20 JUMP JUMPDEST POP PUSH1 0x60 DUP3 ADD MLOAD DUP2 PUSH1 0x3 ADD PUSH0 PUSH2 0x100 EXP DUP2 SLOAD DUP2 PUSH1 0xFF MUL NOT AND SWAP1 DUP4 ISZERO ISZERO MUL OR SWAP1 SSTORE POP SWAP1 POP POP CALLER PUSH20 0xFFFFFFFFFFFFFFFFFFFFFFFFFFFFFFFFFFFFFFFF AND PUSH32 0x25C5AFFA34344DEA3129DD47C6B07E8086CF2BA6ACEC6B75F5221FB9A8130A55 DUP5 DUP5 DUP5 PUSH1 0x40 MLOAD PUSH2 0x251 SWAP4 SWAP3 SWAP2 SWAP1 PUSH2 0xBEF JUMP JUMPDEST PUSH1 0x40 MLOAD DUP1 SWAP2 SUB SWAP1 LOG2 POP POP POP JUMP JUMPDEST PUSH0 PUSH1 0x20 MSTORE DUP1 PUSH0 MSTORE PUSH1 0x40 PUSH0 KECCAK256 PUSH0 SWAP2 POP SWAP1 POP DUP1 PUSH0 ADD DUP1 SLOAD PUSH2 0x27C SWAP1 PUSH2 0x953 JUMP JUMPDEST DUP1 PUSH1 0x1F ADD PUSH1 0x20 DUP1 SWAP2 DIV MUL PUSH1 0x20 ADD PUSH1 0x40 MLOAD SWAP1 DUP2 ADD PUSH1 0x40 MSTORE DUP1 SWAP3 SWAP2 SWAP1 DUP2 DUP2 MSTORE PUSH1 0x20 ADD DUP3 DUP1 SLOAD PUSH2 0x2A8 SWAP1 PUSH2 0x953 JUMP JUMPDEST DUP1 ISZERO PUSH2 0x2F3 JUMPI DUP1 PUSH1 0x1F LT PUSH2 0x2CA JUMPI PUSH2 0x100 DUP1 DUP4 SLOAD DIV MUL DUP4 MSTORE SWAP2 PUSH1 0x20 ADD SWAP2 PUSH2 0x2F3 JUMP JUMPDEST DUP3 ADD SWAP2 SWAP1 PUSH0 MSTORE PUSH1 0x20 PUSH0 KECCAK256 SWAP1 JUMPDEST DUP2 SLOAD DUP2 MSTORE SWAP1 PUSH1 0x1 ADD SWAP1 PUSH1 0x20 ADD DUP1 DUP4 GT PUSH2 0x2D6 JUMPI DUP3 SWAP1 SUB PUSH1 0x1F AND DUP3 ADD SWAP2 JUMPDEST POP POP POP POP POP SWAP1 DUP1 PUSH1 0x1 ADD SLOAD SWAP1 DUP1 PUSH1 0x2 ADD DUP1 SLOAD PUSH2 0x30E SWAP1 PUSH2 0x953 JUMP JUMPDEST DUP1 PUSH1 0x1F ADD PUSH1 0x20 DUP1 SWAP2 DIV MUL PUSH1 0x20 ADD PUSH1 0x40 MLOAD SWAP1 DUP2 ADD PUSH1 0x40 MSTORE DUP1 SWAP3 SWAP2 SWAP1 DUP2 DUP2 MSTORE PUSH1 0x20 ADD DUP3 DUP1 SLOAD PUSH2 0x33A SWAP1 PUSH2 0x953 JUMP JUMPDEST DUP1 ISZERO PUSH2 0x385 JUMPI DUP1 PUSH1 0x1F LT PUSH2 0x35C JUMPI PUSH2 0x100 DUP1 DUP4 SLOAD DIV MUL DUP4 MSTORE SWAP2 PUSH1 0x20 ADD SWAP2 PUSH2 0x385 JUMP JUMPDEST DUP3 ADD SWAP2 SWAP1 PUSH0 MSTORE PUSH1 0x20 PUSH0 KECCAK256 SWAP1 JUMPDEST DUP2 SLOAD DUP2 MSTORE SWAP1 PUSH1 0x1 ADD SWAP1 PUSH1 0x20 ADD DUP1 DUP4 GT PUSH2 0x368 JUMPI DUP3 SWAP1 SUB PUSH1 0x1F AND DUP3 ADD SWAP2 JUMPDEST POP POP POP POP POP SWAP1 DUP1 PUSH1 0x3 ADD PUSH0 SWAP1 SLOAD SWAP1 PUSH2 0x100 EXP SWAP1 DIV PUSH1 0xFF AND SWAP1 POP DUP5 JUMP JUMPDEST PUSH1 0x60 PUSH0 PUSH1 0x60 PUSH0 DUP1 PUSH0 DUP1 DUP8 PUSH20 0xFFFFFFFFFFFFFFFFFFFFFFFFFFFFFFFFFFFFFFFF AND PUSH20 0xFFFFFFFFFFFFFFFFFFFFFFFFFFFFFFFFFFFFFFFF AND DUP2 MSTORE PUSH1 0x20 ADD SWAP1 DUP2 MSTORE PUSH1 0x20 ADD PUSH0 KECCAK256 PUSH1 0x40 MLOAD DUP1 PUSH1 0x80 ADD PUSH1 0x40 MSTORE SWAP1 DUP2 PUSH0 DUP3 ADD DUP1 SLOAD PUSH2 0x3FE SWAP1 PUSH2 0x953 JUMP JUMPDEST DUP1 PUSH1 0x1F ADD PUSH1 0x20 DUP1 SWAP2 DIV MUL PUSH1 0x20 ADD PUSH1 0x40 MLOAD SWAP1 DUP2 ADD PUSH1 0x40 MSTORE DUP1 SWAP3 SWAP2 SWAP1 DUP2 DUP2 MSTORE PUSH1 0x20 ADD DUP3 DUP1 SLOAD PUSH2 0x42A SWAP1 PUSH2 0x953 JUMP JUMPDEST DUP1 ISZERO PUSH2 0x475 JUMPI DUP1 PUSH1 0x1F LT PUSH2 0x44C JUMPI PUSH2 0x100 DUP1 DUP4 SLOAD DIV MUL DUP4 MSTORE SWAP2 PUSH1 0x20 ADD SWAP2 PUSH2 0x475 JUMP JUMPDEST DUP3 ADD SWAP2 SWAP1 PUSH0 MSTORE PUSH1 0x20 PUSH0 KECCAK256 SWAP1 JUMPDEST DUP2 SLOAD DUP2 MSTORE SWAP1 PUSH1 0x1 ADD SWAP1 PUSH1 0x20 ADD DUP1 DUP4 GT PUSH2 0x458 JUMPI DUP3 SWAP1 SUB PUSH1 0x1F AND DUP3 ADD SWAP2 JUMPDEST POP POP POP POP POP DUP2 MSTORE PUSH1 0x20 ADD PUSH1 0x1 DUP3 ADD SLOAD DUP2 MSTORE PUSH1 0x20 ADD PUSH1 0x2 DUP3 ADD DUP1 SLOAD PUSH2 0x498 SWAP1 PUSH2 0x953 JUMP JUMPDEST DUP1 PUSH1 0x1F ADD PUSH1 0x20 DUP1 SWAP2 DIV MUL PUSH1 0x20 ADD PUSH1 0x40 MLOAD SWAP1 DUP2 ADD PUSH1 0x40 MSTORE DUP1 SWAP3 SWAP2 SWAP1 DUP2 DUP2 MSTORE PUSH1 0x20 ADD DUP3 DUP1 SLOAD PUSH2 0x4C4 SWAP1 PUSH2 0x953 JUMP JUMPDEST DUP1 ISZERO PUSH2 0x50F JUMPI DUP1 PUSH1 0x1F LT PUSH2 0x4E6 JUMPI PUSH2 0x100 DUP1 DUP4 SLOAD DIV MUL DUP4 MSTORE SWAP2 PUSH1 0x20 ADD SWAP2 PUSH2 0x50F JUMP JUMPDEST DUP3 ADD SWAP2 SWAP1 PUSH0 MSTORE PUSH1 0x20 PUSH0 KECCAK256 SWAP1 JUMPDEST DUP2 SLOAD DUP2 MSTORE SWAP1 PUSH1 0x1 ADD SWAP1 PUSH1 0x20 ADD DUP1 DUP4 GT PUSH2 0x4F2 JUMPI DUP3 SWAP1 SUB PUSH1 0x1F AND DUP3 ADD SWAP2 JUMPDEST POP POP POP POP POP DUP2 MSTORE PUSH1 0x20 ADD PUSH1 0x3 DUP3 ADD PUSH0 SWAP1 SLOAD SWAP1 PUSH2 0x100 EXP SWAP1 DIV PUSH1 0xFF AND ISZERO ISZERO ISZERO ISZERO DUP2 MSTORE POP POP SWAP1 POP DUP1 PUSH0 ADD MLOAD DUP2 PUSH1 0x20 ADD MLOAD DUP3 PUSH1 0x40 ADD MLOAD DUP4 PUSH1 0x60 ADD MLOAD SWAP5 POP SWAP5 POP SWAP5 POP SWAP5 POP POP SWAP2 SWAP4 POP SWAP2 SWAP4 JUMP JUMPDEST PUSH0 PUSH1 0x40 MLOAD SWAP1 POP SWAP1 JUMP JUMPDEST PUSH0 DUP1 REVERT JUMPDEST PUSH0 DUP1 REVERT JUMPDEST PUSH0 DUP1 REVERT JUMPDEST PUSH0 DUP1 REVERT JUMPDEST PUSH0 PUSH1 0x1F NOT PUSH1 0x1F DUP4 ADD AND SWAP1 POP SWAP2 SWAP1 POP JUMP JUMPDEST PUSH32 0x4E487B7100000000000000000000000000000000000000000000000000000000 PUSH0 MSTORE PUSH1 0x41 PUSH1 0x4 MSTORE PUSH1 0x24 PUSH0 REVERT JUMPDEST PUSH2 0x5B6 DUP3 PUSH2 0x570 JUMP JUMPDEST DUP2 ADD DUP2 DUP2 LT PUSH8 0xFFFFFFFFFFFFFFFF DUP3 GT OR ISZERO PUSH2 0x5D5 JUMPI PUSH2 0x5D4 PUSH2 0x580 JUMP JUMPDEST JUMPDEST DUP1 PUSH1 0x40 MSTORE POP POP POP JUMP JUMPDEST PUSH0 PUSH2 0x5E7 PUSH2 0x557 JUMP JUMPDEST SWAP1 POP PUSH2 0x5F3 DUP3 DUP3 PUSH2 0x5AD JUMP JUMPDEST SWAP2 SWAP1 POP JUMP JUMPDEST PUSH0 PUSH8 0xFFFFFFFFFFFFFFFF DUP3 GT ISZERO PUSH2 0x612 JUMPI PUSH2 0x611 PUSH2 0x580 JUMP JUMPDEST JUMPDEST PUSH2 0x61B DUP3 PUSH2 0x570 JUMP JUMPDEST SWAP1 POP PUSH1 0x20 DUP2 ADD SWAP1 POP SWAP2 SWAP1 POP JUMP JUMPDEST DUP3 DUP2 DUP4 CALLDATACOPY PUSH0 DUP4 DUP4 ADD MSTORE POP POP POP JUMP JUMPDEST PUSH0 PUSH2 0x648 PUSH2 0x643 DUP5 PUSH2 0x5F8 JUMP JUMPDEST PUSH2 0x5DE JUMP JUMPDEST SWAP1 POP DUP3 DUP2 MSTORE PUSH1 0x20 DUP2 ADD DUP5 DUP5 DUP5 ADD GT ISZERO PUSH2 0x664 JUMPI PUSH2 0x663 PUSH2 0x56C JUMP JUMPDEST JUMPDEST PUSH2 0x66F DUP5 DUP3 DUP6 PUSH2 0x628 JUMP JUMPDEST POP SWAP4 SWAP3 POP POP POP JUMP JUMPDEST PUSH0 DUP3 PUSH1 0x1F DUP4 ADD SLT PUSH2 0x68B JUMPI PUSH2 0x68A PUSH2 0x568 JUMP JUMPDEST JUMPDEST DUP2 CALLDATALOAD PUSH2 0x69B DUP5 DUP3 PUSH1 0x20 DUP7 ADD PUSH2 0x636 JUMP JUMPDEST SWAP2 POP POP SWAP3 SWAP2 POP POP JUMP JUMPDEST PUSH0 DUP2 SWAP1 POP SWAP2 SWAP1 POP JUMP JUMPDEST PUSH2 0x6B6 DUP2 PUSH2 0x6A4 JUMP JUMPDEST DUP2 EQ PUSH2 0x6C0 JUMPI PUSH0 DUP1 REVERT JUMPDEST POP JUMP JUMPDEST PUSH0 DUP2 CALLDATALOAD SWAP1 POP PUSH2 0x6D1 DUP2 PUSH2 0x6AD JUMP JUMPDEST SWAP3 SWAP2 POP POP JUMP JUMPDEST PUSH0 DUP1 PUSH0 PUSH1 0x60 DUP5 DUP7 SUB SLT ISZERO PUSH2 0x6EE JUMPI PUSH2 0x6ED PUSH2 0x560 JUMP JUMPDEST JUMPDEST PUSH0 DUP5 ADD CALLDATALOAD PUSH8 0xFFFFFFFFFFFFFFFF DUP2 GT ISZERO PUSH2 0x70B JUMPI PUSH2 0x70A PUSH2 0x564 JUMP JUMPDEST JUMPDEST PUSH2 0x717 DUP7 DUP3 DUP8 ADD PUSH2 0x677 JUMP JUMPDEST SWAP4 POP POP PUSH1 0x20 PUSH2 0x728 DUP7 DUP3 DUP8 ADD PUSH2 0x6C3 JUMP JUMPDEST SWAP3 POP POP PUSH1 0x40 DUP5 ADD CALLDATALOAD PUSH8 0xFFFFFFFFFFFFFFFF DUP2 GT ISZERO PUSH2 0x749 JUMPI PUSH2 0x748 PUSH2 0x564 JUMP JUMPDEST JUMPDEST PUSH2 0x755 DUP7 DUP3 DUP8 ADD PUSH2 0x677 JUMP JUMPDEST SWAP2 POP POP SWAP3 POP SWAP3 POP SWAP3 JUMP JUMPDEST PUSH0 PUSH20 0xFFFFFFFFFFFFFFFFFFFFFFFFFFFFFFFFFFFFFFFF DUP3 AND SWAP1 POP SWAP2 SWAP1 POP JUMP JUMPDEST PUSH0 PUSH2 0x788 DUP3 PUSH2 0x75F JUMP JUMPDEST SWAP1 POP SWAP2 SWAP1 POP JUMP JUMPDEST PUSH2 0x798 DUP2 PUSH2 0x77E JUMP JUMPDEST DUP2 EQ PUSH2 0x7A2 JUMPI PUSH0 DUP1 REVERT JUMPDEST POP JUMP JUMPDEST PUSH0 DUP2 CALLDATALOAD SWAP1 POP PUSH2 0x7B3 DUP2 PUSH2 0x78F JUMP JUMPDEST SWAP3 SWAP2 POP POP JUMP JUMPDEST PUSH0 PUSH1 0x20 DUP3 DUP5 SUB SLT ISZERO PUSH2 0x7CE JUMPI PUSH2 0x7CD PUSH2 0x560 JUMP JUMPDEST JUMPDEST PUSH0 PUSH2 0x7DB DUP5 DUP3 DUP6 ADD PUSH2 0x7A5 JUMP JUMPDEST SWAP2 POP POP SWAP3 SWAP2 POP POP JUMP JUMPDEST PUSH0 DUP2 MLOAD SWAP1 POP SWAP2 SWAP1 POP JUMP JUMPDEST PUSH0 DUP3 DUP3 MSTORE PUSH1 0x20 DUP3 ADD SWAP1 POP SWAP3 SWAP2 POP POP JUMP JUMPDEST DUP3 DUP2 DUP4 MCOPY PUSH0 DUP4 DUP4 ADD MSTORE POP POP POP JUMP JUMPDEST PUSH0 PUSH2 0x816 DUP3 PUSH2 0x7E4 JUMP JUMPDEST PUSH2 0x820 DUP2 DUP6 PUSH2 0x7EE JUMP JUMPDEST SWAP4 POP PUSH2 0x830 DUP2 DUP6 PUSH1 0x20 DUP7 ADD PUSH2 0x7FE JUMP JUMPDEST PUSH2 0x839 DUP2 PUSH2 0x570 JUMP JUMPDEST DUP5 ADD SWAP2 POP POP SWAP3 SWAP2 POP POP JUMP JUMPDEST PUSH2 0x84D DUP2 PUSH2 0x6A4 JUMP JUMPDEST DUP3 MSTORE POP POP JUMP JUMPDEST PUSH0 DUP2 ISZERO ISZERO SWAP1 POP SWAP2 SWAP1 POP JUMP JUMPDEST PUSH2 0x867 DUP2 PUSH2 0x853 JUMP JUMPDEST DUP3 MSTORE POP POP JUMP JUMPDEST PUSH0 PUSH1 0x80 DUP3 ADD SWAP1 POP DUP2 DUP2 SUB PUSH0 DUP4 ADD MSTORE PUSH2 0x885 DUP2 DUP8 PUSH2 0x80C JUMP JUMPDEST SWAP1 POP PUSH2 0x894 PUSH1 0x20 DUP4 ADD DUP7 PUSH2 0x844 JUMP JUMPDEST DUP2 DUP2 SUB PUSH1 0x40 DUP4 ADD MSTORE PUSH2 0x8A6 DUP2 DUP6 PUSH2 0x80C JUMP JUMPDEST SWAP1 POP PUSH2 0x8B5 PUSH1 0x60 DUP4 ADD DUP5 PUSH2 0x85E JUMP JUMPDEST SWAP6 SWAP5 POP POP POP POP POP JUMP JUMPDEST PUSH32 0x5573657220697320616C726561647920726567697374657265642E0000000000 PUSH0 DUP3 ADD MSTORE POP JUMP JUMPDEST PUSH0 PUSH2 0x8F2 PUSH1 0x1B DUP4 PUSH2 0x7EE JUMP JUMPDEST SWAP2 POP PUSH2 0x8FD DUP3 PUSH2 0x8BE JUMP JUMPDEST PUSH1 0x20 DUP3 ADD SWAP1 POP SWAP2 SWAP1 POP JUMP JUMPDEST PUSH0 PUSH1 0x20 DUP3 ADD SWAP1 POP DUP2 DUP2 SUB PUSH0 DUP4 ADD MSTORE PUSH2 0x91F DUP2 PUSH2 0x8E6 JUMP JUMPDEST SWAP1 POP SWAP2 SWAP1 POP JUMP JUMPDEST PUSH32 0x4E487B7100000000000000000000000000000000000000000000000000000000 PUSH0 MSTORE PUSH1 0x22 PUSH1 0x4 MSTORE PUSH1 0x24 PUSH0 REVERT JUMPDEST PUSH0 PUSH1 0x2 DUP3 DIV SWAP1 POP PUSH1 0x1 DUP3 AND DUP1 PUSH2 0x96A JUMPI PUSH1 0x7F DUP3 AND SWAP2 POP JUMPDEST PUSH1 0x20 DUP3 LT DUP2 SUB PUSH2 0x97D JUMPI PUSH2 0x97C PUSH2 0x926 JUMP JUMPDEST JUMPDEST POP SWAP2 SWAP1 POP JUMP JUMPDEST PUSH0 DUP2 SWAP1 POP DUP2 PUSH0 MSTORE PUSH1 0x20 PUSH0 KECCAK256 SWAP1 POP SWAP2 SWAP1 POP JUMP JUMPDEST PUSH0 PUSH1 0x20 PUSH1 0x1F DUP4 ADD DIV SWAP1 POP SWAP2 SWAP1 POP JUMP JUMPDEST PUSH0 DUP3 DUP3 SHL SWAP1 POP SWAP3 SWAP2 POP POP JUMP JUMPDEST PUSH0 PUSH1 0x8 DUP4 MUL PUSH2 0x9DF PUSH32 0xFFFFFFFFFFFFFFFFFFFFFFFFFFFFFFFFFFFFFFFFFFFFFFFFFFFFFFFFFFFFFFFF DUP3 PUSH2 0x9A4 JUMP JUMPDEST PUSH2 0x9E9 DUP7 DUP4 PUSH2 0x9A4 JUMP JUMPDEST SWAP6 POP DUP1 NOT DUP5 AND SWAP4 POP DUP1 DUP7 AND DUP5 OR SWAP3 POP POP POP SWAP4 SWAP3 POP POP POP JUMP JUMPDEST PUSH0 DUP2 SWAP1 POP SWAP2 SWAP1 POP JUMP JUMPDEST PUSH0 PUSH2 0xA24 PUSH2 0xA1F PUSH2 0xA1A DUP5 PUSH2 0x6A4 JUMP JUMPDEST PUSH2 0xA01 JUMP JUMPDEST PUSH2 0x6A4 JUMP JUMPDEST SWAP1 POP SWAP2 SWAP1 POP JUMP JUMPDEST PUSH0 DUP2 SWAP1 POP SWAP2 SWAP1 POP JUMP JUMPDEST PUSH2 0xA3D DUP4 PUSH2 0xA0A JUMP JUMPDEST PUSH2 0xA51 PUSH2 0xA49 DUP3 PUSH2 0xA2B JUMP JUMPDEST DUP5 DUP5 SLOAD PUSH2 0x9B0 JUMP JUMPDEST DUP3 SSTORE POP POP POP POP JUMP JUMPDEST PUSH0 SWAP1 JUMP JUMPDEST PUSH2 0xA65 PUSH2 0xA59 JUMP JUMPDEST PUSH2 0xA70 DUP2 DUP5 DUP5 PUSH2 0xA34 JUMP JUMPDEST POP POP POP JUMP JUMPDEST JUMPDEST DUP2 DUP2 LT ISZERO PUSH2 0xA93 JUMPI PUSH2 0xA88 PUSH0 DUP3 PUSH2 0xA5D JUMP JUMPDEST PUSH1 0x1 DUP2 ADD SWAP1 POP PUSH2 0xA76 JUMP JUMPDEST POP POP JUMP JUMPDEST PUSH1 0x1F DUP3 GT ISZERO PUSH2 0xAD8 JUMPI PUSH2 0xAA9 DUP2 PUSH2 0x983 JUMP JUMPDEST PUSH2 0xAB2 DUP5 PUSH2 0x995 JUMP JUMPDEST DUP2 ADD PUSH1 0x20 DUP6 LT ISZERO PUSH2 0xAC1 JUMPI DUP2 SWAP1 POP JUMPDEST PUSH2 0xAD5 PUSH2 0xACD DUP6 PUSH2 0x995 JUMP JUMPDEST DUP4 ADD DUP3 PUSH2 0xA75 JUMP JUMPDEST POP POP JUMPDEST POP POP POP JUMP JUMPDEST PUSH0 DUP3 DUP3 SHR SWAP1 POP SWAP3 SWAP2 POP POP JUMP JUMPDEST PUSH0 PUSH2 0xAF8 PUSH0 NOT DUP5 PUSH1 0x8 MUL PUSH2 0xADD JUMP JUMPDEST NOT DUP1 DUP4 AND SWAP2 POP POP SWAP3 SWAP2 POP POP JUMP JUMPDEST PUSH0 PUSH2 0xB10 DUP4 DUP4 PUSH2 0xAE9 JUMP JUMPDEST SWAP2 POP DUP3 PUSH1 0x2 MUL DUP3 OR SWAP1 POP SWAP3 SWAP2 POP POP JUMP JUMPDEST PUSH2 0xB29 DUP3 PUSH2 0x7E4 JUMP JUMPDEST PUSH8 0xFFFFFFFFFFFFFFFF DUP2 GT ISZERO PUSH2 0xB42 JUMPI PUSH2 0xB41 PUSH2 0x580 JUMP JUMPDEST JUMPDEST PUSH2 0xB4C DUP3 SLOAD PUSH2 0x953 JUMP JUMPDEST PUSH2 0xB57 DUP3 DUP3 DUP6 PUSH2 0xA97 JUMP JUMPDEST PUSH0 PUSH1 0x20 SWAP1 POP PUSH1 0x1F DUP4 GT PUSH1 0x1 DUP2 EQ PUSH2 0xB88 JUMPI PUSH0 DUP5 ISZERO PUSH2 0xB76 JUMPI DUP3 DUP8 ADD MLOAD SWAP1 POP JUMPDEST PUSH2 0xB80 DUP6 DUP3 PUSH2 0xB05 JUMP JUMPDEST DUP7 SSTORE POP PUSH2 0xBE7 JUMP JUMPDEST PUSH1 0x1F NOT DUP5 AND PUSH2 0xB96 DUP7 PUSH2 0x983 JUMP JUMPDEST PUSH0 JUMPDEST DUP3 DUP2 LT ISZERO PUSH2 0xBBD JUMPI DUP5 DUP10 ADD MLOAD DUP3 SSTORE PUSH1 0x1 DUP3 ADD SWAP2 POP PUSH1 0x20 DUP6 ADD SWAP5 POP PUSH1 0x20 DUP2 ADD SWAP1 POP PUSH2 0xB98 JUMP JUMPDEST DUP7 DUP4 LT ISZERO PUSH2 0xBDA JUMPI DUP5 DUP10 ADD MLOAD PUSH2 0xBD6 PUSH1 0x1F DUP10 AND DUP3 PUSH2 0xAE9 JUMP JUMPDEST DUP4 SSTORE POP JUMPDEST PUSH1 0x1 PUSH1 0x2 DUP9 MUL ADD DUP9 SSTORE POP POP POP JUMPDEST POP POP POP POP POP POP JUMP JUMPDEST PUSH0 PUSH1 0x60 DUP3 ADD SWAP1 POP DUP2 DUP2 SUB PUSH0 DUP4 ADD MSTORE PUSH2 0xC07 DUP2 DUP7 PUSH2 0x80C JUMP JUMPDEST SWAP1 POP PUSH2 0xC16 PUSH1 0x20 DUP4 ADD DUP6 PUSH2 0x844 JUMP JUMPDEST DUP2 DUP2 SUB PUSH1 0x40 DUP4 ADD MSTORE PUSH2 0xC28 DUP2 DUP5 PUSH2 0x80C JUMP JUMPDEST SWAP1 POP SWAP5 SWAP4 POP POP POP POP JUMP INVALID LOG2 PUSH5 0x6970667358 0x22 SLT KECCAK256 STOP 0xEF 0x2B PUSH11 0x20720EE28FCA9A1FACE42C 0xC5 0xD6 DUP15 0xC5 PUSH20 0xEF7ACA45966BAA711AC80CD364736F6C63430008 BYTE STOP CALLER "
				},
				"gasEstimates": {
					"creation": {
						"codeDepositCost": "635200",
						"executionCost": "668",
						"totalCost": "635868"
					},
					"external": {
						"getUserDetails(address)": "infinite",
						"registerUser(string,uint256,string)": "infinite",
						"users(address)": "infinite"
					}
				},
				"methodIdentifiers": {
					"getUserDetails(address)": "cc3d967b",
					"registerUser(string,uint256,string)": "62609da4",
					"users(address)": "a87430ba"
				}
			},
			"storageLayout": {
				"storage": [
					{
						"astId": 15,
						"contract": "UserManager.sol:UserManager",
						"label": "users",
						"offset": 0,
						"slot": "0",
						"type": "t_mapping(t_address,t_struct(User)10_storage)"
					}
				],
				"types": {
					"t_address": {
						"encoding": "inplace",
						"label": "address",
						"numberOfBytes": "20"
					},
					"t_bool": {
						"encoding": "inplace",
						"label": "bool",
						"numberOfBytes": "1"
					},
					"t_mapping(t_address,t_struct(User)10_storage)": {
						"encoding": "mapping",
						"key": "t_address",
						"label": "mapping(address => struct UserManager.User)",
						"numberOfBytes": "32",
						"value": "t_struct(User)10_storage"
					},
					"t_string_storage": {
						"encoding": "bytes",
						"label": "string",
						"numberOfBytes": "32"
					},
					"t_struct(User)10_storage": {
						"encoding": "inplace",
						"label": "struct UserManager.User",
						"members": [
							{
								"astId": 3,
								"contract": "UserManager.sol:UserManager",
								"label": "name",
								"offset": 0,
								"slot": "0",
								"type": "t_string_storage"
							},
							{
								"astId": 5,
								"contract": "UserManager.sol:UserManager",
								"label": "age",
								"offset": 0,
								"slot": "1",
								"type": "t_uint256"
							},
							{
								"astId": 7,
								"contract": "UserManager.sol:UserManager",
								"label": "email",
								"offset": 0,
								"slot": "2",
								"type": "t_string_storage"
							},
							{
								"astId": 9,
								"contract": "UserManager.sol:UserManager",
								"label": "isRegistered",
								"offset": 0,
								"slot": "3",
								"type": "t_bool"
							}
						],
						"numberOfBytes": "128"
					},
					"t_uint256": {
						"encoding": "inplace",
						"label": "uint256",
						"numberOfBytes": "32"
					}
				}
			},
			"userdoc": {
				"kind": "user",
				"methods": {},
				"version": 1
			}
		}
	}
}