{
	"data": {
		"bytecode": {
			"linkReferences": {},
			"object": "6080604052348015600e575f80fd5b50604051610b3e380380610b3e8339818101604052810190602e9190606c565b80600381905550506092565b5f80fd5b5f819050919050565b604e81603e565b81146057575f80fd5b50565b5f815190506066816047565b92915050565b5f60208284031215607e57607d603a565b5b5f608984828501605a565b91505092915050565b610a9f8061009f5f395ff3fe608060405234801561000f575f80fd5b506004361061007b575f3560e01c8063aec2393b11610059578063aec2393b146100d7578063c47f0027146100f5578063d832d92f14610111578063dc11799b1461012f5761007b565b806306fdde031461007f5780633e109a191461009d5780639554d3f5146100bb575b5f80fd5b61008761014b565b604051610094919061039e565b60405180910390f35b6100a56101d6565b6040516100b291906103d6565b60405180910390f35b6100d560048036038101906100d0919061042a565b6101dc565b005b6100df61023c565b6040516100ec91906103d6565b60405180910390f35b61010f600480360381019061010a9190610581565b610242565b005b610119610254565b60405161012691906105e2565b60405180910390f35b610149600480360381019061014491906105fb565b610266565b005b5f805461015790610682565b80601f016020809104026020016040519081016040528092919081815260200182805461018390610682565b80156101ce5780601f106101a5576101008083540402835291602001916101ce565b820191905f5260205f20905b8154815290600101906020018083116101b157829003601f168201915b505050505081565b60035481565b806001819055506101eb6102c7565b60025f9054906101000a900460ff16610239576040517f08c379a000000000000000000000000000000000000000000000000000000000815260040161023090610722565b60405180910390fd5b50565b60015481565b805f908161025091906108dd565b5050565b60025f9054906101000a900460ff1681565b61026f82610242565b610278816101dc565b7fc5cc3f4ef8eb91c9653a3ae2537b036cbc66c00c784cb6fce5a63771de2bd32e5f60015460025f9054906101000a900460ff166040516102bb93929190610a2d565b60405180910390a15050565b600354600154101560025f6101000a81548160ff0219169083151502179055507f29aef3bb9999e33a6bbb8629a2a9ff1a5404a10116975e2e4bc2d87bd17ebfb760025f9054906101000a900460ff1660405161032491906105e2565b60405180910390a1565b5f81519050919050565b5f82825260208201905092915050565b8281835e5f83830152505050565b5f601f19601f8301169050919050565b5f6103708261032e565b61037a8185610338565b935061038a818560208601610348565b61039381610356565b840191505092915050565b5f6020820190508181035f8301526103b68184610366565b905092915050565b5f819050919050565b6103d0816103be565b82525050565b5f6020820190506103e95f8301846103c7565b92915050565b5f604051905090565b5f80fd5b5f80fd5b610409816103be565b8114610413575f80fd5b50565b5f8135905061042481610400565b92915050565b5f6020828403121561043f5761043e6103f8565b5b5f61044c84828501610416565b91505092915050565b5f80fd5b5f80fd5b7f4e487b71000000000000000000000000000000000000000000000000000000005f52604160045260245ffd5b61049382610356565b810181811067ffffffffffffffff821117156104b2576104b161045d565b5b80604052505050565b5f6104c46103ef565b90506104d0828261048a565b919050565b5f67ffffffffffffffff8211156104ef576104ee61045d565b5b6104f882610356565b9050602081019050919050565b828183375f83830152505050565b5f610525610520846104d5565b6104bb565b90508281526020810184848401111561054157610540610459565b5b61054c848285610505565b509392505050565b5f82601f83011261056857610567610455565b5b8135610578848260208601610513565b91505092915050565b5f60208284031215610596576105956103f8565b5b5f82013567ffffffffffffffff8111156105b3576105b26103fc565b5b6105bf84828501610554565b91505092915050565b5f8115159050919050565b6105dc816105c8565b82525050565b5f6020820190506105f55f8301846105d3565b92915050565b5f8060408385031215610611576106106103f8565b5b5f83013567ffffffffffffffff81111561062e5761062d6103fc565b5b61063a85828601610554565b925050602061064b85828601610416565b9150509250929050565b7f4e487b71000000000000000000000000000000000000000000000000000000005f52602260045260245ffd5b5f600282049050600182168061069957607f821691505b6020821081036106ac576106ab610655565b5b50919050565b7f42696420616d6f756e7420697320746f6f206c6f772e204e6f7420656c6967695f8201527f626c6520746f206269642e000000000000000000000000000000000000000000602082015250565b5f61070c602b83610338565b9150610717826106b2565b604082019050919050565b5f6020820190508181035f83015261073981610700565b9050919050565b5f819050815f5260205f209050919050565b5f6020601f8301049050919050565b5f82821b905092915050565b5f6008830261079c7fffffffffffffffffffffffffffffffffffffffffffffffffffffffffffffffff82610761565b6107a68683610761565b95508019841693508086168417925050509392505050565b5f819050919050565b5f6107e16107dc6107d7846103be565b6107be565b6103be565b9050919050565b5f819050919050565b6107fa836107c7565b61080e610806826107e8565b84845461076d565b825550505050565b5f90565b610822610816565b61082d8184846107f1565b505050565b5b81811015610850576108455f8261081a565b600181019050610833565b5050565b601f8211156108955761086681610740565b61086f84610752565b8101602085101561087e578190505b61089261088a85610752565b830182610832565b50505b505050565b5f82821c905092915050565b5f6108b55f198460080261089a565b1980831691505092915050565b5f6108cd83836108a6565b9150826002028217905092915050565b6108e68261032e565b67ffffffffffffffff8111156108ff576108fe61045d565b5b6109098254610682565b610914828285610854565b5f60209050601f831160018114610945575f8415610933578287015190505b61093d85826108c2565b8655506109a4565b601f19841661095386610740565b5f5b8281101561097a57848901518255600182019150602085019450602081019050610955565b868310156109975784890151610993601f8916826108a6565b8355505b6001600288020188555050505b505050505050565b5f81546109b881610682565b6109c28186610338565b9450600182165f81146109dc57600181146109f257610a24565b60ff198316865281151560200286019350610a24565b6109fb85610740565b5f5b83811015610a1c578154818901526001820191506020810190506109fd565b808801955050505b50505092915050565b5f6060820190508181035f830152610a4581866109ac565b9050610a5460208301856103c7565b610a6160408301846105d3565b94935050505056fea264697066735822122063545252d30499bda46166decf325ddca4a87dccd2c35e17cb27a4b2633007b964736f6c634300081a0033",
			"opcodes": "PUSH1 0x80 PUSH1 0x40 MSTORE CALLVALUE DUP1 ISZERO PUSH1 0xE JUMPI PUSH0 DUP1 REVERT JUMPDEST POP PUSH1 0x40 MLOAD PUSH2 0xB3E CODESIZE SUB DUP1 PUSH2 0xB3E DUP4 CODECOPY DUP2 DUP2 ADD PUSH1 0x40 MSTORE DUP2 ADD SWAP1 PUSH1 0x2E SWAP2 SWAP1 PUSH1 0x6C JUMP JUMPDEST DUP1 PUSH1 0x3 DUP2 SWAP1 SSTORE POP POP PUSH1 0x92 JUMP JUMPDEST PUSH0 DUP1 REVERT JUMPDEST PUSH0 DUP2 SWAP1 POP SWAP2 SWAP1 POP JUMP JUMPDEST PUSH1 0x4E DUP2 PUSH1 0x3E JUMP JUMPDEST DUP2 EQ PUSH1 0x57 JUMPI PUSH0 DUP1 REVERT JUMPDEST POP JUMP JUMPDEST PUSH0 DUP2 MLOAD SWAP1 POP PUSH1 0x66 DUP2 PUSH1 0x47 JUMP JUMPDEST SWAP3 SWAP2 POP POP JUMP JUMPDEST PUSH0 PUSH1 0x20 DUP3 DUP5 SUB SLT ISZERO PUSH1 0x7E JUMPI PUSH1 0x7D PUSH1 0x3A JUMP JUMPDEST JUMPDEST PUSH0 PUSH1 0x89 DUP5 DUP3 DUP6 ADD PUSH1 0x5A JUMP JUMPDEST SWAP2 POP POP SWAP3 SWAP2 POP POP JUMP JUMPDEST PUSH2 0xA9F DUP1 PUSH2 0x9F PUSH0 CODECOPY PUSH0 RETURN INVALID PUSH1 0x80 PUSH1 0x40 MSTORE CALLVALUE DUP1 ISZERO PUSH2 0xF JUMPI PUSH0 DUP1 REVERT JUMPDEST POP PUSH1 0x4 CALLDATASIZE LT PUSH2 0x7B JUMPI PUSH0 CALLDATALOAD PUSH1 0xE0 SHR DUP1 PUSH4 0xAEC2393B GT PUSH2 0x59 JUMPI DUP1 PUSH4 0xAEC2393B EQ PUSH2 0xD7 JUMPI DUP1 PUSH4 0xC47F0027 EQ PUSH2 0xF5 JUMPI DUP1 PUSH4 0xD832D92F EQ PUSH2 0x111 JUMPI DUP1 PUSH4 0xDC11799B EQ PUSH2 0x12F JUMPI PUSH2 0x7B JUMP JUMPDEST DUP1 PUSH4 0x6FDDE03 EQ PUSH2 0x7F JUMPI DUP1 PUSH4 0x3E109A19 EQ PUSH2 0x9D JUMPI DUP1 PUSH4 0x9554D3F5 EQ PUSH2 0xBB JUMPI JUMPDEST PUSH0 DUP1 REVERT JUMPDEST PUSH2 0x87 PUSH2 0x14B JUMP JUMPDEST PUSH1 0x40 MLOAD PUSH2 0x94 SWAP2 SWAP1 PUSH2 0x39E JUMP JUMPDEST PUSH1 0x40 MLOAD DUP1 SWAP2 SUB SWAP1 RETURN JUMPDEST PUSH2 0xA5 PUSH2 0x1D6 JUMP JUMPDEST PUSH1 0x40 MLOAD PUSH2 0xB2 SWAP2 SWAP1 PUSH2 0x3D6 JUMP JUMPDEST PUSH1 0x40 MLOAD DUP1 SWAP2 SUB SWAP1 RETURN JUMPDEST PUSH2 0xD5 PUSH1 0x4 DUP1 CALLDATASIZE SUB DUP2 ADD SWAP1 PUSH2 0xD0 SWAP2 SWAP1 PUSH2 0x42A JUMP JUMPDEST PUSH2 0x1DC JUMP JUMPDEST STOP JUMPDEST PUSH2 0xDF PUSH2 0x23C JUMP JUMPDEST PUSH1 0x40 MLOAD PUSH2 0xEC SWAP2 SWAP1 PUSH2 0x3D6 JUMP JUMPDEST PUSH1 0x40 MLOAD DUP1 SWAP2 SUB SWAP1 RETURN JUMPDEST PUSH2 0x10F PUSH1 0x4 DUP1 CALLDATASIZE SUB DUP2 ADD SWAP1 PUSH2 0x10A SWAP2 SWAP1 PUSH2 0x581 JUMP JUMPDEST PUSH2 0x242 JUMP JUMPDEST STOP JUMPDEST PUSH2 0x119 PUSH2 0x254 JUMP JUMPDEST PUSH1 0x40 MLOAD PUSH2 0x126 SWAP2 SWAP1 PUSH2 0x5E2 JUMP JUMPDEST PUSH1 0x40 MLOAD DUP1 SWAP2 SUB SWAP1 RETURN JUMPDEST PUSH2 0x149 PUSH1 0x4 DUP1 CALLDATASIZE SUB DUP2 ADD SWAP1 PUSH2 0x144 SWAP2 SWAP1 PUSH2 0x5FB JUMP JUMPDEST PUSH2 0x266 JUMP JUMPDEST STOP JUMPDEST PUSH0 DUP1 SLOAD PUSH2 0x157 SWAP1 PUSH2 0x682 JUMP JUMPDEST DUP1 PUSH1 0x1F ADD PUSH1 0x20 DUP1 SWAP2 DIV MUL PUSH1 0x20 ADD PUSH1 0x40 MLOAD SWAP1 DUP2 ADD PUSH1 0x40 MSTORE DUP1 SWAP3 SWAP2 SWAP1 DUP2 DUP2 MSTORE PUSH1 0x20 ADD DUP3 DUP1 SLOAD PUSH2 0x183 SWAP1 PUSH2 0x682 JUMP JUMPDEST DUP1 ISZERO PUSH2 0x1CE JUMPI DUP1 PUSH1 0x1F LT PUSH2 0x1A5 JUMPI PUSH2 0x100 DUP1 DUP4 SLOAD DIV MUL DUP4 MSTORE SWAP2 PUSH1 0x20 ADD SWAP2 PUSH2 0x1CE JUMP JUMPDEST DUP3 ADD SWAP2 SWAP1 PUSH0 MSTORE PUSH1 0x20 PUSH0 KECCAK256 SWAP1 JUMPDEST DUP2 SLOAD DUP2 MSTORE SWAP1 PUSH1 0x1 ADD SWAP1 PUSH1 0x20 ADD DUP1 DUP4 GT PUSH2 0x1B1 JUMPI DUP3 SWAP1 SUB PUSH1 0x1F AND DUP3 ADD SWAP2 JUMPDEST POP POP POP POP POP DUP2 JUMP JUMPDEST PUSH1 0x3 SLOAD DUP2 JUMP JUMPDEST DUP1 PUSH1 0x1 DUP2 SWAP1 SSTORE POP PUSH2 0x1EB PUSH2 0x2C7 JUMP JUMPDEST PUSH1 0x2 PUSH0 SWAP1 SLOAD SWAP1 PUSH2 0x100 EXP SWAP1 DIV PUSH1 0xFF AND PUSH2 0x239 JUMPI PUSH1 0x40 MLOAD PUSH32 0x8C379A000000000000000000000000000000000000000000000000000000000 DUP2 MSTORE PUSH1 0x4 ADD PUSH2 0x230 SWAP1 PUSH2 0x722 JUMP JUMPDEST PUSH1 0x40 MLOAD DUP1 SWAP2 SUB SWAP1 REVERT JUMPDEST POP JUMP JUMPDEST PUSH1 0x1 SLOAD DUP2 JUMP JUMPDEST DUP1 PUSH0 SWAP1 DUP2 PUSH2 0x250 SWAP2 SWAP1 PUSH2 0x8DD JUMP JUMPDEST POP POP JUMP JUMPDEST PUSH1 0x2 PUSH0 SWAP1 SLOAD SWAP1 PUSH2 0x100 EXP SWAP1 DIV PUSH1 0xFF AND DUP2 JUMP JUMPDEST PUSH2 0x26F DUP3 PUSH2 0x242 JUMP JUMPDEST PUSH2 0x278 DUP2 PUSH2 0x1DC JUMP JUMPDEST PUSH32 0xC5CC3F4EF8EB91C9653A3AE2537B036CBC66C00C784CB6FCE5A63771DE2BD32E PUSH0 PUSH1 0x1 SLOAD PUSH1 0x2 PUSH0 SWAP1 SLOAD SWAP1 PUSH2 0x100 EXP SWAP1 DIV PUSH1 0xFF AND PUSH1 0x40 MLOAD PUSH2 0x2BB SWAP4 SWAP3 SWAP2 SWAP1 PUSH2 0xA2D JUMP JUMPDEST PUSH1 0x40 MLOAD DUP1 SWAP2 SUB SWAP1 LOG1 POP POP JUMP JUMPDEST PUSH1 0x3 SLOAD PUSH1 0x1 SLOAD LT ISZERO PUSH1 0x2 PUSH0 PUSH2 0x100 EXP DUP2 SLOAD DUP2 PUSH1 0xFF MUL NOT AND SWAP1 DUP4 ISZERO ISZERO MUL OR SWAP1 SSTORE POP PUSH32 0x29AEF3BB9999E33A6BBB8629A2A9FF1A5404A10116975E2E4BC2D87BD17EBFB7 PUSH1 0x2 PUSH0 SWAP1 SLOAD SWAP1 PUSH2 0x100 EXP SWAP1 DIV PUSH1 0xFF AND PUSH1 0x40 MLOAD PUSH2 0x324 SWAP2 SWAP1 PUSH2 0x5E2 JUMP JUMPDEST PUSH1 0x40 MLOAD DUP1 SWAP2 SUB SWAP1 LOG1 JUMP JUMPDEST PUSH0 DUP2 MLOAD SWAP1 POP SWAP2 SWAP1 POP JUMP JUMPDEST PUSH0 DUP3 DUP3 MSTORE PUSH1 0x20 DUP3 ADD SWAP1 POP SWAP3 SWAP2 POP POP JUMP JUMPDEST DUP3 DUP2 DUP4 MCOPY PUSH0 DUP4 DUP4 ADD MSTORE POP POP POP JUMP JUMPDEST PUSH0 PUSH1 0x1F NOT PUSH1 0x1F DUP4 ADD AND SWAP1 POP SWAP2 SWAP1 POP JUMP JUMPDEST PUSH0 PUSH2 0x370 DUP3 PUSH2 0x32E JUMP JUMPDEST PUSH2 0x37A DUP2 DUP6 PUSH2 0x338 JUMP JUMPDEST SWAP4 POP PUSH2 0x38A DUP2 DUP6 PUSH1 0x20 DUP7 ADD PUSH2 0x348 JUMP JUMPDEST PUSH2 0x393 DUP2 PUSH2 0x356 JUMP JUMPDEST DUP5 ADD SWAP2 POP POP SWAP3 SWAP2 POP POP JUMP JUMPDEST PUSH0 PUSH1 0x20 DUP3 ADD SWAP1 POP DUP2 DUP2 SUB PUSH0 DUP4 ADD MSTORE PUSH2 0x3B6 DUP2 DUP5 PUSH2 0x366 JUMP JUMPDEST SWAP1 POP SWAP3 SWAP2 POP POP JUMP JUMPDEST PUSH0 DUP2 SWAP1 POP SWAP2 SWAP1 POP JUMP JUMPDEST PUSH2 0x3D0 DUP2 PUSH2 0x3BE JUMP JUMPDEST DUP3 MSTORE POP POP JUMP JUMPDEST PUSH0 PUSH1 0x20 DUP3 ADD SWAP1 POP PUSH2 0x3E9 PUSH0 DUP4 ADD DUP5 PUSH2 0x3C7 JUMP JUMPDEST SWAP3 SWAP2 POP POP JUMP JUMPDEST PUSH0 PUSH1 0x40 MLOAD SWAP1 POP SWAP1 JUMP JUMPDEST PUSH0 DUP1 REVERT JUMPDEST PUSH0 DUP1 REVERT JUMPDEST PUSH2 0x409 DUP2 PUSH2 0x3BE JUMP JUMPDEST DUP2 EQ PUSH2 0x413 JUMPI PUSH0 DUP1 REVERT JUMPDEST POP JUMP JUMPDEST PUSH0 DUP2 CALLDATALOAD SWAP1 POP PUSH2 0x424 DUP2 PUSH2 0x400 JUMP JUMPDEST SWAP3 SWAP2 POP POP JUMP JUMPDEST PUSH0 PUSH1 0x20 DUP3 DUP5 SUB SLT ISZERO PUSH2 0x43F JUMPI PUSH2 0x43E PUSH2 0x3F8 JUMP JUMPDEST JUMPDEST PUSH0 PUSH2 0x44C DUP5 DUP3 DUP6 ADD PUSH2 0x416 JUMP JUMPDEST SWAP2 POP POP SWAP3 SWAP2 POP POP JUMP JUMPDEST PUSH0 DUP1 REVERT JUMPDEST PUSH0 DUP1 REVERT JUMPDEST PUSH32 0x4E487B7100000000000000000000000000000000000000000000000000000000 PUSH0 MSTORE PUSH1 0x41 PUSH1 0x4 MSTORE PUSH1 0x24 PUSH0 REVERT JUMPDEST PUSH2 0x493 DUP3 PUSH2 0x356 JUMP JUMPDEST DUP2 ADD DUP2 DUP2 LT PUSH8 0xFFFFFFFFFFFFFFFF DUP3 GT OR ISZERO PUSH2 0x4B2 JUMPI PUSH2 0x4B1 PUSH2 0x45D JUMP JUMPDEST JUMPDEST DUP1 PUSH1 0x40 MSTORE POP POP POP JUMP JUMPDEST PUSH0 PUSH2 0x4C4 PUSH2 0x3EF JUMP JUMPDEST SWAP1 POP PUSH2 0x4D0 DUP3 DUP3 PUSH2 0x48A JUMP JUMPDEST SWAP2 SWAP1 POP JUMP JUMPDEST PUSH0 PUSH8 0xFFFFFFFFFFFFFFFF DUP3 GT ISZERO PUSH2 0x4EF JUMPI PUSH2 0x4EE PUSH2 0x45D JUMP JUMPDEST JUMPDEST PUSH2 0x4F8 DUP3 PUSH2 0x356 JUMP JUMPDEST SWAP1 POP PUSH1 0x20 DUP2 ADD SWAP1 POP SWAP2 SWAP1 POP JUMP JUMPDEST DUP3 DUP2 DUP4 CALLDATACOPY PUSH0 DUP4 DUP4 ADD MSTORE POP POP POP JUMP JUMPDEST PUSH0 PUSH2 0x525 PUSH2 0x520 DUP5 PUSH2 0x4D5 JUMP JUMPDEST PUSH2 0x4BB JUMP JUMPDEST SWAP1 POP DUP3 DUP2 MSTORE PUSH1 0x20 DUP2 ADD DUP5 DUP5 DUP5 ADD GT ISZERO PUSH2 0x541 JUMPI PUSH2 0x540 PUSH2 0x459 JUMP JUMPDEST JUMPDEST PUSH2 0x54C DUP5 DUP3 DUP6 PUSH2 0x505 JUMP JUMPDEST POP SWAP4 SWAP3 POP POP POP JUMP JUMPDEST PUSH0 DUP3 PUSH1 0x1F DUP4 ADD SLT PUSH2 0x568 JUMPI PUSH2 0x567 PUSH2 0x455 JUMP JUMPDEST JUMPDEST DUP2 CALLDATALOAD PUSH2 0x578 DUP5 DUP3 PUSH1 0x20 DUP7 ADD PUSH2 0x513 JUMP JUMPDEST SWAP2 POP POP SWAP3 SWAP2 POP POP JUMP JUMPDEST PUSH0 PUSH1 0x20 DUP3 DUP5 SUB SLT ISZERO PUSH2 0x596 JUMPI PUSH2 0x595 PUSH2 0x3F8 JUMP JUMPDEST JUMPDEST PUSH0 DUP3 ADD CALLDATALOAD PUSH8 0xFFFFFFFFFFFFFFFF DUP2 GT ISZERO PUSH2 0x5B3 JUMPI PUSH2 0x5B2 PUSH2 0x3FC JUMP JUMPDEST JUMPDEST PUSH2 0x5BF DUP5 DUP3 DUP6 ADD PUSH2 0x554 JUMP JUMPDEST SWAP2 POP POP SWAP3 SWAP2 POP POP JUMP JUMPDEST PUSH0 DUP2 ISZERO ISZERO SWAP1 POP SWAP2 SWAP1 POP JUMP JUMPDEST PUSH2 0x5DC DUP2 PUSH2 0x5C8 JUMP JUMPDEST DUP3 MSTORE POP POP JUMP JUMPDEST PUSH0 PUSH1 0x20 DUP3 ADD SWAP1 POP PUSH2 0x5F5 PUSH0 DUP4 ADD DUP5 PUSH2 0x5D3 JUMP JUMPDEST SWAP3 SWAP2 POP POP JUMP JUMPDEST PUSH0 DUP1 PUSH1 0x40 DUP4 DUP6 SUB SLT ISZERO PUSH2 0x611 JUMPI PUSH2 0x610 PUSH2 0x3F8 JUMP JUMPDEST JUMPDEST PUSH0 DUP4 ADD CALLDATALOAD PUSH8 0xFFFFFFFFFFFFFFFF DUP2 GT ISZERO PUSH2 0x62E JUMPI PUSH2 0x62D PUSH2 0x3FC JUMP JUMPDEST JUMPDEST PUSH2 0x63A DUP6 DUP3 DUP7 ADD PUSH2 0x554 JUMP JUMPDEST SWAP3 POP POP PUSH1 0x20 PUSH2 0x64B DUP6 DUP3 DUP7 ADD PUSH2 0x416 JUMP JUMPDEST SWAP2 POP POP SWAP3 POP SWAP3 SWAP1 POP JUMP JUMPDEST PUSH32 0x4E487B7100000000000000000000000000000000000000000000000000000000 PUSH0 MSTORE PUSH1 0x22 PUSH1 0x4 MSTORE PUSH1 0x24 PUSH0 REVERT JUMPDEST PUSH0 PUSH1 0x2 DUP3 DIV SWAP1 POP PUSH1 0x1 DUP3 AND DUP1 PUSH2 0x699 JUMPI PUSH1 0x7F DUP3 AND SWAP2 POP JUMPDEST PUSH1 0x20 DUP3 LT DUP2 SUB PUSH2 0x6AC JUMPI PUSH2 0x6AB PUSH2 0x655 JUMP JUMPDEST JUMPDEST POP SWAP2 SWAP1 POP JUMP JUMPDEST PUSH32 0x42696420616D6F756E7420697320746F6F206C6F772E204E6F7420656C696769 PUSH0 DUP3 ADD MSTORE PUSH32 0x626C6520746F206269642E000000000000000000000000000000000000000000 PUSH1 0x20 DUP3 ADD MSTORE POP JUMP JUMPDEST PUSH0 PUSH2 0x70C PUSH1 0x2B DUP4 PUSH2 0x338 JUMP JUMPDEST SWAP2 POP PUSH2 0x717 DUP3 PUSH2 0x6B2 JUMP JUMPDEST PUSH1 0x40 DUP3 ADD SWAP1 POP SWAP2 SWAP1 POP JUMP JUMPDEST PUSH0 PUSH1 0x20 DUP3 ADD SWAP1 POP DUP2 DUP2 SUB PUSH0 DUP4 ADD MSTORE PUSH2 0x739 DUP2 PUSH2 0x700 JUMP JUMPDEST SWAP1 POP SWAP2 SWAP1 POP JUMP JUMPDEST PUSH0 DUP2 SWAP1 POP DUP2 PUSH0 MSTORE PUSH1 0x20 PUSH0 KECCAK256 SWAP1 POP SWAP2 SWAP1 POP JUMP JUMPDEST PUSH0 PUSH1 0x20 PUSH1 0x1F DUP4 ADD DIV SWAP1 POP SWAP2 SWAP1 POP JUMP JUMPDEST PUSH0 DUP3 DUP3 SHL SWAP1 POP SWAP3 SWAP2 POP POP JUMP JUMPDEST PUSH0 PUSH1 0x8 DUP4 MUL PUSH2 0x79C PUSH32 0xFFFFFFFFFFFFFFFFFFFFFFFFFFFFFFFFFFFFFFFFFFFFFFFFFFFFFFFFFFFFFFFF DUP3 PUSH2 0x761 JUMP JUMPDEST PUSH2 0x7A6 DUP7 DUP4 PUSH2 0x761 JUMP JUMPDEST SWAP6 POP DUP1 NOT DUP5 AND SWAP4 POP DUP1 DUP7 AND DUP5 OR SWAP3 POP POP POP SWAP4 SWAP3 POP POP POP JUMP JUMPDEST PUSH0 DUP2 SWAP1 POP SWAP2 SWAP1 POP JUMP JUMPDEST PUSH0 PUSH2 0x7E1 PUSH2 0x7DC PUSH2 0x7D7 DUP5 PUSH2 0x3BE JUMP JUMPDEST PUSH2 0x7BE JUMP JUMPDEST PUSH2 0x3BE JUMP JUMPDEST SWAP1 POP SWAP2 SWAP1 POP JUMP JUMPDEST PUSH0 DUP2 SWAP1 POP SWAP2 SWAP1 POP JUMP JUMPDEST PUSH2 0x7FA DUP4 PUSH2 0x7C7 JUMP JUMPDEST PUSH2 0x80E PUSH2 0x806 DUP3 PUSH2 0x7E8 JUMP JUMPDEST DUP5 DUP5 SLOAD PUSH2 0x76D JUMP JUMPDEST DUP3 SSTORE POP POP POP POP JUMP JUMPDEST PUSH0 SWAP1 JUMP JUMPDEST PUSH2 0x822 PUSH2 0x816 JUMP JUMPDEST PUSH2 0x82D DUP2 DUP5 DUP5 PUSH2 0x7F1 JUMP JUMPDEST POP POP POP JUMP JUMPDEST JUMPDEST DUP2 DUP2 LT ISZERO PUSH2 0x850 JUMPI PUSH2 0x845 PUSH0 DUP3 PUSH2 0x81A JUMP JUMPDEST PUSH1 0x1 DUP2 ADD SWAP1 POP PUSH2 0x833 JUMP JUMPDEST POP POP JUMP JUMPDEST PUSH1 0x1F DUP3 GT ISZERO PUSH2 0x895 JUMPI PUSH2 0x866 DUP2 PUSH2 0x740 JUMP JUMPDEST PUSH2 0x86F DUP5 PUSH2 0x752 JUMP JUMPDEST DUP2 ADD PUSH1 0x20 DUP6 LT ISZERO PUSH2 0x87E JUMPI DUP2 SWAP1 POP JUMPDEST PUSH2 0x892 PUSH2 0x88A DUP6 PUSH2 0x752 JUMP JUMPDEST DUP4 ADD DUP3 PUSH2 0x832 JUMP JUMPDEST POP POP JUMPDEST POP POP POP JUMP JUMPDEST PUSH0 DUP3 DUP3 SHR SWAP1 POP SWAP3 SWAP2 POP POP JUMP JUMPDEST PUSH0 PUSH2 0x8B5 PUSH0 NOT DUP5 PUSH1 0x8 MUL PUSH2 0x89A JUMP JUMPDEST NOT DUP1 DUP4 AND SWAP2 POP POP SWAP3 SWAP2 POP POP JUMP JUMPDEST PUSH0 PUSH2 0x8CD DUP4 DUP4 PUSH2 0x8A6 JUMP JUMPDEST SWAP2 POP DUP3 PUSH1 0x2 MUL DUP3 OR SWAP1 POP SWAP3 SWAP2 POP POP JUMP JUMPDEST PUSH2 0x8E6 DUP3 PUSH2 0x32E JUMP JUMPDEST PUSH8 0xFFFFFFFFFFFFFFFF DUP2 GT ISZERO PUSH2 0x8FF JUMPI PUSH2 0x8FE PUSH2 0x45D JUMP JUMPDEST JUMPDEST PUSH2 0x909 DUP3 SLOAD PUSH2 0x682 JUMP JUMPDEST PUSH2 0x914 DUP3 DUP3 DUP6 PUSH2 0x854 JUMP JUMPDEST PUSH0 PUSH1 0x20 SWAP1 POP PUSH1 0x1F DUP4 GT PUSH1 0x1 DUP2 EQ PUSH2 0x945 JUMPI PUSH0 DUP5 ISZERO PUSH2 0x933 JUMPI DUP3 DUP8 ADD MLOAD SWAP1 POP JUMPDEST PUSH2 0x93D DUP6 DUP3 PUSH2 0x8C2 JUMP JUMPDEST DUP7 SSTORE POP PUSH2 0x9A4 JUMP JUMPDEST PUSH1 0x1F NOT DUP5 AND PUSH2 0x953 DUP7 PUSH2 0x740 JUMP JUMPDEST PUSH0 JUMPDEST DUP3 DUP2 LT ISZERO PUSH2 0x97A JUMPI DUP5 DUP10 ADD MLOAD DUP3 SSTORE PUSH1 0x1 DUP3 ADD SWAP2 POP PUSH1 0x20 DUP6 ADD SWAP5 POP PUSH1 0x20 DUP2 ADD SWAP1 POP PUSH2 0x955 JUMP JUMPDEST DUP7 DUP4 LT ISZERO PUSH2 0x997 JUMPI DUP5 DUP10 ADD MLOAD PUSH2 0x993 PUSH1 0x1F DUP10 AND DUP3 PUSH2 0x8A6 JUMP JUMPDEST DUP4 SSTORE POP JUMPDEST PUSH1 0x1 PUSH1 0x2 DUP9 MUL ADD DUP9 SSTORE POP POP POP JUMPDEST POP POP POP POP POP POP JUMP JUMPDEST PUSH0 DUP2 SLOAD PUSH2 0x9B8 DUP2 PUSH2 0x682 JUMP JUMPDEST PUSH2 0x9C2 DUP2 DUP7 PUSH2 0x338 JUMP JUMPDEST SWAP5 POP PUSH1 0x1 DUP3 AND PUSH0 DUP2 EQ PUSH2 0x9DC JUMPI PUSH1 0x1 DUP2 EQ PUSH2 0x9F2 JUMPI PUSH2 0xA24 JUMP JUMPDEST PUSH1 0xFF NOT DUP4 AND DUP7 MSTORE DUP2 ISZERO ISZERO PUSH1 0x20 MUL DUP7 ADD SWAP4 POP PUSH2 0xA24 JUMP JUMPDEST PUSH2 0x9FB DUP6 PUSH2 0x740 JUMP JUMPDEST PUSH0 JUMPDEST DUP4 DUP2 LT ISZERO PUSH2 0xA1C JUMPI DUP2 SLOAD DUP2 DUP10 ADD MSTORE PUSH1 0x1 DUP3 ADD SWAP2 POP PUSH1 0x20 DUP2 ADD SWAP1 POP PUSH2 0x9FD JUMP JUMPDEST DUP1 DUP9 ADD SWAP6 POP POP POP JUMPDEST POP POP POP SWAP3 SWAP2 POP POP JUMP JUMPDEST PUSH0 PUSH1 0x60 DUP3 ADD SWAP1 POP DUP2 DUP2 SUB PUSH0 DUP4 ADD MSTORE PUSH2 0xA45 DUP2 DUP7 PUSH2 0x9AC JUMP JUMPDEST SWAP1 POP PUSH2 0xA54 PUSH1 0x20 DUP4 ADD DUP6 PUSH2 0x3C7 JUMP JUMPDEST PUSH2 0xA61 PUSH1 0x40 DUP4 ADD DUP5 PUSH2 0x5D3 JUMP JUMPDEST SWAP5 SWAP4 POP POP POP POP JUMP INVALID LOG2 PUSH5 0x6970667358 0x22 SLT KECCAK256 PUSH4 0x545252D3 DIV SWAP10 0xBD LOG4 PUSH2 0x66DE 0xCF ORIGIN TSTORE 0xDC LOG4 0xA8 PUSH30 0xCCD2C35E17CB27A4B2633007B964736F6C634300081A0033000000000000 "
		},
		"gasEstimates": {
			"creation": {
				"codeDepositCost": "543800",
				"executionCost": "infinite",
				"totalCost": "infinite"
			},
			"external": {
				"bidAmount()": "2425",
				"eligible()": "2510",
				"minBid()": "2448",
				"name()": "infinite",
				"registerBidder(string,uint256)": "infinite",
				"setBidAmount(uint256)": "56834",
				"setName(string)": "infinite"
			},
			"internal": {
				"determineEligibility()": "infinite"
			}
		},
		"methodIdentifiers": {
			"bidAmount()": "aec2393b",
			"eligible()": "d832d92f",
			"minBid()": "3e109a19",
			"name()": "06fdde03",
			"registerBidder(string,uint256)": "dc11799b",
			"setBidAmount(uint256)": "9554d3f5",
			"setName(string)": "c47f0027"
		}
	},
	"abi": [
		{
			"inputs": [
				{
					"internalType": "uint256",
					"name": "_minBid",
					"type": "uint256"
				}
			],
			"stateMutability": "nonpayable",
			"type": "constructor"
		},
		{
			"anonymous": false,
			"inputs": [
				{
					"indexed": false,
					"internalType": "string",
					"name": "name",
					"type": "string"
				},
				{
					"indexed": false,
					"internalType": "uint256",
					"name": "bidAmount",
					"type": "uint256"
				},
				{
					"indexed": false,
					"internalType": "bool",
					"name": "eligible",
					"type": "bool"
				}
			],
			"name": "BidderRegistered",
			"type": "event"
		},
		{
			"anonymous": false,
			"inputs": [
				{
					"indexed": false,
					"internalType": "bool",
					"name": "eligible",
					"type": "bool"
				}
			],
			"name": "EligibilityDetermined",
			"type": "event"
		},
		{
			"inputs": [],
			"name": "bidAmount",
			"outputs": [
				{
					"internalType": "uint256",
					"name": "",
					"type": "uint256"
				}
			],
			"stateMutability": "view",
			"type": "function"
		},
		{
			"inputs": [],
			"name": "eligible",
			"outputs": [
				{
					"internalType": "bool",
					"name": "",
					"type": "bool"
				}
			],
			"stateMutability": "view",
			"type": "function"
		},
		{
			"inputs": [],
			"name": "minBid",
			"outputs": [
				{
					"internalType": "uint256",
					"name": "",
					"type": "uint256"
				}
			],
			"stateMutability": "view",
			"type": "function"
		},
		{
			"inputs": [],
			"name": "name",
			"outputs": [
				{
					"internalType": "string",
					"name": "",
					"type": "string"
				}
			],
			"stateMutability": "view",
			"type": "function"
		},
		{
			"inputs": [
				{
					"internalType": "string",
					"name": "_name",
					"type": "string"
				},
				{
					"internalType": "uint256",
					"name": "_bidAmount",
					"type": "uint256"
				}
			],
			"name": "registerBidder",
			"outputs": [],
			"stateMutability": "nonpayable",
			"type": "function"
		},
		{
			"inputs": [
				{
					"internalType": "uint256",
					"name": "_bidAmount",
					"type": "uint256"
				}
			],
			"name": "setBidAmount",
			"outputs": [],
			"stateMutability": "nonpayable",
			"type": "function"
		},
		{
			"inputs": [
				{
					"internalType": "string",
					"name": "_name",
					"type": "string"
				}
			],
			"name": "setName",
			"outputs": [],
			"stateMutability": "nonpayable",
			"type": "function"
		}
	]
}